:020000040800F2
:10000000F8AC002011020008190200081B020008C9
:100010001D0200081F020008210200080000000065
:10002000000000000000000000000000E51B0008C8
:100030002502000800000000E31B0008E71B000881
:100040002B0200082B0200082B0200082B020008DC
:100050002B0200082B0200082B0200082B020008CC
:100060002B0200082B0200082B0200082B020008BC
:100070002B0200082B0200082B0200082B020008AC
:100080002B0200082B0200082B0200082B0200089C
:100090002B0200082B0200082B0200082B0200088C
:1000A0002B0200082B0200082B0200082B0200087C
:1000B0002B0200082B0200082B0200082B0200086C
:1000C0002B0200082B0200082B0200082B0200085C
:1000D0002B0200082B0200082B0200082B0200084C
:1000E0002B0200082B0200082B0200082B0200083C
:1000F0002B0200082B0200082B0200082B0200082C
:100100002B0200082B0200082B0200082B0200081B
:100110002B0200082B0200082B0200082B0200080B
:100120002B0200082B0200082B0200082B020008FB
:100130002B0200082B0200082B0200082B020008EB
:100140002B0200082B0200082B0200082B020008DB
:100150002B0200082B0200082B0200082B020008CB
:100160002B0200082B0200082B0200082B020008BB
:100170002B0200082B0200082B02000800000000E0
:100180002B0200082B0200082B0200082B0200089B
:100190002B0200082B0200082B0200082B0200088B
:1001A0002B0200082B0200082B0200082B0200087B
:1001B0002B0200082B0200082B0200082B0200086B
:1001C0002B0200082B020008000000002B02000890
:1001D0002B0200082B0200082B0200082B0200084B
:1001E0002B0200082B0200082B0200082B0200083B
:1001F0002B0200082B020008DFF810D000F064F892
:1002000000480047E1430008AFF30080F8AC00204D
:100210000648804706480047FEE7FEE7FEE7FEE7A0
:10022000FEE7FEE7FEE7FEE7FEE7FEE79D1C0008AF
:10023000F90100080649074A0868504343F23902A9
:10024000104408604008704701490860704700008A
:10025000D80000206D4EC64140EA01039B0703D041
:1002600009E008C9121F08C0042AFAD203E011F8F5
:10027000013B00F8013B521EF9D27047D2B201E0B7
:1002800000F8012B491EFBD270470022F6E710B59B
:1002900013460A4604461946FFF7F0FF204610BDF4
:1002A000421C10F8011B0029FBD1801A704730B5A1
:1002B00004460020034600E05B1C934203D2E05C4E
:1002C000CD5C401BF8D030BD064C074D06E0E06821
:1002D00040F0010394E8070098471034AC42F6D38D
:1002E000FFF78EFF90790008B079000838B5044612
:1002F000006800F58050816941F4801181612068B7
:1003000000F5805080690090012000F09FF820687F
:10031000009900F58050816138BD00002DE9F04161
:10032000044621B14FF40061C800C4E90201E0694C
:100330000025002862D028462368D4E9022C3D4FCE
:100340004026196842EA0C020243394042F4007028
:100350000843186020680768012000F077F82068DB
:1003600007602068466020684668012000F06EF84B
:1003700020684FF641724660206885602068C5603D
:1003800021688869104040F0800088612068866993
:10039000012000F05BF8206886612068C561206854
:1003A000C569012000F052F82068234B2349C5613C
:1003B000206800F5805082691A40114381612068ED
:1003C00000F580508569012000F040F820681C4944
:1003D00000F580508561206800F58050016020683C
:1003E00000F580500568012000F030F8206800F525
:1003F00080500560A069012803D009E04FF48060B7
:100400009AE720680F4A00F58050C1691143C16125
:1004100060690D4982880A648278C47845780378D7
:10042000120443EA046042EA052210434864BDE82E
:10043000F08100000F8120FF233FDEF8040020023E
:100440008020C102400001000080024031B500F070
:10045000CDFD044600F0CAFD0099001B8842F9D387
:1004600038BD2DE9F04390F845400025012C0DD012
:100470004FF0010980F84590022644F2F45780F8C5
:1004800044605E1E4FF0004C816217E00220BDE820
:10049000F083C5EBC51801EB451408EB480802EBE7
:1004A0008808C4F800C0B542C4E9017804D204F158
:1004B0002008C4F80C8000E0E1606D1C9D42E8D388
:1004C0000368002403F58053D96080F8449080F8D5
:1004D00045402046DBE700002DE9F04390F8454019
:1004E00091460022012C09D0C1620126022480F825
:1004F00045605D1E80F84440E70422E00220BDE82C
:10050000F08300BFC2EBC21404EB440801EB4214B9
:1005100009EB880C2760C4F808C0D0F81CC0BCF1F7
:10052000000F05D1D4F800C04CF4400CC4F800C052
:10053000AA4204D204F1200CC4F80CC000E0E1602F
:10054000521C9A42DED30268002302F580521161E8
:1005500080F8446080F845301846D0E710B590F830
:100560004510012913D0012280F84520022180F88E
:1005700044100023816A0C68002C28DB0C68E40519
:1005800019D5846B641C8463012C02D002E0022024
:1005900010BD016341630C68C4F30D44241FC463A0
:1005A000046BA4680464C968816280F8442080F800
:1005B0004530002010BD0C68A40503D58263C0E956
:1005C0000C1302E0846B641C8463C968816280F848
:1005D000442080F84530012010BD00002DE9FC5F6B
:1005E0004FF000060400B346009624D0606801284E
:1005F00004D018B1BA2185A001F089FBA06928B107
:10060000012803D0BB2181A001F081FBE06928B162
:10061000012803D0BC217DA001F079FB206A30B114
:10062000B0F5000F03D0BD2178A001F070FB94F865
:10063000440018B107E00120BDE8FC9F204684F883
:10064000456000F013F97F48016841F48041016082
:10065000006800F4804001907B48016821F40001AB
:1006600001600168226A11430160206800F5805032
:10067000016841F00101016000F0B8FC4FF4FA7725
:10068000054608E000F0B2FC401BB84203D9032045
:1006900084F844006EE0206800F580500068C007D0
:1006A000F0D12068006920F01C0500F0E1FE674AE7
:1006B000674902448A4202D245F0080516E0654ABD
:1006C000654902448A4202D245F00C050EE0634AB5
:1006D000634902448A4209D3624A6349104488420A
:1006E00002D245F0040501E045F0100520680561DF
:1006F00000214FF40042204600F03AFA00284FF063
:10070000010570D1FF20FFF7A1FE60684FF400697A
:100710004FF4804A90B300F069FC804641F288377C
:1007200001216A46204600F0EFF800F05FFCA0EBE4
:100730000800B84218D800984007F1D5002120469B
:100740004FF4805200F014FA00284CD100F04EFC17
:1007500080466A460121204600F0D6F800F046FCAB
:10076000A0EB0800B8420AD901212046FFF7D6FDC8
:1007700084F84450032084F845605DE716E0009853
:100780008006E6D510216A46204600F0BDF850BB31
:100790000098410702D5C4F80C9000E0E66080079D
:1007A00001D5A6602AE0C4F808A027E0A06830B10F
:1007B000504504D015A040F2951101F0A8FAE06868
:1007C000484505D020B111A04FF4CB7101F09FFA3C
:1007D000D4E90201C90841EA500082B22046002152
:1007E00000F0C6F930B101212046FFF797FD84F8EB
:1007F000445020E740F6FF70FFF728FE5946204698
:10080000FFF78CFD84F84450002015E72E2E2F446E
:100810007269766572732F53544D33324637787848
:100820005F48414C5F4472697665722F5372632F43
:1008300073746D3332663778785F68616C5F6574A6
:10084000682E6300443802400438014000D3CEFED5
:10085000C0E1E40040F1E9FD40787D0100796CFCE5
:10086000005A6202001F0AFA80F0FA02F0B500682E
:1008700087B01F49884239D11E48016841F0007194
:100880000160016801F000710591016841F080612B
:100890000160016801F080610591016841F000612B
:1008A0000160006802240125694600F0006005909F
:1008B00003260B2732208DE8F1000F4800F0BCF929
:1008C000862069468DE8F1000C4800F0B5F9200358
:1008D00069468DE8F1000A4800F0AEF94FF4205067
:1008E00069468DE8F100074800F0A6F907B0F0BDB1
:1008F0000080024030380240000802400000024000
:1009000000040240001802402DE9F0470446008A26
:1009100091460D46202804D921A04FF4856101F0AD
:10092000F6F994F8440082281DD082214FF6FF701A
:1009300084F844104FF4F861226801EA8511268A90
:10094000136900EAC62003F01C031843014321F099
:10095000020040F00105156100F048FB0127064642
:100960004FF4803810E00220BDE8F08700F03EFB35
:10097000801B404506D3002084F8447084F845006D
:100980000320F1E720680569E807EFD12068406996
:1009900081B2C9F8001084F844700020E4E7000038
:1009A0002E2E2F447269766572732F53544D333255
:1009B000463778785F48414C5F4472697665722F9C
:1009C0005372632F73746D3332663778785F686162
:1009D0006C5F6574682E6300F8B5044690F84500B6
:1009E000012839D0012584F84550022084F84400BC
:1009F00020680026016841F0080101602068006855
:100A000000902846FFF722FD2168009808602068C2
:100A1000016841F004010160206800680090012035
:100A2000FFF714FD2168009808602046FFF75EFC80
:100A3000206800F58050816941F40051816120688F
:100A400000F58050816941F00201816184F84450D1
:100A5000002084F84560F8BD0220F8BDF0B590F89C
:100A600045200023012A13D0012680F84560022288
:100A700080F844204FF0000561B1C76A3A68002A47
:100A80000BDA122180F8441080F845500120F0BDA7
:100A90000220F0BD80F84460F6E740F2F454A14231
:100AA0000BD9B1FBF4F204FB121CB1FBF4F2BCF164
:100AB000000F00D0521C012A45D13A68C1F30C0145
:100AC00042F040523A60C26A5160C16A0A6842F01C
:100AD00000420A60C16AC968C16236E0D7F800C046
:100AE0002CF0405CC7F800C033B9C76AD7F800C023
:100AF0004CF0805CC7F800C0D0F82CC0571EBB4239
:100B0000CCF8044014D1C76AC2F1010ED7F800C076
:100B1000CEEBCE1E4CF0005CC7F800C00EEB4E0EC4
:100B2000D0F82CC001EB8E07C7F30C07CCF804708B
:100B3000C76AD7F800C04CF0004CC7F800C0C76ABD
:100B40005B1CFF68C7629342C8D3016801F58051FE
:100B50004A69520705D504224A61016801F58051AE
:100B60004D6080F8446080F845500020F0BD0000E2
:100B70002DE9F0410446008A16460D46202804D986
:100B80004FF48E611EA001F0C2F894F84400422890
:100B90001ED042204FF6FF7384F84400B7B220689D
:100BA0004FF4F861268A01EA85110269476103EA78
:100BB000C620236802F01C021043014341F00305E4
:100BC0001D6100F013FA012706464FF4803811E04A
:100BD0000220BDE8F08100BF00F008FA801B40450C
:100BE00006D3002084F8447084F845000320F0E721
:100BF00020680569E807EFD184F84470E9E7000050
:100C00002E2E2F447269766572732F53544D3332F2
:100C1000463778785F48414C5F4472697665722F39
:100C20005372632F73746D3332663778785F6861FF
:100C30006C5F6574682E63002DE9F84F0446AD487B
:100C400000260D46844221D0AB4884421ED0AB48DA
:100C500084421BD0AA48844218D0AA48844215D0A6
:100C6000A948844212D0A94884420FD0A84884429F
:100C70000CD0A848844209D0A748844206D0A7488F
:100C8000844203D0C121A6A001F041F828880004C5
:100C9000000C03D1C221A2A001F039F86868F8B1B4
:100CA00001281DD011281BD0022819D0122817D0D6
:100CB000AA49884214D0AA49884211D0A949884239
:100CC0000ED0A94988420BD0A849884208D0A8492B
:100CD000884205D0032803D0C32191A001F017F862
:100CE000A86838B1012805D0022803D0C4218CA0FF
:100CF00001F00DF84FF0010B2F680BFA06F00740DA
:100D0000824657457ED16868022801D0122834D126
:100D1000286908B301281FD002281DD003281BD042
:100D2000042819D0052817D0062815D0072813D075
:100D3000082811D009280FD00A280DD00B280BD075
:100D40000C2809D00F2807D00D2805D00E2803D075
:100D5000D52173A000F0DBFFF0080F2304EB800225
:100D600028694FEA467C116A4FEADC6C03FA0CF3FF
:100D7000994300FA0CF00843106203212A79206895
:100D80007300994602F0030201FA03F802FA09F22D
:100D900020EA0800024322606868012805D0022882
:100DA00003D0112801D012281CD1E86848B10128CD
:100DB00007D0022805D0032803D0E92158A000F06D
:100DC000A6FFA068E96820EA080001FA09F10143DA
:100DD000A1606168287921EA0A01C0F30010B040DF
:100DE00008436060E168A86821EA080100FA09F098
:100DF0000843E0606868C00075D55E48016841F44A
:100E0000804100E06FE00160006826F00303B20754
:100E100000F48040009058480F21120F0344D3F88B
:100E20000808DFF8D0C09140644520EA010001D1F4
:100E300000212DE030498C4201D1012128E02F49C9
:100E40008C4201D1022123E02D498C4201D10321A2
:100E50001EE02C498C4201D1042119E02A498C4220
:100E600001D1052114E029498C4201D106210FE06E
:100E700027498C4201D107210AE026498C4201D141
:100E8000082105E024498C4201D1092100E00A2112
:100E900091403A4A0143C3F8081869681068C903C9
:100EA00020EA070000D53843344B10601B1D6968E9
:100EB0001868890320EA070000D538432F491860D5
:100EC00008316A680868D20220EA070000D5384372
:100ED0002A4A08600C3269681068890220EA070013
:100EE00000D538431060761C102EFFF405AFBDE826
:100EF000F88F000000000240000402400008024099
:100F0000000C024000100240001402400018024091
:100F1000001C024000200240002402400028024041
:100F20002E2E2F447269766572732F53544D3332CF
:100F3000463778785F48414C5F4472697665722F16
:100F40005372632F73746D3332663778785F6861DC
:100F50006C5F6770696F2E63000000000000111065
:100F600000002110000031100000121000002210BB
:100F7000000032104438024000300140003C014083
:100F800070B50C001546064604D109A040F2AB111D
:100F900000F0BDFE45B1012D04D04FF4D67104A080
:100FA00000F0B5FEB46170BD2004B06170BD0000FA
:100FB0002E2E2F447269766572732F53544D33323F
:100FC000463778785F48414C5F4472697665722F86
:100FD0005372632F73746D3332663778785F68614C
:100FE0006C5F6770696F2E63000000000148006845
:100FF00070470000D000002002480168491C0160D1
:1010000070470000D0000020032010B500F096F8D3
:10101000002000F005F800F017F8002010BD0000D7
:10102000084910B504464FF47A700968B1FBF0F036
:1010300000F0CFFC00222146501E00F031F80020C5
:1010400010BD0000D4000020032010B500F076F899
:1010500000226FF00B00114600F022F800226FF022
:101060000A00114600F01CF800226FF0090011463A
:1010700000F016F80022501F114600F011F800226F
:10108000101F114600F00CF80022901E114600F0CF
:1010900007F80022BDE81040501E1146AFF3008053
:1010A00070B5102A14460D46064603D3BA2113A084
:1010B00000F02DFE102D03D3BB2110A000F027FE61
:1010C0001D480068C0F30223C3F10702042A00D9B7
:1010D0000422181D072801D2002300E0DB1E012195
:1010E00001FA02F09940401E2840491E98402140D4
:1010F00001433046BDE8704000F062BD2E2E2F4403
:101100007269766572732F53544D3332463778784F
:101110005F48414C5F4472697665722F5372632F4A
:1011200073746D3332663778785F68616C5F636FB4
:10113000727465782E6300000CED00E070B507282E
:1011400004460BD0062C09D0052C07D0042C05D062
:10115000032C03D0A22108A000F0D9FD154904F00A
:1011600007024FF6FF050868134B284040EA0220AB
:101170001843086070BD00002E2E2F4472697665FA
:1011800072732F53544D3332463778785F48414C51
:101190005F4472697665722F5372632F73746D3377
:1011A00032663778785F68616C5F636F72746578F8
:1011B0002E6300000CED00E00000FA051848F8B5B9
:1011C000016841F0805101600068164C00F08050C9
:1011D0000090206840F480302060FFF707FF4FF454
:1011E0007A76054605E000BFFFF700FF401BB042DE
:1011F0000FD86068C003F7D5206840F40030206045
:10120000FFF7F4FE054606E0FFF7F0FE401BB04294
:1012100001D90320F8BD60688003F5D50020F8BD32
:1012200040380240007000402DE9F04705000C46B0
:101230007ED02868401E0E2804D97BA040F273217E
:1012400000F065FD14B3012C20D0022C1ED0032C1D
:101250001CD0042C1AD0052C18D0062C16D0072C24
:1012600014D0082C12D0092C10D00A2C0ED00B2C24
:101270000CD00C2C0AD00D2C08D00E2C06D00F2C24
:1012800004D04FF41D7168A000F041FD744F386820
:1012900000F00F00A04209D2386820F00F00204370
:1012A0003860386800F00F00A04272D128786D4E87
:1012B00080071CD5A868A0B1802812D0902810D033
:1012C000A0280ED0B0280CD0C0280AD0D02808D032
:1012D000E02806D0F02804D053A040F28B2100F083
:1012E00016FDA968306820F0F000084330602878C7
:1012F000C0073FD0DFF86C816868A8F1080868B1C2
:1013000001281ED0022820D047A040F2922100F0F0
:10131000FEFC6868012814D0022816D0D8F8000016
:101320008007002835DA6968306820F0030000E0A3
:101330002FE008433060FFF759FE804641F28839BC
:1013400011E0D8F800008003EBE7D8F80000800136
:10135000E7E700BFFFF74AFEA0EB0801494502D9C5
:101360000320BDE8F0876868316801F00C01B1EB3B
:10137000800FEFD1386800F00F00A0420BD9386819
:1013800020F00F0020433860386800F00F00A042C2
:1013900001D00120E5E728784FF480544FF4A0579E
:1013A0004FF4C05840074FF4E05914D5E86860B1D5
:1013B000A0420AD0B84208D0404506D0484504D0E3
:1013C00019A040F2CF2100F0A2FCE968306820F4B7
:1013D000E050084330602878000715D5286960B1CF
:1013E000A0420AD0B84208D0404506D0484504D0B3
:1013F0000DA040F2D62100F08AFC2869316821F462
:10140000604141EAC000306000F038F83168164AA7
:10141000C1F30311515CC840144908600020FFF774
:10142000FFFD00209DE700002E2E2F447269766597
:1014300072732F53544D3332463778785F48414C9E
:101440005F4472697665722F5372632F73746D33C4
:1014500032663778785F68616C5F7263632E630011
:10146000003C02400838024008790008D4000020FF
:101470000148006870470000D4000020144910B5EE
:101480001448096811F00C0113D0421004290FD040
:1014900008290ED10E49091F0B680C6803F03F03A1
:1014A000640207D50C68B2FBF3F0C4F3881206E0BF
:1014B000104610BD0A68B0FBF3F0C2F38812096849
:1014C0005043C1F30141491C4900B0FBF1F010BD8C
:1014D000083802400024F4002DE9F84F04004FF0D2
:1014E00000077CD020680F2804D9FFA040F20D111E
:1014F00000F00DFC2078DFF82894A9F1040AC00759
:10150000AAF1040558D060684FF480364FF4A02843
:1015100040B1B04206D0404504D0F3A040F21311D0
:1015200000F0F5FBD9F800104846C1F3810101290C
:1015300008D00068C0F3810002280AD1DAF8000060
:10154000400206D52868800336D560680028C8D0D8
:1015500032E06068B04203D1286840F4803009E08E
:1015600008B140450DD0286820F4803028602868F4
:1015700020F480202860606888B1FFF737FD0646B8
:1015800009E0286840F480202860E5E7FFF72EFD99
:10159000801B64287ED828688003F7D50CE0FFF70D
:1015A00025FD064605E000BFFFF720FD801B6428EF
:1015B000F0D828688003F7D42078800754D5E068F5
:1015C00030B1012804D0C8A040F2451100F09FFBC3
:1015D00020691F2806D9C4A04FF4A37100E095E04C
:1015E00000F095FBD9F80010484611F00C0F08D018
:1015F0000068C0F3810002280AD1DAF80000400236
:1016000006D42868800717D5E06801287ED113E04A
:10161000E0680028286817D040F001002860FFF734
:10162000E5FC064605E000BFFFF7E0FC801B022852
:10163000B0D828688007F7D52069296821F0F8011B
:1016400041EAC00028600FE020F001002860FFF7A9
:10165000CDFC064605E000BFFFF7C8FC801B022852
:1016600098D828688007F7D42078000735D5AC4E85
:1016700060696C36F0B1012806D09BA04FF4C371AD
:1016800000F045FB6069A8B13168B04641F0010146
:10169000316000E05FE1FFF7A9FC064605E000BF0E
:1016A000FFF7A4FC801B0228C2D8D8F800008007EE
:1016B000F6D512E03168B04621F001013160FFF744
:1016C00095FC064605E000BFFFF790FC801B022852
:1016D000AED8D8F800008007F6D42078400777D538
:1016E000A06840B1012806D0052804D04FF4D87175
:1016F0007DA000F00CFBDFF8288208F13808D8F84C
:101700000000C0000DD4D8F8001000E0E3E041F084
:101710008051C8F80010D8F80000012700F0805070
:10172000009080480168C90511D40168834641F4DE
:1017300080710160FFF75AFC064604E0FFF756FC93
:10174000801B64288CD8DBF80000C005F6D5744EE9
:10175000A068683601280AD008B1052811D0306881
:1017600020F001003060306820F0040002E03068B2
:1017700040F001003060A068A0B1FFF737FC83465D
:101780000CE0306840F004003060F0E7FFF72EFC1A
:10179000A0EB0B0141F28830814285D83068800788
:1017A000F4D50EE0FFF722FC834607E0FFF71EFCAE
:1017B000A0EB0B0141F28830814289D83068800764
:1017C000F4D42FB1D8F8001021F08051C8F80010DF
:1017D000A06900287ED0012809D0022807D04FF444
:1017E000FA7141A000F093FAA0690028F2D0D9F86C
:1017F0000000C0F3810002286DD0A069022807D044
:10180000286820F080702860FFF7F0FB0446A5E010
:10181000E06938B1B0F5800F04D033A040F2FD117B
:1018200000F075FA206A801E3D2804D92EA04FF4DE
:10183000FF7100F06CFA606A3238B0F5BF7F04D9EE
:1018400029A040F2FF1100F062FAA06A02280AD033
:10185000042808D0062806D0082804D04FF40071C8
:1018600021A000F054FAE06A801E0D2804D91EA0C1
:1018700040F2012100F04BFA206B801E052804D9AC
:1018800019A040F2032100F042FA286820F080708D
:101890002860FFF7ABFB064605E000BFFFF7A6FB9D
:1018A000801B022857D828688001F7D4D4E9092181
:1018B000DFF874C0D4E9070694F830304F0894F884
:1018C0002C1030430CEB074444EA8212104340EAE8
:1018D000016001E045E046E040EA0370CAF800001C
:1018E000286840F0807021E02E2E2F4472697665C2
:1018F00072732F53544D3332463778785F48414CDA
:101900005F4472697665722F5372632F73746D33FF
:1019100032663778785F68616C5F7263632E63004C
:1019200008380240007000400000FFFF2860FFF709
:101930005DFB044605E000BFFFF758FB001B0228D3
:1019400009D828688001F7D50BE000BFFFF74EFBF0
:10195000001B022802D90320BDE8F88F2868800107
:10196000F4D40020F8E70120F6E7000010B50428C1
:101970004FF0E02409D020B106A040F2D91100F0C8
:10198000C6F9206920F0040002E0206940F004005C
:10199000206110BD2E2E2F447269766572732F530D
:1019A000544D3332463778785F48414C5F44726912
:1019B0007665722F5372632F73746D333266377886
:1019C000785F68616C5F636F727465782E63000086
:1019D0007047401EB0F1807F10B501D3012010BDCB
:1019E0004FF0E02460610F21601700F0E9F800205B
:1019F000A0610721216110BD10B5FFF7E9FF10BDFF
:101A000050482DE9F043016887B041F010010160B2
:101A1000016801F010010591016841F004010160C5
:101A2000016801F004010591016841F020010160A5
:101A3000016801F020010591016841F08001016019
:101A4000016801F080010591016841F00101016028
:101A5000016801F001010591016841F00201016096
:101A6000016801F002010591016841F04001016047
:101A7000016801F040010591016841F00801016031
:101A8000006844F28107DFF8C090002200F00800EF
:101A9000394605904846FFF773FA00244FF6FF7663
:101AA0000325009629486946CDE90154FFF7C4F89B
:101AB000DFF89C804FF40050CDE9000469464046B1
:101AC0000294FFF7B9F84DF6CD706946CDE90005EF
:101AD00040460294FFF7B0F8009669461D48CDE9EC
:101AE0000154FFF7A9F849F679706946CDE9000578
:101AF00019480294FFF7A0F801200097CDE90104EE
:101B0000694648460394FFF797F849F67E706946A0
:101B1000CDE9000548460294FFF78EF84DF2FF70BC
:101B20006946CDE900050D480294FFF785F8009657
:101B300069460B48CDE90154FFF77EF807B0BDE8D0
:101B4000F0830000303802400004024000100240E0
:101B50000008024000140240000002400018024049
:101B6000000C02400EB502F029FC134B0020104A75
:101B7000104918601B1D18601B1D18608DE80700B8
:101B80001A1F0E48111F02F069FD0C4802F0C2FD39
:101B90000A4890F82F004007084802D502F0F6FDE9
:101BA00001E002F0BDFDBDE80E40044800F08ABF30
:101BB0004D3600083937000800000020DC00002006
:101BC000090700284FEA116106DA00F00F0000F162
:101BD000E02080F8141D704700F1E02080F8001428
:101BE00070477047704710B5FFF706FABDE8104020
:101BF000FFF702BF274830B593B0016841F080512C
:101C00000160006800F0805012902348016841F4A0
:101C10004041016000680224042300F44040129017
:101C200001200893D82582054FF4A021CDE9064272
:101C3000CDE909540B94CDE900016846FFF74CFC4F
:101C400000B1FEE7FFF7BAFA00B1FEE70FAD0021E1
:101C50004FF4A0524FF4805385E80E000F20CDE9D9
:101C60000D0407210DA8FFF7DFFA00B1FEE7FFF72B
:101C7000FFFB4FF47A71B0FBF1F0FFF7AAFE0420EE
:101C8000FFF774FE0022501E1146FFF709FA13B049
:101C900030BD00004038024000700040104A30B5AE
:101CA0001048146800210F4B44F47004146008338A
:101CB00005680D4A0D4C45F0010505601960036883
:101CC000051D1340074A03600C322C600568E305CC
:101CD000034C25F480250560803C1160236030BDF5
:101CE00088ED00E000380240FFFFF6FE10300024CF
:101CF00002E008C8121F08C1002AFAD170477047D5
:101D0000002001E001C1121F002AFBD1704770477B
:101D100010B504464068804720682246BDE8104060
:101D2000014903F013B80000111D000800280BD072
:101D3000026A002A08D0537A082B05D10968926AF2
:101D4000914201D100F086B970472DE9FC410500B0
:101D500064D02C6A002C61D0616B00233C274FF0CB
:101D60000102481C4FF6FF704FF4803623840AD0DE
:101D70001E31B1FBF7F1B14200D301460904090C51
:101D8000618400D16284A16BB1F1FF3F0CD01E31A0
:101D9000B1FBF7F1B14200D301460904090C2183DC
:101DA00000D12283218BA183E16BB1F1FF3F0CD0E5
:101DB0001E31B1FBF7F1B14200D301460904090C11
:101DC000618300D16283618BE183228B618B8A42C4
:101DD00001D301B12383E17A09B1E06A09E094F803
:101DE00028107F2901D8FF2003E0C02901D36FF01C
:101DF0007F400090206B019028B9A06A00990840AC
:101E000040F0807001900A21204600F053FE01ABA3
:101E10006A4604F12801284602F058FCBDE8FC811E
:101E200070B5046A08210546204600F043FE0022F2
:101E3000284604F1280101F0C7FAA07AFF2801D250
:101E4000401CA0724FF4FA7040F2E731B1FBF0F0A1
:101E5000E08270BD294870B504684CE0206AA0B3E8
:101E6000417A91B3418C69B1018C428C491C89B291
:101E70000184914206D1204600F0F0FC204600F09B
:101E800039F937E0C18B19B14A1EC283012906D046
:101E9000818BD1B14A1E8283012917D02AE0256A9D
:101EA0002046697A012905D00A2903D0052901D0E5
:101EB00004291FD100F076FB688C298C401A022877
:101EC00018DB00EBD0704008E88313E0256A204659
:101ED000697A012903D00A2901D005290AD100F025
:101EE00011FD688B298C401A022803DB00EBD070AF
:101EF0004008A8832468002CB0D170BD14000020D5
:101F00002DE9F041070016460C460FD094B100228F
:101F10004FF49A71104602F047FCE06068B1032E5E
:101F200012D0A07A414D58B1A8680CE06FF00F00B4
:101F3000BDE8F0816FF00500FAE74FF0FF30F7E7FA
:101F4000FEF778F9A86020600120E1680025496863
:101F50002161087021694870216997F8280088700C
:101F60002069C570206802F025FA2169082E4860B2
:101F700020690581206945812069C5600AD0042E49
:101F800008D0072E06D0032E07D1607A052801D08D
:101F9000042802D121697868C860002021690D6198
:101FA00021694D6121698D6197F82810814205D919
:101FB000062803D2391891F8291000E0002123697E
:101FC00000F11C0200F1010C1FFA8CF0102899544A
:101FD000EAD30020236900F12C02411C88B240287A
:101FE0009D54F7D30020236900F16C02411C88B294
:101FF00080289D54F7D3226900200D49C2F8EC10C7
:10200000A58200F1F00325690146421C90B24428E4
:10201000E954F6D301222046352100F059F9314622
:10202000204600F065F9002082E700003000002023
:102030006382536310B5064C2078401E10F0FF00F9
:10204000207004D1E06805F02BFB0020E06010BD9B
:10205000300000207CB5046A0C210646204600F0C2
:1020600029FD042221463046FFF74AFF050021D111
:1020700004222046322100F02BF9A06A02F09AF9DE
:102080000146204600F03DF9204600F06CF9A18A97
:10209000E068F03189B202F070FD0D4843230D4A2B
:1020A000CDE900600C48E168C06805F045FB2046BA
:1020B00000F014F8A07AFF2801D2401CA0724FF45F
:1020C000FA7142F60310B0FBF1F0E08228467CBDC5
:1020D000E0770008E47700083000002010B5040025
:1020E00006D0E06808B102F0C2FC0020E060206188
:1020F00010BD00002DE9FC41064600200621346A8F
:10210000A062204600F0D6FC012221463046FFF7AF
:10211000F7FE070030D102222046392100F0D8F81E
:10212000F18C204600F00EF904222046372100F001
:10213000CFF8DFF880800025204618F8051000F061
:10214000D7F86D1CEDB2042DF6D3204600F00BF944
:10215000A18AE068F03189B202F00FFD16484323EE
:10216000164ACDE900601348E168401EC06805F0DA
:10217000E3FA2046FFF7B2FFA07AFF2801D2401C05
:10218000A072C0B2062802D20121814000E03C21A9
:102190004FF6FF7001EB4102C2EBC1124FF4FA712E
:1021A00000EAC20000F2F310B0FBF1F0E082384622
:1021B000BDE8FC8131000020E0770008E4770008EA
:1021C0000B4870B5002504680EE0206A58B1C18A3A
:1021D000012903D9A1F10101C18204E003D1C58223
:1021E000204600F0BDFC2468002CEED170BD00003C
:1021F00014000020F8B5046A0021204DA5F128063E
:10220000E1622163E87808B1F0686063287908B179
:10221000306901E0606B4008A063687908B17069BB
:1022200003E0606BC0EBC000C008E0636068006959
:10223000A062A87920B1B06902F0BCF80121E06287
:10224000E172E87918B1F06902F0B4F82063002473
:102250000EE000BF06EB8400006A02F0ABF86946AE
:102260000090204600F0E0FD641CE4B2022C03D292
:102270002819007A0028EDD1F8BD0000743800203C
:1022800010B5104C2078A8B905F0FAF9E060B0B1AB
:10229000017A442241F0200101720B4905F0BEF899
:1022A00009494322E06805F015F908490022E06871
:1022B00005F0F3F92078401C2070002010BD4FF08D
:1022C000FF3010BD30000020E07700083127000803
:1022D00030B5838A05695C1C84822B4483F8F01036
:1022E000818A04694B1C8382214481F8F02030BD2F
:1022F00010B5828A0469531C8382224482F8F0104C
:1023000010BDF0B5828A0D0E06690C0C571C878231
:1023100032440B0A82F8F050828A0669551C858285
:10232000324482F8F040828A0569541C84822A442F
:1023300082F8F030828A0469531C8382224482F836
:10234000F010F0BD30B5828A0D0A0469531C8382F7
:10235000224482F8F050828A0469531C838222440A
:1023600082F8F01030BD30B5002813D0828AFF24E7
:102370000569002311462A44491C818282F8F040F5
:1023800005E004694A1C8282214481F8F030818A88
:102390004429F6D330BD00002DE9F04F8BB0044640
:1023A00000208A460A2108907D48FDF76EFFBAF8A2
:1023B0000A002C2818D3DAF80400F02560606FF0CA
:1023C0000509DFF8DC81BAF80800574604E06A1A0C
:1023D0003F68401A95B280B237B17989A942F6D9DF
:1023E000D7F804B00290B7E06FF001000BB0BDE881
:1023F000F08F7B89A81C6A1C4FF0FF3680B20790D3
:10240000934203D90BEB0500407803E0386808B12C
:1024100040680078342904463CD00BDC032926D0E0
:1024200003DCD9B101290DD11DE0062925D03329BE
:1024300008D12BE0352931D0362933D03A2935D08F
:102440003B2939D00024284400F1020085B28CB326
:102450000020099018F8060068B36DE000206D1E9A
:102460000446ADB2EFE7042855D10626EBE7042871
:102470004FF004044FD30726E5E781074BD1082826
:1024800000D30824A04246D30826DCE7042842D122
:102490000326D8E701283ED10026D4E701283AD107
:1024A0000126D0E7042836D10226CCE7042832D111
:1024B0000426C8E740E003E004282CD10526C2E743
:1024C000042C01D2204600E00420079B09A9024603
:1024D0000190384602F098FA01460198814283D172
:1024E000042C14D9A00716D1012008F80600099879
:1024F00001F060FF2A4902460798241F2839001D71
:1025000080B241F82620761C0790E4B2A2E7042CA2
:1025100003D0012C05D0484668E7099801F04AFF2E
:1025200001E09DF824000990012008F806001C48ED
:102530000999283840F826107889A8420BD80299C2
:102540002A1A95B2081A80B2029085420CD258B16C
:102550003F68D7F804B03FB11BF80510FF2903D03E
:1025600002988542FFF445AF98F8000058B10C4836
:1025700000222838006888F8002001280DD00228A1
:1025800004D0032807D008980028C5D00020089060
:102590002C256C2019E7012008906C25EC2014E70D
:1025A000743800202DE9F843046A042106462046C9
:1025B00000F080FA032221463046FFF7A1FC070015
:1025C0002ED1022220463921FFF782FEF18C2046CF
:1025D000FFF7B8FE042220463721FFF779FEDFF827
:1025E00074800025204618F80510FFF781FE6D1C49
:1025F000EDB2042DF6D32046FFF7B5FEA18AE068C0
:10260000F03189B202F0B9FA124843230096401E15
:10261000114AE168C06805F074F82046FFF75EFDD6
:10262000A07AFF2801D2401CA072C0B20A2804D2AE
:102630004FF47A7110FB01F001E042F2107080B2A9
:102640004FF4FA7100F2F310B0FBF1F0E08238467B
:10265000BDE8F88331000020E47700082DE9F84355
:10266000046A03210746204600F024FA032221468B
:102670003846FFF745FC06003CD1022220463921AE
:10268000FFF726FE4FF410712046FFF75BFE042291
:1026900020463221FFF71CFEA06A01F08BFE0146A6
:1026A0002046FFF72EFE042220463721FFF710FEBA
:1026B000DFF87480002500BF18F805102046FFF7EA
:1026C00017FE6D1CEDB2042DF6D32046FFF74BFE2E
:1026D000A18AE068F03189B202F04FFA1248432330
:1026E0000097401E114AE168C06805F00AF82046CC
:1026F000FFF7F4FCA07AFF2801D2401CA072C0B200
:102700000A2804D24FF47A7110FB01F001E042F282
:10271000107080B24FF4FA7100F2F310B0FBF1F0D8
:10272000E0823046BDE8F88331000020E4770008FD
:1027300047482DE9F041446816465168256A002D46
:102740007DD0287A4FF00008002877D070892C2897
:1027500074D30878022871D194F82820002001E071
:10276000401CC0B2824209D9062807D223180F188C
:1027700093F829303F7FBB425FD1F1E7486801F011
:1027800019FE2968884258D131462846FFF704FED1
:1027900000BB304A5078E8B1A2F128010879052839
:1027A00004D006281FD0022834D046E0687A0128D9
:1027B00006D0032813D0042811D005280FD03CE000
:1027C0002046FFF717FD94F82F00000703D5204699
:1027D000FFF726FB31E02046FFF7B7FA2DE0204651
:1027E000FFF708FDF7E7687A032805D0012803D032
:1027F000042801D0052820D1206A0C2100F05AF9C4
:10280000154B20461A46114601F060FF2046FFF79F
:1028100071FC12E0687A06280FD1A5F816802746C9
:102820009078246A48B1886801F0C4FD60626068ED
:102830000069A062384600F0C1F805B100E001E08F
:10284000C5F804803046BDE8F04102F010B9000040
:102850004C68002074380020E07700087CB5046ADA
:102860000546F4B1606A0190284600F06DF9002138
:102870000646204600F01EF900206062A062E06279
:102880002063E063A063606360842084E083A083AE
:1028900056B1072221462846FFF732FB060005D035
:1028A00024E06FF00F007CBD00207CBD0422204698
:1028B0003621FFF70DFD019801F07CFD0146204611
:1028C000FFF71FFD2046FFF74EFDA18AE068F031BB
:1028D00089B202F052F909484323009501AAE16840
:1028E000C06804F00EFF2046FFF7F8FB044B2846B3
:1028F0001A46114601F0EAFE30467CBD3000002049
:10290000E07700082DE9F843046A052106462046D1
:1029100000F0D0F8032221463046FFF7F1FA070015
:102920002FD1022220463921FFF7D2FCF18C20461C
:10293000FFF708FD042220463721FFF7C9FCDFF826
:1029400078800025204618F80510FFF7D1FC6D1C93
:10295000EDB2042DF6D32046FFF705FDA18AE0680D
:10296000F03189B202F009F913484323009604F1CB
:102970002402401EE168C06804F0C3FE2046FFF751
:10298000ADFBA07AFF2801D2401CA072C0B20A2879
:1029900004D24FF4FA6110FB01F001E044F620602C
:1029A00080B24FF4FA7100F2F310B0FBF1F0E08264
:1029B0003846BDE8F8830000310000202DE9FC41D5
:1029C000046A01210646204600F074F803222146DD
:1029D0003046FFF795FA070048D1022220463921F8
:1029E000FFF776FCF18C2046FFF7ACFC0422204672
:1029F0003221FFF76DFCA06A01F0DCFC01462046A5
:102A0000FFF77FFC042220463621FFF761FC606A55
:102A100001F0D0FC01462046FFF773FC042220465B
:102A20003721FFF755FCDFF880800025204618F895
:102A30000510FFF75DFC6D1CEDB2042DF6D32046AA
:102A4000FFF791FCA18AE068F03189B202F095F8B5
:102A500016484323164ACDE900601348E168401E3A
:102A6000C06804F069FE2046FFF738FBA07AFF2813
:102A700001D2401CA072C0B2062802D201218140BE
:102A800000E03C214FF6FF7001EB4102C2EBC112A6
:102A90004FF4FA7100EAC20000F2F310B0FBF1F05B
:102AA000E0823846BDE8FC8131000020E077000874
:102AB000E4770008427A8A4203D04172002282728F
:102AC000C282704770B505006FF00F0017D095F8FF
:102AD0002F10C90713D0E88C4FF0FF362C6AB0F5E1
:102AE000107F0BD364B1207A08B1FFF7A3FA40211D
:102AF0002046FDF7CAFBFFF7C3FB40B1304670BD6F
:102B0000402001F0AFFC0400F8D02C62EFE7012078
:102B100020722846FFF7EEFA0028F0D0284600F091
:102B200001F8EBE7002810B50DD0046A002C0AD09C
:102B300000212046FFF7BEFF207A002803D0FFF7D0
:102B400079FA0020207210BD30B1006A20B1407ABD
:102B50000A2803D0052801D00020704701207047C3
:102B600010B5026A0446517A0C290FD006290DD0FF
:102B700001290FD0082919D0032923D1907A0228DE
:102B800012D22046BDE81040FFF768BDBDE81040F6
:102B9000FFF7B0BA907A0528204603D8BDE8104068
:102BA000FFF70CBFFFF75AFE2046EFE7907A0128A7
:102BB000204603D8BDE81040FFF732B9BDE8104009
:102BC000FFF7C3B810BD00002DE9F35F0646DFF83C
:102BD0008C904FF0000A00EB0611554609F5886805
:102BE00009EB011404F1100B414605EB450758F8B9
:102BF000273053B101EB8702107AB04205D15268F9
:102C000058460199984748F827A06D1CEDB2042D4D
:102C1000EAD3002148460425B1420DD001EB011250
:102C200000EB0212937A022B06D1D27BE37B9A420D
:102C300002D1E573BDE8FC9F491CC9B20429EBD35E
:102C4000E07B0428F6D2054E103E56F8200004F032
:102C500027FDE17B46F821A0EBE700008468002017
:102C60002DE9F04180462A4E00EB081006EB0014D7
:102C7000A07A00280DD00025012701280BD00228BA
:102C800021D0032805D1206810B1401E206000D15A
:102C9000A572BDE8F081FDF7CDFA81B25FF00000CA
:102CA00000EB001206EB0212937A022B02D112897A
:102CB0008A42F0D0401CC0B20428F1D32181022006
:102CC000A072E5721CE0207B401E10F0FF00207314
:102CD000DFD1607B401CC0B26073042805D0207334
:102CE0004046BDE8F04100F019B8E07A0146401CCA
:102CF000022808D2074A02EB8101496819B1E07243
:102D000027736573ECE700214046FFF75DFFBFE7DF
:102D100084680020C8000020704700002DE9FF5F94
:102D20003F4A00EB0011002602EB01153D49EA7A0B
:102D300051F8221039B305F110000446FDF7B0FA3E
:102D4000123081B20022104601F02EFD5FEA000A27
:102D500061D0009601960296288901F02DFBADF80E
:102D6000000001224FF4807B694650468DF8022016
:102D70000C22ADF804B001F03EFF0C26641E0027C3
:102D8000641CA0460AE00021FFF71EFF0020AE727F
:102D900004B0BDE8F09F7F1C641CFFB220782E2891
:102DA00001D00028F7D1A4EB08003A461FFA80F9B9
:102DB0003146504601F0D2FE701C4A4683B241466D
:102DC000504601F042FFF0192178401C86B20029DC
:102DD000D5D100223146504601F0C0FE761CADF838
:102DE0000CB0B3B250460422ADF80EB003A901F006
:102DF0002CFF0B493523E87B1039EA7A51F8200083
:102E0000084901EB8202514604F062FC0446504638
:102E100001F02DFE01E04FF0FF342046B8E700003E
:102E200084680020C8000020022805D2044A02EB72
:102E3000800011B10968016070470249FAE700009B
:102E4000C8000020E077000810B500242046FFF7F6
:102E500007FF641CE4B2042CF8D310BD826812682A
:102E60000A6080680160704781680868002801D0A6
:102E700002680A607047000010B50C460121204628
:102E800003F017FF0C2001F0EDFA010017D000202D
:102E900001220A704870C1E90140204602F0BEF8E4
:102EA0000849204603F096FD0749204602F068FADB
:102EB00006490022204603F02FF8002010BD4FF0F5
:102EC000FF3010BD992F0008112F0008592F00085E
:102ED00070B50C460546002102F0A0F800212846F6
:102EE00003F0E3FE0021284603F074FD002128468C
:102EF00002F046FA00222846114603F00DF814B1FC
:102F0000204601F07FFA2846BDE8704002F0D4B8B0
:102F1000002801D001F076BA7047000010B502F029
:102F200068FD0A4C002820600FD00949502202F0A9
:102F300079F8002809D12068FF2102F0E1FC206027
:102F4000BDE81040034901F0D2BF10BD0C000020C5
:102F5000E0770008792E000870B504000D4613D004
:102F6000A06840B10B49284603F09FFE2146284641
:102F700000F052F806E02078032803D121462846C5
:102F8000FFF7A6FF002070BD084601F0ADFF6FF00F
:102F90000C0070BD693000082DE9F04115001E4697
:102FA0008846044609D04FF0000786B18760104676
:102FB00001F05DFD3046BDE8F081A168032020707E
:102FC000F1B921464046FFF783FF0020F3E7207860
:102FD00001280AD002280CD02989404603F011FDAF
:102FE0002846A76001F043FDEFE7A26002202070B1
:102FF00006E0A06818B1114601F0A7FCE5E7A26061
:103000004046044903F051FE2146404600F004F8D2
:10301000DBE70000693000082DE9F0410D46064667
:1030200019E061680123304604F009F820B1401C22
:1030300000D1AC60BDE8F08167892068A86008B164
:1030400001F0C5FD204601F012FD0028FAD03946F6
:10305000304603F0D6FCAC68002CEBD06289B6F8A1
:1030600060008242DDD9E5E770B504460D4681680F
:103070000020607049B1AFF20F01284603F015FE41
:1030800021462846FFF7C8FF06E02078032803D131
:1030900021462846FFF71CFF002070BD70B50A4D81
:1030A0000024064604EB440005EBC000017D29B175
:1030B0008068B04202D1204600F076F8641CE4B289
:1030C0000A2CEFD370BD00005C6700202DE9FC5F87
:1030D0000A270546DFF8CC9000208B463E4639464D
:1030E0003C4686460190009000EB400A0A2909EB15
:1030F000CA031A7D0AD0B2B165B1D5F800C0D3F8C1
:103100000480C44506D140B2BDE8FC9F002AF3D13B
:1031100041B208E0012A14D0022A04D35A8A724527
:1031200001D3964646B2401CC0B20A28DCD35FEAFF
:103130008B724FF0FF30E7D40A2913D015DACCB2E6
:1031400021E059F83A20002A5A8A05D0019B9A4278
:10315000E9D344B20192E6E7009B9A42E3D347B237
:103160000092E0E75FEACB71CED00A2E01DAF4B22A
:1031700006E00A2F01DAFCB202E00A2CC4DAE4B25B
:10318000204600F011F82DB104EB4402296809EB48
:10319000C200416004EB4402002109EBC20260B2AC
:1031A0005182B1E75C67002070B5074C00EB400529
:1031B000002654F8350018B101F059FC44F8356088
:1031C00004EBC500067570BD5C6700202DE9FC4767
:1031D0000D00074651D07C684FF480782088404528
:1031E00048D12079062845D16079042842D16088E9
:1031F00008283FD1D4F80E0001906868A16920B179
:10320000814202D10126334601E0002602232846EE
:1032100004F1080201A9914600F0D8F9E088404580
:1032200003D0B0F5007F25D120E01EB3022001F0CD
:10323000C3F8E08040F60600D4F80E1004F1120343
:10324000A1614A466968C4F80E10A168C4F812105A
:10325000A189E182D5F82910A160B5F82D10A181CE
:1032600039460090284600F041FA03E001A92846BB
:10327000FEF75CFD384601F0FAFBBDE8FC87000074
:10328000FEB50446106815460E46214600F034FB94
:1032900008B1324B3BE02868C0F303110E2921D05E
:1032A000D4E901210A400140914208D080B2A0F542
:1032B0007E41A93903D0E06898B304F10C05284B8E
:1032C00028491A7802EB420001EBC000077D022F6B
:1032D0002BD32F684068874227D13146204600F023
:1032E00043F8FEBD01228DF8042000208DF8050072
:1032F0005E218DF80610687801AB00F07F008DF834
:103300000700A8788DF80800E8788DF809004FF4D8
:10331000006004F1290231460090204600F0E6F9F1
:10332000FEBDFFE76FF00300FAE7002000EB40026C
:1033300001EBC202177D022F06D32F685268974215
:1033400002D1C2B21A70C8E7401C40B20A28EDDBB5
:1033500032462946204600F037F8E1E7CC780008ED
:10336000880000205C6700202DE9F8438846064667
:10337000144802EB420100EBC10404F10C05207D6E
:10338000022813D1608A0327B0F58E7F04D9211D4E
:10339000304600F0D5F807E0B0F5877F06D3211D51
:1033A0002A46304600F0D2F800B927754FF4006085
:1033B00006F129022B4641460090304600F096F96E
:1033C000BDE8F8835C6700202DE9FC5F8246144667
:1033D0002930884601904FF0FF360868514600F0CA
:1033E0008BFAD0B9D8F80000C0F303110E2914D01D
:1033F000B8F1000F11D080B1012152464046FFF7CD
:1034000065FE07000BD4DFF8A8B007EB47090BEB0C
:10341000C905287D28B144B10EE06FF00F00BDE86A
:10342000FC9FC5F808A0012129754146504600F0CF
:1034300087F8002C0646F2D0287DD84602280DD306
:103440001C484FF4006105F10C0307705046019AC7
:103450000091214600F04AF9064627E0012825D1CF
:103460002046017B01290ED001890022022001F0B3
:103470009BF9050018D0214601F079FA58B1284689
:1034800001F0F5FA10E000680028EAD12546204650
:1034900001F09DFB45B158F8390008B101F0E7FA99
:1034A000002648F8395001E04FF0FF363046B6E7C5
:1034B0005C670020880000202DE9FF4F81B01F4687
:1034C000002693461C213246DDF838A00220DDE9B3
:1034D0000F9801F069F905002FD06C68119800F081
:1034E0006BFFE0804FF480713868A060B888A081DD
:1034F000D9F80020C4F81220B9F80400E0820820AE
:10350000DAF80020C4F80E200622D8F80030A361B3
:103510000423218040F606016080227163715B46BE
:1035200000912946DDE9010200F0E0F8284601F0AB
:103530009EFA304605B0BDE8F08F4FF0FF30F9E756
:10354000014A00F003B80000CC7800087FB5064DB2
:103550000124031DCDE90214CDE9003525331946B8
:10356000FFF7AAFF04B070BDD278000870B5164D01
:103570005FF0000404EB440005EBC001087DF0B1EE
:103580004A8A521C92B24A82B2F5967F0AD2012828
:1035900006D003280AD004280AD001280BD00EE058
:1035A000052A08D32046FFF7FFFD08E0042000E0CD
:1035B0000220087503E08868091DFFF7C1FF641C3D
:1035C000E4B20A2CD6D370BD5C670020F8B50E00BB
:1035D0001F461546044634D0306888B3214600F0B3
:1035E0008BF968BB3078C0F303100E2829D022462F
:1035F00039463046FFF76AFD002820DB124A00EB0F
:103600004001022302EBC1000375002384602E6891
:10361000C660AE880682438252F8316076B142F8C5
:1036200031304FF400602B4604F1290231460090FE
:10363000204600F05BF8304601F019FA0020F8BD92
:10364000FFE76FF00F00FAE75C67002070B50446F3
:1036500040890D460E283CD9606801788689CA07E2
:1036600014D0012905D020490622FCF720FE48B1DC
:103670000CE0417851B980785E2807D1607B40F03A
:10368000100002E0607B40F008006073082E6FF0CD
:103690000D0103D0B6F5C16F1BD10FE095F82F00D7
:1036A000000716D560890E2813DB204601F01EFAAC
:1036B00078B92946204600F0E7F912E095F82F0086
:1036C000000706D560890E2803DB204601F00EFABC
:1036D00018B1204601F0CBF903E029462046FFF758
:1036E00075FD002070BD0000CC7800082DE9F04188
:1036F0001E4617460D468046069800F05DFE0E21D8
:103700000446284601F0F2F918B16FF00100BDE857
:10371000F0816868848131680160B188818039688E
:10372000C0F80610B98841814046D8F818202946CB
:10373000BDE8F04110470000074A732110B542610F
:10374000064A8261742280F8301080F8312000F03F
:10375000FDFC002010BD0000813200080543000878
:1037600070B5054600F06CFD040009D02A692946B1
:103770009047002804D02046BDE8704001F077B99A
:1037800070BD0A46032100F07DB800002DE9FE4F10
:103790008A463B490446D1F8088098F800000007A3
:1037A000870E142F67DB6089042864D36068007873
:1037B000002860D008285ED1486901F11405C0F3E3
:1037C00003120E2A57D08946096800F095F80028A0
:1037D00051D1208908284ED307F10E0120460E460C
:1037E00001F084F928B320890022384481B20220F4
:1037F00000F0DAFF06003ED0718907F1080081422F
:103800000ED370683A464146FCF726FD79423046B1
:1038100001F06CF920B92146304601F0A8F818B142
:10382000304601F024F926E0204601F020F9344624
:1038300004E07142204601F059F9E0B96668394662
:10384000204601F053F9B0B9606800212A68FF27CB
:10385000C2600A46D9F810300361012331707180CB
:10386000077241812046CDE900133B462946CDF839
:1038700008A000F0E5F92046BDE8FE4F01F0F7B8DA
:103880004C6800202DE9FF479246894600220646F3
:103890002421012000F088FF050027D06C684FF03C
:1038A000000877681C2284F8009084F801A0A4F82E
:1038B0000480A4F80680686871680830FCF7CCFCC6
:1038C000F868039003A800F0EBFA60B1A4F8028056
:1038D0000122CDF80080FF23CDE9012000212846F8
:1038E00003AA00F0ADF9284601F0C1F8BDE8FF8752
:1038F0000A460B21FFF7C6BF421C12D088B191F8CF
:103900002F2092070BD54A68824208D089680A4066
:1039100000EA0103934202D10143491C01D0002077
:1039200070470120704700002DE9F74F86B005462B
:103930001427002407986FF00506C08C1438C117AF
:1039400000EB5170C0F3CF0B68680590017801F06F
:103950000F01052907D1C08800F02EFD8104C0F3B6
:103960000C00029003D5304609B0BDE8F08F2889DD
:1039700014381FFA80F876E0B8EBCB0F01D34FEA8A
:10398000CB0080B2039000221421022000F00CFF33
:103990005FEA000A6ED0DAF8040014220599FCF7F9
:1039A0005BFCDAF80400039E04902BE06889C01BDE
:1039B00084B2A64200D2344614B3052000F042FE81
:1039C0005FEA000953D0686802224B46214638441A
:1039D000CDE90004042000F07BFF0090F0B32846FE
:1039E00001F0F5F827495046C9E90415009900F09F
:1039F00098FF301B0604360C06D02D680027D5E74B
:103A00002D680027002ED1D10798C18C381987B2B4
:103A1000029814394145C0F30C0001DA40F400501B
:103A200000F0CAFC01460498C1800398143080B2AB
:103A300000F0C2FC0499002248805146049842815B
:103A40000798089A43699847504601F010F8039880
:103A5000A8EB0002029800EB0B0100E00DE01FFA5A
:103A600082F888B20290B8F1000085D17CE7504618
:103A700000F0FDFF4FF0FF3076E7484600F03EFAD9
:103A8000F5E70000354100082DE9F05F456806467E
:103A90000F4604212878B1EB101F03D0304600F008
:103AA000E6FF97E000F00F004FF6FF7101EA800893
:103AB000688800F081FC04463089A04203D9214681
:103AC000304601F05AF871894145E7D33089A04268
:103AD000E4D3B8F1140FE1D3DFF85CA12969CAF887
:103AE0001410C1F30312E9680E2ACAF8101014D09A
:103AF000DFF848B13C464FF0010900BF94F82F00B1
:103B0000C00715D0616899B1DAF8140088420BD06B
:103B10002146FFF7F1FE38B90AE097F82F00C007F9
:103B200004D0786810B13C4684B118E000240DE060
:103B3000B9F1000F04D0DBF800404FF0000900E0BD
:103B40002468BC4200D12468002CD7D1687A11289F
:103B500005D105EB08004088B0F5884F38D0DAF879
:103B6000102062B1D14639461046FFF7C5FE002845
:103B700094D199F81000C0F303100E288ED0002CB9
:103B80008CD0E88830F0C00005D0304600F0BEF898
:103B900006001FD07568C8F10001CAF80850304609
:103BA000CAE900472A781207920EAAF80C2000F002
:103BB0009DFF687A01281AD0062813D011280CD04E
:103BC000DAF8140057462146FFF796FEA0B121E02F
:103BD0003C46D4E70020BDE8F09F3946304603F06C
:103BE000A3FC1AE03946304601F016FC15E03946D0
:103BF0003046FFF7CBFD10E0387DC0F303100E28F0
:103C000008D04146304600F074FF0221304675600E
:103C1000FFF7B7FD304600F02AFF0021CAF8001078
:103C2000CAF80410CAF80810AAF80C10CAF8101044
:103C3000CAF81410CEE700004C68002014000020E1
:103C4000FEB5DDE90954089E1AB109B10F6807B93C
:103C5000211D0096CDE9015400F002F8FEBD0000E0
:103C60002DE9F84F16001F4689460546DDE90BA8E9
:103C7000DDF828B02ED0142100F038FF18B16FF015
:103C80000100BDE8F88F6C684520277284F809A010
:103C900031682161207084F801B0288900F08CFB24
:103CA000184F4FF0000A6080A4F806A0388800F092
:103CB00083FBA080B9F1000F388800F10100388043
:103CC00005D0D9F80000E060A4F80AA006E00E488C
:103CD0000068F8E768686E4600690090B8F826004A
:103CE00040B12989814205D9324641462846FFF72D
:103CF0001BFEC6E7D8F8143040463246294698479E
:103D0000BFE7000040000020E07700082DE9F05FE9
:103D100045688346287800F00F0005287ED1E888A2
:103D200000F04AFBC0044FEA1049688800F044FBE9
:103D3000297801F00F01494200EB81001FFA80F859
:103D4000584600F00BFE554E07463188C8190A2820
:103D500009D93946284600F097F900285ED0308806
:103D600038440A285AD874684FF0000A0CE0606999
:103D7000E968884207D1A0692969884203D1A089EE
:103D8000A988884203D02468002CF0D106E02CB129
:103D9000E88800F011FBC0041DD027E0042000F0EB
:103DA00051FC04000AD13946284600F06DF9B842AA
:103DB0006EDB042000F046FC040069D02021FCF7F3
:103DC00064FA0320E07770681422206004F1080090
:103DD0002946746008E0E08900F0EEFAC00405D0DE
:103DE0001422294604F10800FCF736FA30883844DA
:103DF0003080A879800606D4A27F09EB0800A08352
:103E000042F00101A1775946204600F07BF80028D6
:103E10003CD0A08B1430A083606800E038E0456897
:103E2000142204F1080128462F68FCF715FAA08B2C
:103E300000F0C2FA01466980A5F806A06FF01309E8
:103E4000A5F80AA0D4F8048009E07D684946384600
:103E500000F04CFE3946404600F063FD2F68002F0D
:103E6000F3D171688C4205D1002105E00868A042B9
:103E700002D001460029F9D1204600F0BBF84046A7
:103E800000F06CFD3188081A30804046BDE8F09F94
:103E9000584600F0ECFD0020F8E700001C00002070
:103EA00070B50446134813E090F82F10CA070FD0DE
:103EB0004A070DD543685BB182682568134005EA5F
:103EC00002069E4214D0890702D4C1688D420FD0E9
:103ED00000680028E8D10848006840B190F82F1029
:103EE000CA0704D0490702D54168002900D1002043
:103EF00070BD0000140000201800002001460520BD
:103F000000F06EBB2DE9F047D1F8048000240126B3
:103F10000D460746B8F8020000F04EFA014698F840
:103F2000000000F00F00404201EB8009B8F80600E5
:103F300000F042FAC0040021020C686802EB090399
:103F40001FFA83F801608280A0F806807B681DE07C
:103F50005968B1F804C062450DD2036044B1B4F8A9
:103F600006C0624538D38988884535D8256000E089
:103F70007D606BB115E02FD0CB889A422CD31CB159
:103F8000E388634500D000260B680C46002BDFD188
:103F900034B12560E1888288914202D0002600E099
:103FA0007D60B97FC90715D08EB1796849B149687C
:103FB000898831B9026808E05168C0888A889042CF
:103FC00001D0002603E00A680846002AF4D13046F2
:103FD000BDE8F0870020FBE7284600F0BFFC014663
:103FE00003480288511A0180284600F040FDF1E79D
:103FF0001C000020074B0A4630B401685C6884420C
:1040000001D1596000E01160014630BC042000F08D
:10401000E7BA00001C0000202DE9F0414568064683
:10402000884600246868818891B90068142270600D
:1040300006F108016868FCF70FF901212846FFF72F
:1040400057FC284600F08AFC0446284600F00FFD85
:1040500075680AE068682F460568384600F07EFCFF
:10406000204484B2384600F002FD002DF2D14146D2
:104070003046FFF7BFFF03480188091B0180204637
:10408000BDE8F0811C0000202DE9F0471D4F002401
:10409000894606460022134611467868154622E0F6
:1040A000D0F814C0D6F80C80C4450BD1D0F818C095
:1040B000D6F81080C44505D1B0F80CC0B6F804801D
:1040C000C44509D06D1C2AB190F81FC092F81F801A
:1040D000C44501D802461946D0F800C0BCF1000F13
:1040E00000D0034660460028DAD11AB11046FFF727
:1040F00093FF04444C4501DA012DCBDC2046BDE89A
:10410000F08700001C000020094870B500254468B5
:104110000BE0E07F20B1401EE0772546246804E0F4
:10412000204624682946FFF777FF002CF1D170BDA7
:104130001C00002010B50446406908B100F097FC4F
:104140002046BDE81040FFF7D9BE0000FEB5384C50
:104150000546384B0020009001264421236084222C
:10416000666023272082F6058DF8041077238DF8EA
:1041700005208DF806708DF8081001A98DF807202C
:104180008DF80930C4E90510C4E907062046FCF79C
:1041900025FA28B995F82F0040F0040085F82F0083
:1041A000254A042325492248FCF796F9234A04238B
:1041B0001F488032A2F58071FCF753F9062185F87B
:1041C0002810616940F2DC50097885F8291061698E
:1041D000497885F82A106169897885F82B1061691A
:1041E000C97885F82C106169097985F82D10616905
:1041F000497985F82E10E88495F82F0040F00A00E0
:1042000085F82F000A48FCF7E7FB09480B216A46AE
:10421000FCF77AFB00980B2140F00B020448009257
:10422000FCF7A6FC02480B216A46FCF76DFBFEBDBD
:10423000B031002000800240E019002090010020F1
:104240002DE9F84F0020044600902D48FCF786F930
:1042500010B10020BDE8F88F2948818FD0F8409038
:104260000904090C31D00322042000F09DFA0090CB
:1042700058B3234840F2F45B009DD0F8308000270B
:104280006E8913E06B68A4F2F4504242D81909EB2E
:104290000401FBF7E1FFD8F80C003F1B0024AAF251
:1042A000F4568046D0F8089007F2F45706EB040A5B
:1042B000DA45E7D86A6809EB0401D0193246FBF702
:1042C000CBFF2D683444002DD9D10D480022016B5D
:1042D00005E00B6843F000430B60C968521C836B18
:1042E0009342F6D800218163006800F5805042694E
:1042F000120602D58022426181600098AAE7000080
:10430000B03100202DE9F05F29484FF0000B0D4639
:104310005C46C66AD6F808A035E03068002811DB94
:104320006F894FF000081DE06B68A4F2F450424220
:104330000AEB040003EB0801FBF78EFFF668306818
:10434000002802DA6FF0070024E0D6F808A0A8EBF6
:104350000401ABEB040001F2F4580024A9F2F45775
:1043600000F2F45B40F2F45107EB04098945DBD815
:104370006A680AEB040002EB08013A46FBF76CFF9F
:104380002D683C44BB44002DC7D109485946FCF771
:1043900065FB00200649096801F580514A699206CB
:1043A00003D520234B6100224A60BDE8F09F000046
:1043B000B031002000BA704740BA704710B500F025
:1043C00037F800F019F900F073F903F0ABF801F0D9
:1043D00021F8FEF7A1FCBDE8104000F0FFBC000092
:1043E000FCF712FEFDF706FCFDF70AFBFDF7BAFB32
:1043F000FEF794FD0248FFF7B3F900F079FCF9E706
:10440000DC000020002810D008490A6890420CD334
:104410004A68904209D2002200F8042C8A680838C1
:10442000904200D2886000F039BC70472400002020
:104430000A484FF4C8630A4A20F0030030B5106000
:104440000024038000F5C861448001250471516097
:104450000D710B804B80906030BD0000FB3100205F
:1044600024000020F0B5002846D0C01C4FF6FC7197
:1044700000EA01050C2D4FF4C86C01D20C2501E0B7
:1044800065453ED8204CC5F5C866A3682268981AD1
:1044900081B234E0501807797FBB07887F1A083F44
:1044A000AF422BD30688012705F1140E761A083E79
:1044B000764514D30D444FF0000E0835AEB2951971
:1044C00085F804E0B0F800E0A5F800E06980068017
:1044D00007712988614503D0951C4E5300E0077190
:1044E000984208D1616801E01B8813441D790DB121
:1044F0008B42F9D1A3600830F0BDFFE7515A8E42DC
:10450000C8D80020F8E70000240000202DE9F0477B
:10451000C91C4FF6FC7211400C294FF4C86701D238
:104520000C2101E0B94214D8DFF8B080D8F800407F
:10453000A04210D3D8F8042090420CD2A0F1080277
:10454000131B9BB21588EE1A083E1FFA86FC6145C4
:1045500003D94FF00000BDE8F087FCD005EB04065E
:104560001E4DC1464FF0000A96F804802D68B8F140
:10457000000F05F1020518D001F114066645EAD8CE
:104580001944D9F8088008318EB2A119414501D2E9
:10459000C9F8081081F804A014880C804B8016809C
:1045A0000988B942D7D04E53D5E71944D9F80880C5
:1045B0000831B6F800C089B2B04503D104EB010858
:1045C000C9F808800C4484F804A0A4F800C06380F3
:1045D00011802288BA42BED05153BCE7240000208B
:1045E000092806D2002904D0024A52F82000FEF71A
:1045F00035BC70475478000830B5064D5FF00004B4
:1046000055F8240000F008F8641CA4B2092CF7D374
:1046100030BD0000547800088268002111600A460D
:104620004168C91C21F0030107E08368521C1B6824
:104630000B60836819600388194443889342F4DC53
:1046400070470000092801D300207047024951F843
:104650002000FEF709BC0000547800082DE9F04165
:104660000446124D00204FF0030C069FDDE907863B
:104670006060A060E06084F82F00206284F824C0AD
:10468000E761287884F83200471C2F7020462661A5
:1046900000F01CF841462046884710B10020BDE8D4
:1046A000F0816868206020466C60F8E71000002008
:1046B0007047C90709D04168002906D090F82F102B
:1046C000090702D5011DFEF73BBF70472DE9F041F8
:1046D0000C001E46054617460FD0206868B11146EB
:1046E000284600F04FF83146284600F026F82146CB
:1046F0002846BDE8F04100F025B8284600F022F831
:104700003946284600F03EF831462846BDE8F041DB
:1047100000F013B8014988607047000010000020C5
:1047200090F82F10CA0707D021F0010180F82F1050
:104730000A0701D5FEF7B2BC704701B10968C16034
:104740007047000038B50C00054601D0206801E034
:104750000B4800680090696888420ED0281D6946A1
:1047600001F010F9281D694602F070FF34B120688D
:10477000012168602846FFF79CFF38BD0020F7E75D
:10478000E077000801B109688160704790F82F1048
:10479000CA0708D141F0010180F82F104A0702D55D
:1047A0000321FFF786BF70472DE9F05F0528174604
:1047B0000E4639D2DFE800F0030507090900362567
:1047C00004E0222502E00E2500E000254FF001095B
:1047D0004FF00008F7B3012F62D0022F60D0032FF3
:1047E00071D10820FFF72EFFDFF8E0A0040019D0F8
:1047F0006019277313302681ED1C414620F0030217
:1048000025F00303C3F51470B042C4E9008200D957
:104810003046A4F80E90361A25464FF4147B88468D
:1048200060811CE08AF800904DE00820FFF70AFF45
:10483000C0B10773B1B280F80D805B46C0F800804C
:1048400099422860018100D20B4600F110024260BB
:10485000438100E00CE0F61A0546A0F80E90002E09
:10486000E3DC29E08AF80090204600F000F92AE015
:10487000F11C05F1130020F0030021F003010844AE
:1048800080B2FFF7EFFD04001DD0601926811330C0
:10489000668120F00300C4E9008084F80C800BE0FE
:1048A0000720FFF7CFFE04000DD027732681C4F840
:1048B00004806681C4F800802046A4F80E9084F835
:1048C0000D80BDE8F09F0020FBE70000890000207C
:1048D00070B50528DDE9044511D2DFE800F00305D5
:1048E00007090900362004E0222002E00E2000E043
:1048F0000020C01C20F003004618AE4201D9002061
:1049000070BD00251D6014B12044586000E05D605A
:1049100002201981598101211A7358731846D981CF
:1049200070BD002810B50FD000290DD004E00B8910
:1049300004892344038110460268002AF7D10289C2
:104940000B891A440281016010BD10B50C46FFF7B7
:10495000E8FF2046BDE8104000F039B9002102E030
:104960000068491C89B20028FAD1084670472DE931
:10497000F0474FF000070C4605003E466FF00F0968
:1049800032D07CB32889218988422DD36FF0050A63
:1049900069896089C91B801B814201DB80B200E00C
:1049A00088B2616880466868314442463844FBF703
:1049B00053FC618906EB080296B207EB080087B248
:1049C000B14201D8246800266889B84202D12D6816
:1049D000002745B15CB160892189884207D12068F0
:1049E00060B904E000E06CB14846BDE8F0873DB135
:1049F00068892989884203D1286808B15046F4E7BC
:104A0000002CC5D10020F0E72DE9F0471646894675
:104A10004FF0000828B1B9F1000F02D0002704467A
:104A200020E00020BDE8F0872BB16089984202D8D1
:104A3000181A83B215E06089C01A85B2B54200D950
:104A40003546616809EB07002A461944FBF704FC68
:104A500079190023721B08EB05001FFA80F88FB24A
:104A600096B224680EB1002CDED14046DAE770B56C
:104A700000281CD00024C189491E0904090CC181E9
:104A800014D1427B017B0568920702D501698847F2
:104A900007E003290CD001290DD002290BD0FFF724
:104AA000B1FC04F101042800E4B2E4D1204670BD59
:104AB0000146082001E001460720FFF791FDF0E7DD
:104AC000084870B5002505700748046806E0206FA7
:104AD00018B102F086F8256770BDE468002CF6D1A5
:104AE00070BD00008900002080000020002200F03E
:104AF00003B80122AFF3008030B541B138B10029CD
:104B000007DA43894C42A5B2AB4225D302E000202C
:104B100030BD8DB2047B436834B1032C04D0022C29
:104B20000AD0012C08D017E05A1A426000F1100494
:104B3000A24208D243600FE000290BDA4289AA4260
:104B40000AD35A1A4260428903890A4442811944AD
:104B50000181DCE7002AF4D1012030BD38B51446CC
:104B60006A4600F03AF8002806D04289BDF80010E5
:104B70008A4201D94068445438BD70B502898A42DE
:104B800024D98A1A0D46044605E021892B1A9DB2C4
:104B90008818208124686089A842F6D3207B68B9F0
:104BA0006089A8420AD0607B800707D4A088001BD8
:104BB000284481B22046FFF7A9FC0446206865819D
:104BC000258108B1FFF753FF0020206070BD002849
:104BD00002D0C189491CC1817047AFF3008002E057
:104BE0000068C91A89B210B143898B42F8D9002AEA
:104BF00000D0118070472DE9F0416FF00F03884617
:104C000014464FF0000740B1B8F1000F05D00189FC
:104C1000A14204D21811BDE8F0811846FBE7054611
:104C20000FE068892646B04200D20646686808EB65
:104C300007013246FBF710FBA01B2D68B91984B29F
:104C40008FB2002CEDD10020E5E7F8B514460F46F1
:104C50006A461946FFF7C1FF05001CD0BDF80000E9
:104C600029890219914216D36989091AA14200DBE8
:104C700021468EB26968324608443946FBF7ECFAA1
:104C8000A01BB9190204120C03D02868FFF7B3FF68
:104C9000F8BD0020F8BD4FF0FF30F8BD134970B5E6
:104CA00002880B689C1C1A4490420DD015795DB99E
:104CB0004D68AA4208D08D68954200D18860C51A17
:104CC000168806801288155342881A4482420BD0F7
:104CD0001579002D08D18D68854200D18A60D11ADE
:104CE000058815800088015370BD00002400002055
:104CF0002DE9F041124C206800281FD000F024F864
:104D00006168104F451A387808B1FFF7D9FE21685D
:104D1000002913D04868A84210D862682D1A1044A0
:104D2000606008682060D1E9026080460620FFF7D5
:104D300057FC002EE7D04046B047E4E7BDE8F081DD
:104D4000B800002089000020FCF750B92DE9F0419F
:104D500016460F4605460620FFF774FC040012D0E5
:104D6000FFF7F2FF1C4A116800290ED05368A0EB30
:104D7000030000BF28444FF00003C4E90030C4E939
:104D8000027606D11460BDE8F08150604FF000005B
:104D9000F0E74868A84203D9401B48602160F1E76A
:104DA000084610E056689E420CD95168C91A5160F5
:104DB00004E0AB4202D9496829446160016821607E
:104DC0000460E0E7104662684368D31A63600268D3
:104DD000002AEED0E6E70000B800002070B5094DCB
:104DE0005FF00104084905EBC40255F83400FFF7F1
:104DF000ADFF641C062CF5D3FFF7A6FF03494860FE
:104E000070BD0000D8780008111D0008B80000200F
:104E10002DE9FC5F0446007D0A283ED0DFF8C480FF
:104E20004FF00005D4F84CB02F46D4F824A0D4F8A5
:104E30001090D4F88C6078B3E78A08F118000D461A
:104E4000214601F041F8012188F80010E06E08B118
:104E500001F0C7FEA06E08B101F0C3FE206F08B1DB
:104E600001F0BFFE45B1208B231D22465146CDE9FE
:104E70000070584601F053FE01202146FFF7B0FBB9
:104E8000002E2CD002B04846B4466FF00C01BDE8AD
:104E9000F04F5DF804EB60470AE0124821461C30F1
:104EA00001F012F82146BDE8FC5F0120FFF798BB36
:104EB000E08A0028CAD0D8F81000A0420AD1C06801
:104EC000C8F8100008E0C168A14202D1E168C160E1
:104ED00002E008460028F6D10020E060B6E7BDE811
:104EE000FC9F0000680000200121FFF791BF00280F
:104EF00003D0027D012A00D181617047084610B5B8
:104F0000FFF7F2FF6FF00C0010BD00002DE9F0413B
:104F100005460120FFF796FBDFF8F480040048D136
:104F200000224646D8F80C401146D8F81C0006E08E
:104F3000036AE31A934201D31A460146C068002867
:104F4000F6D111B10846FFF7CFFF0120FFF77AFB3A
:104F500004002ED1092000F03FFC0120FFF772FB76
:104F6000040026D1082000F037FC0120FFF76AFB7F
:104F700004001ED17F2D294600D97F21F768002328
:104F8000B0691A460AE0467D8E4206D8046A3C1B88
:104F90009C4202D3234602463146C0680028F2D123
:104FA00012B11046FFF7A0FF0120FFF74BFB0400F2
:104FB0002AD09821FBF769F94FF486626575A4F849
:104FC0006020FF235100618521850620A3728E1089
:104FD0006686C71FA4F840004FF0010CE0872786C3
:104FE000A4F848C000F036FD6065E0646064A06528
:104FF000D8F80C20226298F802006077054906482C
:10500000C4F89010C4F880002046BDE8F08100008C
:105010006800002000DD6D00DF690008002800D076
:10502000016170472DE9F0410C0005464FF0040383
:1050300000D11E4C002D6FF0050010D0002C0ED0BA
:10504000297D00290BD12AB1194F00BF57F8210043
:10505000006818E000F0D0FC02001AD1801EBDE804
:10506000F081C68A96420DD148B106683EB134B18E
:10507000D4F800C0BCF1000F01D0664502D16FF03A
:105080000700ECE7C0680028EBD1491C9942DDDB42
:1050900014B1206800B128600648EA820169E9601D
:1050A000056101F04BFF0020D9E70000E077000820
:1050B000BC78000868000020017D012903D0817EB2
:1050C00041F0100181760121AFF300802DE9FC470A
:1050D000544D0446007D4FF001094FF0000791B395
:1050E000042801D007283ED1616F19B9218DB1F58F
:1050F000066F38D0218B231DE08A2246CDE90001BE
:10510000616AE06C01F00BFD204600F0BCFEA8696E
:10511000A04209D1C068A86108E0C168A14202D1DB
:10512000E168C16002E008460028F6D1E76085F832
:105130000090207D042807D03B480068A0420BD196
:1051400001F05AFF0CE00EE00A202075E869E060EB
:10515000EC6101F0F3FE03E001202146FFF740FA85
:105160000020BDE8FC8708284FF0050852D2DFE890
:1051700000F0041A363F3F515147E08A002678B1CB
:105180002869A04209D1C068286108E0C168A1422D
:1051900002D1E168C16002E008460028F6D1E7606C
:1051A0000120214618E0214B00260121224653F818
:1051B0002100006804E0856F954200D18767C068D0
:1051C0000028F8D1491C0429F0D3164811461430A0
:1051D00000F07AFE02202146FFF702FA1FE0114894
:1051E00000262146183000F06FFE85F80090D7E7C2
:1051F000204601F038FD060009D184F8148006E04D
:10520000204601F030FD060001D10920207534B19F
:1052100016B104E0002602E0204600F061FC3046B2
:105220009FE7000068000020B4000020BC78000860
:105230002DE9F05F9B4692460D460746DDF8288033
:105240005FEAC87001D0042600E000260320FFF7C3
:10525000F9F9040013D04FF0000984F80A80C4E97A
:10526000009528891421801B20812846FFF73EFCE9
:1052700048B1204601F0A7FC0020BDE8F09F284679
:10528000FFF7F5FBF8E760684068E060F88AFFF731
:1052900093F8E1680880388BFFF78EF8E168488062
:1052A0005846FFF787F8E1684860B008000300F54A
:1052B000A04040EA0A00FFF77FF8E2689081E068CA
:1052C000A0F812902046D8E710B504460846FEF72D
:1052D000E7FD40B1B0F9260028B1283880B28442F9
:1052E00000D220460446204610BDF8B50446B0F86A
:1052F00062000D464FF0FF3609284FF0000701D33A
:10530000E80718D0A80700D50127F80701D0042125
:1053100000E0002100221046FFF746FA01000AD003
:1053200000972A46A36D2046FFF782FF010002D0B6
:10533000A06E30B108E0A07E40F08000A07630463C
:10534000F8BDA16604E010460268002AFBD10160A6
:105350000020AA07A4F8640002D0A06D401CA0653C
:10536000E80703D0A07E40F02000A0764868FFF751
:10537000F5FAB4F862100844A4F862000020F8BD01
:10538000002801D0C0F88C107047000070B5144D93
:10539000A878401CA870AC691FE0617FA8788142A2
:1053A0001AD06077A07EC10709D040F00200A07635
:1053B000204600F095FBA07E20F00300A076E66872
:1053C000606F38B100202870204600F063FF287815
:1053D0000028E0D1344600E0E468002CDDD170BD47
:1053E000680000200A4910B508460B69C088421CB5
:1053F00092B213B18C88A04204D2CB681433185CEB
:10540000CA8010BD001BCA80C0B2185C10BD00006D
:1054100094000020704700002DE9FC5FD34E054644
:105420004068F060688914287AD3D14F3968786968
:10543000FEF762FA002873D1387DC0F303100E28FE
:105440006ED0F0688089FEF7B7FF000B800014284B
:10545000EAD329898142E7D3A0F114014FF0000A71
:105460008AB27280C6F810A06989814205D3414290
:105470002846B280FFF73AFB1BE06FF01301284685
:10548000FFF734FB6889B0807288414209B2101A74
:1054900084B22846FFF72AFB28684189A142C3D37A
:1054A00041683161614209B2FFF720FB2889001B86
:1054B0002881F0680088FEF77FFF0146F0680180D0
:1054C0004088FEF779FF0146F06841804068FEF7AA
:1054D00071FF0146F068416071618068FEF76AFF04
:1054E0000146F0688160B161C089FEF765FF014641
:1054F000F068C1818089FEF75FFF00F03F013170E5
:1055000028898A0700D00122DFF868921044708150
:10551000F0680022D7E904BED9F800301C4645E007
:105520001FE100BFB4F818C0B0F80080C4453BD1FB
:10553000B4F816C0B0F80280C44535D1D4F8048060
:10554000D84531D1D4F80080F0452DD132B1D4F80E
:105550000C80C2F80C80E360C9F8004044B3DFF867
:1055600018920A075746C9F800A02A89A9F8082006
:10557000C9F80450C9F80C00C6F81CA086F801A0B0
:10558000A6F808A003D5687B40F001006873606F3F
:10559000F0B3204600F07EFE0D3063D0606FB8B3EC
:1055A000708900285ED144E02246E468002CB9D11D
:1055B0007249D7E90424096812E00B8B0788BB42C3
:1055C0000DD1CB8A4788BB4209D14B68934206D1A3
:1055D0000B68A34203D1084601F0CAFCC1E0C968C8
:1055E0000029EAD1664B002219680F4613E000BF7C
:1055F000B1F816C0B0F80280C44508D1D1F800C097
:10560000A4450BD0002908D0BCF1000F08D000E061
:105610000FE00A46C9680029EAD18FE000297DD051
:105620001AB1C868D060CF601960084600F0F2F87F
:1056300097E02046346200F073FC0D3072D0707831
:10564000354600070FD5D4F88C201AB120696FF0C9
:105650000D011FE04748214600F036FC012021469D
:10566000FEF7BEFF5EE02A893AB1E36F23B12069FD
:10567000214698470D3055D02F816878C0060BD54C
:10568000A07EC006E6D4D4F88C20002AE2D06FF0C9
:105690000E0120699047DDE7E86908B3A17EC906DD
:1056A00005D5FFF7E4F92046FFF71EFC3AE0D4F8F1
:1056B00080C0BCF1000F07D0D4F810800023024650
:1056C00021464046E04705E00023024621461846B1
:1056D00001F085F910F10D0F24D008B1E869606779
:1056E0006878800618D5606F20B1417B41F02001B9
:1056F000417311E0208DB0F5066F01D0401C20856C
:10570000D4F880C0BCF1000F06D0002320691A46EF
:105710002146E0470D3005D0204600E00EE02F6224
:1057200000F0DEF937624C46F761D9F80400002832
:1057300002D0FFF79CF96760BDE8FC9F8089FEF707
:105740003BFE40070DD4F068094B103301881A1D49
:105750004088CDE90001718970690144B06901F0A8
:10576000DEF92846BDE8FC5FFFF781B99400002010
:105770004C68002080000020646800208400002025
:105780007C0000203EB50446C06C401EFEF712FEB1
:10579000002203461146204600F086FA050014D088
:1057A000201DFEF77DFB98B1062100220092CDE975
:1057B0000110A37A221D21462846FEF741FA04462D
:1057C0002846FFF754F920463EBD4FF0FF303EBD5E
:1057D0006FF00304F4E700000D4B002130B40446E1
:1057E0000846DD689A6909E0137DA34205D1136A72
:1057F000EB1A8B4201D319461046D268002AF3D126
:10580000002803D030BC0021FFF702BB30BC70473A
:10581000680000207CB5364E0546307841070ED42E
:10582000C1060DD5F068334B1A1D01884088CDE9BB
:105830000001718970690144B06901F070F97CBDA3
:105840008007FCD5687DFFF761FB04003DD0294847
:105850000322294910384369236000696060E88A9F
:10586000E082F0680088208322757069421E401C27
:1058700060622265E0622869A5672061287A00F0ED
:105880000C0020720868E0600C6001F057FB1B49B7
:1058900001200870204600F095FAF068211DC089AB
:1058A000A4F85C00A4F85E00A4F84A00608EFFF73C
:1058B0000BFD122160862046FFF717FD90B12046B0
:1058C000BDE87C400021FFF7A3BA002DB7D0AB693B
:1058D000002BB4D0286902B000214FF0FF32BDE8A0
:1058E000704018472046BDE87C4000F0F9B8000041
:1058F000940000205C6800208000002068000020E8
:1059000070B50446007D08B1002070BD0220FEF78E
:1059100099FE051EF9D0216901202961E18AE982F9
:105920002875607D6875207A2872A07AA872607ADE
:10593000687220682860E08A88B110490869A0422E
:1059400009D1C068086108E0C168A14202D1E168DC
:10595000C16002E008460028F6D10020E060012086
:105960002146FEF73DFE0648A86104481430016850
:10597000E960056001F0E2FA284670BD6800002089
:10598000FD4E000870B504000D461ED020680028AA
:105990001BD00E4E2046B16900F01AF8316920463E
:1059A00000F016F8002D10D0286800280DD006F160
:1059B0001400026807E011682368D068994201D199
:1059C000296811600246002AF5D170BD68000020E8
:1059D00070B50546084609E001682A68914204D17D
:1059E000C468FFF781FA204600E0C0680028F3D1C0
:1059F00070BD4020FFF78ABAF0B5144D0023144A59
:105A00004FF440474FF4804E4FF6FF769088411C8C
:105A10009180B04200D197800020948855F82010E2
:105A200009680AE0B1F816C0A44505D15B1C9BB219
:105A30007345EBD30020F0BDC9680029F2D1401CAA
:105A4000C0B20428EAD3A0B2F0BD0000BC780008C0
:105A5000680000200249D1E90202104488607047C2
:105A6000680000202DE9F0410546C0680C46808999
:105A7000FEF7A2FC194EC00715D0204601F0B1F880
:105A8000002427E08089FEF797FCC00707D001209B
:105A9000FEF792FC0146E868828911438181204625
:105AA000246801F090F8ACB1E0682B892289716913
:105AB000476819443A44891AE4D571699AB2406832
:105AC0000A44121A002A05DD401A81B22981686849
:105AD000FFF753F82C60BDE8F0810000940000202F
