:020000040800F2
:1000000088AC002011020008F31E0008411C000803
:10001000F11E0008890300087F2600080000000088
:10002000000000000000000000000000F71E0008B3
:100030008B03000800000000F51E0008F91E0008F0
:100040002B0200082B0200082B0200082B020008DC
:100050002B0200082B0200082B0200082B020008CC
:100060002B0200082B0200082B0200082B020008BC
:100070002B0200082B0200082B0200082B020008AC
:100080002B0200082B0200082B0200082B0200089C
:100090002B0200082B0200082B0200082B0200088C
:1000A0002B0200082B0200082B0200082B0200087C
:1000B0002B0200082B0200082B0200082B0200086C
:1000C0002B0200082B0200082B0200082B0200085C
:1000D0002B0200082B0200082B0200082B0200084C
:1000E0002B0200082B0200082B0200082B0200083C
:1000F0002B0200082B0200082B0200082B0200082C
:100100002B0200082B0200082B0200082B0200081B
:100110002B0200082B0200082B0200082B0200080B
:100120002B0200082B0200082B0200082B020008FB
:100130002B0200082B0200082B0200082B020008EB
:100140002B0200082B0200082B0200082B020008DB
:100150002B0200082B0200082B0200082B020008CB
:100160002B0200082B0200082B0200082B020008BB
:100170002B0200082B0200082B02000800000000E0
:100180002B0200082B0200082B0200082B0200089B
:100190002B0200082B0200082B0200082B0200088B
:1001A0002B0200082B0200082B0200082B0200087B
:1001B0002B0200082B0200082B0200082B0200086B
:1001C0002B0200082B020008000000002B02000890
:1001D0002B0200082B0200082B0200082B0200084B
:1001E0002B0200082B0200082B0200082B0200083B
:1001F0002B0200082B020008DFF810D000F0B2F844
:1002000000480047794B0008AFF3008088AC00201D
:100210000648804706480047FEE7FEE7FEE7FEE7A0
:10022000FEE7FEE7FEE7FEE7FEE7FEE7A51F0008A4
:10023000F90100082DE9F05F0546002092469B4633
:1002400088460646814640241BE0284641464746EC
:10025000224600F076F853465A46C01A914110D310
:1002600011461846224600F05DF82D1A67EB01088A
:100270004F4622460120002100F054F817EB0009F8
:100280004E41201EA4F10104DFDC484631462A46D7
:100290004346BDE8F09F40EA01039B0703D009E015
:1002A00008C9121F08C0042AFAD203E011F8013B62
:1002B00000F8013B521EF9D27047D2B201E000F8BB
:1002C000012B491EFBD270470022F6E710B51346FA
:1002D0000A4604461946FFF7F0FF204610BD30B528
:1002E00004460020034600E05B1C934203D2E05C1E
:1002F000CD5C401BF8D030BD30B50B460146002028
:100300002022012409E021FA02F59D4205D303FAD7
:1003100002F5491B04FA02F52844151EA2F1010258
:10032000F1DC30BD202A04DB203A00FA02F1002083
:1003300070479140C2F1200320FA03F31943904023
:100340007047202A04DB203A21FA02F0002170478E
:1003500021FA02F3D040C2F120029140084319462D
:1003600070470000064C074D06E0E06840F00103CE
:1003700094E8070098471034AC42F6D3FFF740FFEB
:10038000E89C0008089D0008FEE7704738B5044661
:10039000006800F58050816941F480118161206816
:1003A00000F5805080690090012000F09FF82068DF
:1003B000009900F58050816138BD00002DE9F041C1
:1003C000044621B14FF40061C800C4E90201E069AC
:1003D0000025002862D028462368D4E9021C3D4F3E
:1003E00040261A6841EA0C0101433A4041F400708A
:1003F0001043186020680768012000F077F8206833
:1004000007602068466020684668012000F06EF8AA
:1004100020684FF641724660206885602068C5609C
:1004200021688869104040F08000886120688669F2
:10043000012000F05BF8206886612068C5612068B3
:10044000C569012000F052F82068234B2349C5619B
:10045000206800F5805082691A401143816120684C
:1004600000F580508569012000F040F820681C49A3
:1004700000F580508561206800F58050016020689B
:1004800000F580500568012000F030F8206800F584
:1004900080500560A069012803D009E04FF4806016
:1004A0009AE720680F4A00F58050C1691143C16185
:1004B00060690D4982880A648278C4784578037837
:1004C000120443EA046042EA052210434864BDE88E
:1004D000F08100000F8120FF233FDEF8040020029E
:1004E0008020C102400001000080024070B5044637
:1004F00000F074FC0546601C02D0044800780444F7
:1005000000F06CFC401BA042FAD370BD1800002024
:100510002DE9F04390F845400025012C0DD04FF017
:10052000010980F84590022644F2F45780F84460AF
:100530005E1E4FF0004C816217E00220BDE8F083A0
:10054000C5EBC51801EB451408EB480802EB880819
:10055000C4F800C0B542C4E9017804D204F120080F
:10056000C4F80C8000E0E1606D1C9D42E8D3036894
:10057000002403F58053D96080F8449080F845400A
:100580002046DBE72DE9F04390F8454091460022F4
:10059000012C09D0C1620126022480F845605D1E4D
:1005A00080F84440E70422E00220BDE8F08300BF69
:1005B000C2EBC21404EB440801EB421409EB880CB3
:1005C0002760C4F808C0D0F81CC0BCF1000F05D1EA
:1005D000D4F800C04CF4400CC4F800C0AA4204D2C5
:1005E00004F1200CC4F80CC000E0E160521C9A42F7
:1005F000DED30268002302F58052116180F8446066
:1006000080F845301846D0E710B590F8451001291C
:1006100013D0012280F84520022180F844100023E5
:10062000816A0C68002C28DB0C68E40519D5846B02
:10063000641C8463012C02D002E0022010BD01631F
:1006400041630C68C4F30D44241FC463046BA468A5
:100650000464C968816280F8442080F84530002035
:1006600010BD0C68A40503D58263C0E90C1302E039
:10067000846B641C8463C968816280F8442080F8BC
:100680004530012010BD00002DE9FC474FF0000669
:100690000400B146009603D094F8440018B107E076
:1006A0000120BDE8FC87204684F8456000F0E4F8AE
:1006B0006748016841F480410160006800F48040AF
:1006C00001906448016821F4000101600168226A18
:1006D00011430160206800F58050016841F001017C
:1006E000016000F07BFB4FF4FA77054609E000BF9C
:1006F00000F074FB401BB84203D9032084F8440087
:1007000068E0206800F580500068C007F0D12068DC
:10071000006920F01C0501F027F84F4A4F490244B8
:100720008A4202D245F0080516E04D494D4A01447F
:10073000914202D245F00C050EE04B4A4B4902446F
:100740008A4209D34A4A4B491044884202D245F0B2
:10075000040501E045F010052068056100214FF413
:100760000042204600F00AFA4FF00105B0BBFF201E
:10077000FFF7BCFE606890B300F030FB804641F2AA
:10078000883701216A46204600F0EAF800F026FB8F
:10079000A0EB0800B84217D800984007F1D5002117
:1007A00020464FF4805200F0E9F9B8B900F016FB8A
:1007B00080466A460121204600F0D2F800F00EFB88
:1007C000A0EB0800B8420BD901212046FFF7F6FD47
:1007D00084F84450032084F8456062E724E018E080
:1007E00000988006E5D51F216A46204600F0B8F83B
:1007F000D0B90098C10603D54FF40061E16000E074
:10080000E660400701D5A66019E04FF48040A06083
:1008100015E0D4E90210C00840EA510082B2204637
:10082000002100F0ABF930B101212046FFF7C6FDF1
:1008300084F8445034E740F6FF70FFF757FE49460E
:100840002046FFF7BBFD84F84450002029E7000054
:10085000443802400438014000D3CEFEC0E1E40039
:1008600040F1E9FD40787D0100796CFC005A62029C
:10087000001F0AFA80F0FA02F0B587B0044614218E
:100880006846FFF721FD3049206888425AD12F4839
:10089000016841F000710160016801F0007105918B
:1008A000016841F080610160016801F0806105919B
:1008B000016841F000610160016801F0006105918B
:1008C000016841F004010160016801F00401059133
:1008D000016841F001010160016801F00101059129
:1008E000016841F002010160016801F00201059117
:1008F000016841F04001016000680224002569465A
:1009000000F04000059003260B2732208DE8F1000F
:100910000F4800F071F9862069468DE8F1000D4816
:1009200000F06AF942F2010069468DE8F1000A48D8
:1009300000F062F94FF4205069468DE8F100074855
:1009400000F05AF907B0F0BD008002403038024094
:10095000000802400000024000040240001802406B
:100960002DE9F047044690F84400914682281DD0B6
:1009700082224FF6FF7084F844204FF4F863226817
:1009800003EA8111258A136900EAC52003F01C03DC
:100990001843014321F0020040F00105156100F009
:1009A0001DFA012706464FF4803811E00220BDE809
:1009B000F08700BF00F012FA801B404506D30020EC
:1009C00084F8447084F845000320F0E72068056946
:1009D000E807EFD12068406981B2C9F8001084F8B7
:1009E00044700020E3E7F8B5044690F8450001287C
:1009F00039D0012584F84550022084F8440020684D
:100A00000026016841F0080101602068006800903C
:100A10002846FFF76BFD2168009808602068016890
:100A200041F0040101602068006800900120FFF798
:100A30005DFD2168009808602046FFF7A7FC20684C
:100A400000F58050816941F400518161206800F512
:100A50008050816941F00201816184F84450002096
:100A600084F84560F8BD0220F8BDF0B590F8452047
:100A70000023012A13D0012680F84560022280F865
:100A800044204FF0000561B1C76A3A68002A0BDACA
:100A9000122180F8441080F845500120F0BD02205A
:100AA000F0BD80F84460F6E740F2F454A1420BD95F
:100AB000B1FBF4F204FB121CB1FBF4F2BCF1000F29
:100AC00000D0521C012A45D13A68C1F30C0142F012
:100AD00040523A60C26A5160C16A0A6842F00042FC
:100AE0000A60C16AC968C16236E0D7F800C02CF05C
:100AF000405CC7F800C033B9C76AD7F800C04CF0F3
:100B0000805CC7F800C0D0F82CC0571EBB42CCF8A0
:100B1000044014D1C76AC2F1010ED7F800C0CEEB71
:100B2000CE1E4CF0005CC7F800C00EEB4E0ED0F8A5
:100B30002CC001EB8E07C7F30C07CCF80470C76A12
:100B4000D7F800C04CF0004CC7F800C0C76A5B1C67
:100B5000FF68C7629342C8D3016801F580514A69B2
:100B6000520705D504224A61016801F580514D60A4
:100B700080F8446080F845500020F0BD2DE9F04138
:100B8000044690F8440042281ED042204FF6FF73DE
:100B900084F8440096B220684FF4F867258A07EA83
:100BA00081110269466103EAC520236802F01C0234
:100BB0001043014341F003051D6100F00FF90127C7
:100BC00006464FF4803811E00220BDE8F08100BFF6
:100BD00000F004F9801B404506D3002084F84470DF
:100BE00084F845000320F0E720680569E807EFD1A5
:100BF00084F84470E9E700002DE9F84FDFF89CE144
:100C000000224FF001084FF0030B4FF00F0A00BF16
:100C10000B6808FA02F42340A34271D14D68022DFB
:100C200001D0122D0FD1D5080E69570700EB8505AD
:100C3000A9462D6AFF0E0AFA07FCBE4025EA0C05FC
:100C40002E43C9F820600F79550006680BFA05FCA1
:100C500007F0030726EA0C06AF40374307604E68EB
:100C6000012E05D0022E03D0112E01D0122E0ED14E
:100C70008668CF6826EA0C06AF403743876046682F
:100C80000F79A643C7F30017974037434760C468FE
:100C90008E6824EA0C04AE402643C6604C68E4002B
:100CA00075D53F4C256845F480452560246822F0C1
:100CB0000306950704F4804400943A4C2D0F264413
:100CC000D6F80848DFF8E0C00AFA05F7604524EADC
:100CD000070401D100272EE0344FB84201D101278B
:100CE00029E0334FB84201D1022724E0314FB84206
:100CF00001D103271FE0304FB84202D104271AE088
:100D000045E02E4FB84201D1052714E02C4FB842E0
:100D100001D106270FE02B4FB84201D107270AE087
:100D2000294FB84201D1082705E0284FB84201D128
:100D3000092700E00A27AF4027437546C6F8087820
:100D40004E68DEF80040F60324EA030400D51C4395
:100D5000124E2C60361D4D683468AD0324EA03043E
:100D600000D51C430D4F346008374D683C68ED02D8
:100D700024EA030400D51C43084D3C600C354E6842
:100D80002C68B60224EA030400D51C432C60521CD4
:100D9000102AFFF43DAFBDE8F88F0000003C014091
:100DA000443802400030014000000240000402408C
:100DB00000080240000C02400010024000140240F3
:100DC00000180240001C02400020024000240240A3
:100DD0000AB1816170470904FBE70000014880689F
:100DE0007047000018000020024881680278114412
:100DF0008160704718000020032010B500F060F8F3
:100E0000002000F005F800F023F8002010BD0000DD
:100E100070B50D4D04464FF47A700C4A297812686B
:100E2000B0FBF1F0B2FBF0F000F092FE48B9102CEC
:100E300007D200222146501E00F022F800206C60EC
:100E400070BD012070BD00001800002024000020AB
:100E50000A4808B5016841F080510160006800F05F
:100E6000805000900548001D016841F480410160F8
:100E7000006800F48040009008BD00004038024047
:100E80000E4BF0B41B680D46C3F30223C3F10706F3
:100E9000042E00D90426191D072901D2002300E0E1
:100EA000DB1E012404FA06F19C40491E2940641E01
:100EB000994014402143F0BC01F0F2BB0CED00E07E
:100EC000064900F0070210B54FF6FF040868044B0E
:100ED000204040EA02201843086010BD0CED00E0FD
:100EE0000000FA0501680123C0F8FC33002280F8F5
:100EF000F4238869044A40F000608861486D10431B
:100F00004865002070470000030000102DE9F04103
:100F100004008AB004D094F8BD03002520B108E095
:100F200001200AB0BDE8F081204684F8BC5300F0EF
:100F300063F8032084F8BD03206801F061FB04F12D
:100F40001001684628228846FFF7A5F994E80F00AB
:100F500001F02EFA0227E0BB2068002101F078FBA7
:100F60000020012611E000BFC0EBC001421C04EBD1
:100F7000810181F83D6081F83F504D648D640D65BD
:100F800081F83C00A1F84200D0B261688142EBD800
:100F9000002011E0C0EBC001421C04EB810181F88C
:100FA000FD5181F8FF51C1F80452C1F80852C1F84F
:100FB000105281F8FC01D0B261688142EAD828223F
:100FC00041466846FFF767F994E80F0001F04EFAD2
:100FD00010B184F8BD73A3E7606A84F8385084F8D0
:100FE000BD63012802D12046FFF77CFF206801F095
:100FF00031FA002095E7000030B587B0044614218F
:101000006846FFF761F92068B0F1A04F33D11B4863
:10101000016841F001010160006800240221184DBF
:1010200000F0010005904FF4E8500A238DE813000A
:1010300003226946CDE903232846FFF7DDFD681545
:101040006946CDE9000428460294FFF7D5FD0B4818
:10105000001D016841F080010160006800F080001F
:10106000059006481430016841F480410160006831
:1010700000F48040059007B030BD000030380240D9
:10108000000002401848F8B5016841F08051016045
:101090000068164C00F080500090206840F48030CA
:1010A0002060FFF79BFE4FF47A76054605E000BF0F
:1010B000FFF794FE401BB0420FD86068C003F7D51D
:1010C000206840F400302060FFF788FE054606E007
:1010D000FFF784FE401BB04201D90320F8BD6068D1
:1010E0008003F5D50020F8BD403802400070004074
:1010F0000248016841F4807101607047007000404F
:101100002DE9F84F04460078DFF824944FF00006EC
:101110003746C0070ED0D9F8001021F40001C9F8F5
:101120000010D9F80010626B1143C9F80010606B11
:1011300000B90126FE4D2068843500030ED5E16B11
:10114000286820F4401008432860E06BB0F5801F49
:1011500001D010B102E0012600E0012720684FF421
:10116000800BC0020CD5216C286820F44000084395
:101170002860206C584501D1012601E000B9012703
:101180002068C10100D50126800666D5E8483830C0
:10119000016841F0805101600068DFF898A300F019
:1011A00080500090DAF8001041F48071CAF8001005
:1011B000FFF714FE804605E0FFF710FEA0EB0800E5
:1011C00064287DD8DAF80000C005F5D5DFF8608323
:1011D00008F16808D8F8000010F440702AD0218E79
:1011E00001F44071814225D0D8F80010D8F80020D1
:1011F00021F4407142F48032C8F80020D8F8002071
:1012000022F48032C8F80020C8F80010D8F8000096
:10121000C0070FD0FFF7E2FD824607E0FFF7DEFDD3
:10122000A0EB0A0141F288308142CAD8D8F8000008
:101230008007F3D5206BC0F3012103297ED0D9F8B4
:10124000001021F4F811C9F80010228ED8F800100F
:10125000C2F30B021143C8F800102078C00607D56E
:10126000286820F0807028602868A16B08432860F7
:101270002188AF488830490405D5626E016821F4A1
:101280004031114301602188090405D5A26E01682F
:1012900021F44021114301602168C90305D5E26EA4
:1012A000016821F44011114301602168890305D5CB
:1012B000226F016821F4400111430160217800E0B0
:1012C00034E1490605D5626C016821F00301114340
:1012D00001602178090605D5A26C016821F00C0196
:1012E000114301602188C90505D5E26C016821F030
:1012F0003001114301602188890505D5226D0168FF
:1013000021F0C001114301602188490505D5626DB6
:10131000016821F44071114301602188090505D558
:10132000A26D016821F44061114301602188C90464
:1013300007D5E26D016821F4405100E05FE0114300
:1013400001602188890405D5226E016821F440419D
:10135000114301602168490205D5A26F016821F09F
:1013600080611143016021684FF0006A890209D54C
:10137000E26F016821F0006111430160E16F5145A6
:1013800000D1012721680A0700D50127490305D5A7
:10139000626F016821F04071114301602168090208
:1013A00006D5D4F88020016821F0805111430160F6
:1013B0002168490106D5D4F88420016821F0005144
:1013C000114301602068000106D5D4F88810286810
:1013D00020F00070084328602068C00006D5D4F8CB
:1013E0008C10286820F0806008432860DFF848915E
:1013F000012E0ED02068B0F1007F0AD08FE04F4A56
:10140000D9F80030104023F4F8120243C9F8002044
:101410001BE7D9F800004E4620F08060C9F80000B4
:10142000FFF7DCFC804605E0FFF7D8FCA0EB0800E6
:1014300064287BD830680001F6D421783C487C30A1
:10144000C90712D0616B81B9237A62680168D0F84C
:1014500000C09201C1F3014142EA0142CCF30361B1
:1014600042EA016141EA0371016021680A0303D580
:10147000E26BB2F5801F04D0C9021AD5216C594520
:1014800017D16368016894F80CC002689B01C1F32E
:10149000014143EA0141C2F3027241EA0C6141EAAF
:1014A000027101602968626A21F01F01521E114316
:1014B00029602168C90110D5238A62680168D0F8C3
:1014C00000C09201C1F3036142EA034242EA0162B1
:1014D000CCF3027142EA01710160216889010CD5E7
:1014E0006168228A237B94F808C0890141EA02419D
:1014F00041EA036141EA0C7101603168B04641F094
:1015000080613160FFF76AFC064604E0FFF766FC85
:10151000801B64280AD8D8F800000001F6D5E7B38C
:10152000D9F800004E4620F0805009E07BE0000032
:10153000083802400070004000380240FFFCFF0FF6
:10154000C9F80000FFF74AFC074604E0FFF746FC35
:10155000C01B642867D83068C0438000F6D5216876
:1015600035480A0301D5E26B1AB1C9021DD5216CB9
:10157000D9B963690168277E02689B01C1F3014103
:1015800043EA0143C2F3027143EA076242EA01718E
:10159000016029686FF0FF0300E04BE0A26A21F4CC
:1015A000F85103EB0222114329602168890212D508
:1015B000E16F51450FD1238C626901680768920180
:1015C000C1F3036142EA034242EA0162C7F30271D6
:1015D00042EA017101602178090716D56169026844
:1015E000D0F800C08B01277FC2F30362CCF3014126
:1015F00043EA014141EA026141EA0771016028685A
:10160000E16A20F4403008432860306840F08050A0
:101610003060FFF7E3FB044608E000BFFFF7DEFBA6
:10162000001B642802D90320BDE8F88F3068C0434E
:101630008000F3D40020F7E7883802402DE9F04716
:1016400005000F4663D0444E306800F00F00B842EA
:1016500009D2306820F00F0038433060306800F065
:101660000F00B84253D128683C4C810712D540077F
:1016700003D5206840F4E05020602878000703D5A7
:10168000206840F460402060A968206820F0F000E5
:10169000084320602878C0072AD030496868083994
:1016A000012810D00968022810D0890700292EDAF5
:1016B000216821F0030101432160FFF78FFB804681
:1016C00041F288390DE009688903EFE78901EDE708
:1016D000FFF784FBA0EB0801494502D90320BDE8D0
:1016E000F0876868216801F00C01B1EB800FEFD141
:1016F000306800F00F00B8420BD9306820F00F00BE
:1017000038433060306800F00F00B84201D001204B
:10171000E5E72878400705D5E968206820F4E0501F
:10172000084320602878000706D52869216821F43D
:10173000604141EAC000206000F03CF82168084A9E
:10174000C1F30311515CC840064908600020FFF74F
:101750005FFB0020C3E70000003C02400838024065
:10176000B09A00082400002001480068704700007B
:10177000240000200449054809680068044AC1F3B0
:101780008221515CC8407047083802402400002084
:10179000C09A00080449054809680068044AC1F372
:1017A0004231515CC8407047083802402400002094
:1017B000C09A0008154910B51548096811F00C02C7
:1017C00013D04110042A0FD0082A0ED10F4C241F29
:1017D0002268236802F03F025B0207D52068C0F34D
:1017E0008810A0FB010106E0084610BD2168C1F386
:1017F0008811A1FB00010023FEF71CFD2168C1F345
:101800000141491C4900B0FBF1F010BD083802400D
:101810000024F4002DE9F84F05004FF000076ED0CA
:101820002878DFF82093A9F1040AC007AAF104047C
:101830004CD0D9F800104846C1F38101012908D0E5
:101840000068C0F3810002280AD1DAF800004002E3
:1018500006D52068800339D568680028DFD035E0D8
:101860006868B0F5803F0BD010B1B0F5A02F11D053
:10187000206820F480302060206820F4802002E07E
:10188000206840F480302060686890B1FFF7A6FAC5
:1018900006460AE0206840F480202060F0E700BFA0
:1018A000FFF79CFA801B642872D820688003F7D564
:1018B0000CE0FFF793FA064605E000BFFFF78EFA4B
:1018C000801B6428F0D820688003F7D4287880072C
:1018D00042D5D9F80010484611F00C0F08D0006826
:1018E000C0F3810002280BD1DAF80000400207D4CF
:1018F0002068800718D5E868012800D114E01EE1AF
:10190000E8680028206817D040F001002060FFF749
:1019100065FA064605E000BFFFF760FA801B022863
:10192000C2D820688007F7D52869216821F0F8011E
:1019300041EAC00020600FE020F001002060FFF7C6
:101940004DFA064605E000BFFFF748FA801B022863
:101950001ED820688007F7D42878000729D5794851
:1019600069696C3000298046016812D041F001019C
:101970000160FFF733FA064605E000BFFFF72EFAD5
:10198000801B022804D8D8F800008007F6D510E0A4
:1019900089E021F001010160FFF720FA064604E02A
:1019A000FFF71CFA801B02287DD8D8F800008007BA
:1019B000F6D4287840076BD5DFF8888108F138081D
:1019C000D8F80000C0000BD4D8F8001041F08051C6
:1019D000C8F80010D8F80000012700F080500090EF
:1019E00059480168C90512D40168834641F48071E1
:1019F0000160FFF7F3F9064605E000BFFFF7EEF9D7
:101A0000801B64284FD8DBF80000C005F6D54D4E8A
:101A1000A868683601280AD008B1052811D03068B6
:101A200020F001003060306820F0040002E03068EF
:101A300040F001003060A868A0B1FFF7CFF98346FD
:101A40000CE0306840F004003060F0E7FFF7C6F9C2
:101A5000A0EB0B0141F28830814268D830688007E2
:101A6000F4D50EE0FFF7BAF9834607E0FFF7B6F9C1
:101A7000A0EB0B0141F28830814258D830688007D2
:101A8000F4D42FB1D8F8001021F08051C8F800101C
:101A9000A869E0B3D9F80010C1F3810102294ED042
:101AA0000228206800E042E020F08070206003D02F
:101AB000FFF794F905463DE0FFF790F9064604E08C
:101AC000FFF78CF9801B022831D820688001F7D4F9
:101AD000D5E90921DFF874C0D5E9070695F830305B
:101AE0004F0895F82C1030430CEB074545EA82125D
:101AF000104340EA016040EA0370CAF80000206821
:101B000040F080702060FFF769F9054605E014E0B9
:101B1000FFF764F9401B022809D820688001F7D537
:101B20000BE000BFFFF75AF9401B022802D903203F
:101B3000BDE8F88F20688001F4D40020F8E7012088
:101B4000F6E7000008380240007000400000FFFF88
:101B5000401EB0F1807F10B501D3012010BD4FF0C1
:101B6000E02460610F21601700F09AFD0020A06161
:101B70000721216110BD10B5040002D0606F10B1C3
:101B800007E0012010BD002084F87000204600F01E
:101B900025F8242060672068016821F001010160B8
:101BA000204600F0ABFA0128ECD0606A10B1204664
:101BB00000F022FA2068416821F4904141602068D9
:101BC000816821F02A0181602068016841F00101EB
:101BD00001602046BDE8104000F072BA10B586B032
:101BE000044614216846FEF76FFB124920688842BC
:101BF0001ED11148016841F480210160006800F4A1
:101C0000802005900C481038016841F008010160FF
:101C100000680221002200F0080005900323072439
:101C20004FF440708DE81F0004486946FEF7E4FF5A
:101C300006B010BD0048004040380240000C024091
:101C4000FEE700002DE9F04186B014216846FEF75A
:101C50003BFB3348016841F004010160016801F079
:101C600004010591016841F080010160016801F003
:101C700080010591016841F001010160016801F0F6
:101C800001010591016841F002010160016801F064
:101C900002010591016841F008010160016801F04D
:101CA00008010591016841F04001016000684FF4AE
:101CB00081461C4F002200F0400031460590384616
:101CC000FFF786F8DFF86080002240214046FFF7EA
:101CD0007FF8164900244FF400508DE81300144893
:101CE0006946FEF789FF01250096CDE90154694652
:101CF00038460394FEF780FF40200090CDE9015460
:101D0000694640460394FEF777FF80206946CDE997
:101D1000000440460294FEF76FFF06B0BDE8F08174
:101D20003038024000040240001802400000111048
:101D300000080240FEB54D4CC021A8224FF0010C16
:101D4000251D00272170A0236270FF20A7702E1D83
:101D5000E37028706870A870EF703170727086F848
:101D600002C0F37002F0F8FE2088A178E27844BA4D
:101D70003F4B90FA90FC240490FA90FE44EA012430
:101D80004FEA0C4C4CEA012C14431FFA8CFC40BA6D
:101D90004FEA0E4E24064EEA0121C0B2114344EA36
:101DA0000C2C344C4CEA002040EA1160A5F11001E3
:101DB00008602888A978EA7845BA90FA90FC2D0442
:101DC00045EA01254FEA0C4C15434CEA012C90FAE8
:101DD00090FE1FFA8CFC2D0645EA0C2540BA4FEA0E
:101DE0000E4C4CEA0121C0B2114345EA002040EA02
:101DF0001160A6F1100108603088B178F27845BA18
:101E000046BA2D0490FA90FC360445EA012546EACC
:101E10000126154340BAB6B24FEA0C4C2D064CEAE7
:101E20000121C0B2114345EA062545EA002040EAF7
:101E300011600E49091F08600097CDE901430B4668
:101E40000D480A1F083903F0F5F90B4803F096FA1C
:101E5000094890F82B004007074803D5BDE8FE402D
:101E600003F0C8BABDE8FE4003F08EBA0C000020B3
:101E70004D350008E536000854050020034810B52C
:101E800001F074FCBDE8104004F048BA540500208D
:101E90000A48002130B4084C0C224FF4E1330460AE
:101EA000C0E90131C160C0E904128161C161016210
:101EB000416230BCFFF75FBE00480040D000002008
:101EC0000A480021022230B40123C0E903218261C3
:101ED0000624C0E9073141624FF0A045C0E90B314B
:101EE000C0E9005430BCFFF711B8000050010020D9
:101EF000FEE7704770477047FEF776BF70B5B8B021
:101F0000342124A8FEF7E0F9142131A8FEF7DCF90A
:101F100090216846FEF7D8F9FFF7EAF81E480168F5
:101F200041F080510160006800F0805036901B48FD
:101F3000016841F44041016000684FF4A02102248F
:101F400000F4404036900120D8258205092604235C
:101F5000CDE92A42CDE92401CDE92C35CDE92E4643
:101F600024A8FFF757FCFFF78DF8E2024FF4A051C9
:101F70000025CDE9341231AA0F20072182E8310073
:101F800031A8FFF75BFB064813951F950090684644
:101F9000FFF7B6F838B070BD40380240007000401E
:101FA00000012000104A30B51048146800210F4B82
:101FB00044F470041460083305680D4A0D4C45F074
:101FC0000105056019600368051D1340074A036099
:101FD0000C322C600568E305034C25F48025056070
:101FE000803C1160236030BD88ED00E00038024085
:101FF000FFFFF6FE1030002490F82410C90706D029
:102000000168836A4A6822F400321A434A6090F8F1
:102010002410890706D50168C36A4A6822F4803211
:102020001A434A6090F82410490706D50168036BEB
:102030004A6822F480221A434A6090F82410090763
:1020400006D50168436B4A6822F400421A434A608D
:1020500090F82410C90606D50168836B8A6822F4BB
:1020600080521A438A6090F82410890606D50168C8
:10207000C36B8A6822F400521A438A6090F82410D5
:10208000490611D50168036C4A6822F480121A438C
:102090004A60016CB1F5801F06D10168436C4A6843
:1020A00022F4C0021A434A6090F82410090606D5AB
:1020B0000168826C486820F4002010434860704733
:1020C00038B500250446C567FEF788FE034620683C
:1020D000006800070BD56FF07E400090002220467C
:1020E0004FF4001100F034F908B1032038BD20206E
:1020F000606784F87050A067002038BD2DE9F0417A
:1021000004468068DFF818C2864F2368D4E9045279
:10211000E16928431E6800250A438349104306EA03
:102120000C0606431E604FF400422068E6684368D0
:1021300023F44053334343602368A669206AD3F8ED
:1021400008C030432CF4306606439E602068B842D5
:102150000AD1086810F0030052D001287BD0022871
:102160007AD003286ED186E0704B98420AD1086875
:1021700010F00C0079D004287BD0082877D00C28E8
:1021800060D178E06A4B98420AD1086810F03000BC
:102190006BD010286DD0202869D0302852D16AE049
:1021A000644B98420AD1086810F0C0005DD0402806
:1021B0005FD080285BD0C02844D15CE05E4B984261
:1021C0000DD1086810F440704FD0B0F5807F50D02A
:1021D000B0F5007F4BD0B0F5407F33D14BE0574B8B
:1021E00098420FD1086810F4406009D0B0F5806FB4
:1021F0003FD0B0F5006F3AD0B0F5406F22D13AE051
:10220000012120E04E4B98420DD1086810F4405057
:102210002BD0B0F5805F2CD0B0F5005F27D0B0F5A3
:10222000405F0FD127E0474B98420BD1086810F46C
:1022300040401AD0B0F5804F1BD0904217D0B0F577
:10224000404F18D01021E0694FF6EF76904238D118
:1022500009295DD202E00CE009E006E0DFE801F0C8
:102260000D1027582A5858582D000021EBE702215D
:10227000E9E70421E7E70821E5E7FFF77BFA01E05A
:10228000FFF788FA0146D4F80400490001EB500139
:10229000B1FBF0F080B2A0F11001B14238D84FF696
:1022A000F0732168C0F342021840104324E026492D
:1022B0006068EBE7FFF77EFAE4E760684FF480318F
:1022C000E4E7092924D2DFE801F0050819231C23DB
:1022D00023231F00FFF74EFA01E0FFF75BFA0146E8
:1022E000D4F8040001EB5001B1FBF0F080B2A0F192
:1022F0001001B1420CD82168C8600AE01349606837
:10230000F0E7FFF757FAEAE7606802EB5001EBE706
:1023100001250020206660662846BDE8F0810000A7
:10232000F369FFEF00100140903802400044004084
:1023300000480040004C00400050004000140140A4
:1023400000780040007C00400048E8010024F400D0
:102350002DE9F041984617460E460446069D08E0D2
:10236000681C06D0FEF73AFDA0EB0800A8420BD887
:1023700055B12068C06936EA000017D00020B84285
:10238000EED00020BDE8F0812168202000220B68FB
:1023900023F4D0730B6021688B6823F001038B60FA
:1023A0006067A067032084F87020EBE70120E6E770
:1023B00070B504460698049D0D99012815D0E06873
:1023C00040F04000E060204600F028F8A16B41F4A6
:1023D0008031A163012D07D1A16841F00601A16000
:1023E000A16841F02001A16070BDA06B01290A4ADB
:1023F00020F48030A063E06800EA0200E060E0685A
:1024000020F44010E06003D1E06840F48010E06008
:10241000204600F003F8DDE7BFFFBDFF0C490122B5
:1024200002E0521C8A420BD80369002BF9DA0369D7
:10243000012243F00103036104E0521C8A4201D9E6
:10244000032070470369DB07F7D1002070470000C5
:10245000400D030010B5D0F8041841F00201C0F897
:1024600004180320FEF742F8002010BD2DE9F04FBC
:102470000E4604460021DDE90B2BDDF840800D46B9
:10248000099F084604EB800CCCF80411401C0F286F
:10249000F8D32046A06BB8F1000F15D040F4001C13
:1024A000C4F838C089460846C4F8000E2046D4F85F
:1024B0000018012AC4F8001834D0032A32D0D0F80A
:1024C000001841F0030111E020F4001CC4F838C0EA
:1024D000206840F0400CC4F800C0206840F0800C38
:1024E000C4F800C0DEE700BF41F00101C0F80018E9
:1024F000102100F09BF800B10125204600F086F87D
:1025000000B1012548464FF0006C4FF67F334FF085
:10251000904AC4F81098C4F81498C4F81C98002184
:10252000994619E0D0F80018002BDFD0DCE700BF97
:1025300004EB4112D2F80039002B06DA11B1C2F8CF
:1025400000A904E0C4F800C901E0C2F80009C2F81B
:102550001009C2F80899491C8E42E9D8002113E0FD
:1025600004EB4112D2F8003B002B06DA11B1C2F89D
:1025700000AB04E0C4F800CB01E0C2F8000BC2F8E5
:10258000100BC2F8089B491C8E42E9D8D4F81018E9
:10259000012F21F480722146C4F8102808D1144B71
:1025A000144AC1F83038D1F830181143C4F8301843
:1025B0006FF08041A06161611FB9A06940F0100017
:1025C000A061A069BBF1000F0B4A40EA0200A061C4
:1025D00003D0A06940F00800A061B8F1010F03D159
:1025E000A06906490843A0612846BDE8F08F0000B5
:1025F000000180000300010000383C80040000401E
:10260000816821F00101816000207047064A102195
:1026100001610021491C914201D9032070470369DF
:10262000DB06F7D400207047400D03002023074A43
:1026300043EA811303610021491C914201D903201F
:10264000704703699B06F7D400207047400D0300D4
:1026500010B5C268012922F0C042C26002D029B17F
:10266000012010BDC16841F0005102E0C16841F095
:102670008041C1603220FDF739FF002010BDFEE728
:102680000FB4054B10B503A9044A029800F028F8CE
:1026900010BC5DF814FB00008F370008CC00002050
:1026A000090700284FEA116104DB00F1E02080F8FF
:1026B0000014704700F00F0000F1E02080F8141DB6
:1026C000704702E008C8121F08C1002AFAD17047FB
:1026D0007047002001E001C1121F002AFBD17047A2
:1026E0002DE9FF4F8BB09A460F460546002606E0BF
:1026F00025280BD052460D9990476D1C761C2878E2
:102700000028F5D10FB03046BDE8F08F0024A04678
:102710000122604900E0044315F8013F203B02FA22
:1027200003F00842F7D128782E2817D115F8010FA9
:1027300044F004042A280ED06FF02F022878A0F16C
:10274000300109290AD808EB880102EB410100EBAE
:1027500001086D1CF2E757F8048B6D1C2878692876
:102760003ED006DC0028CDD063280BD0642804D1ED
:1027700036E0732810D075284BD052460D999047FB
:10278000761C85E017F8040B8DF8000000208DF80A
:102790000100E946012003E057F8049B4FF0FF30A9
:1027A00061074FF0000401D40AE0641C44450DDACF
:1027B0008442FADB19F804100029F6D106E0641C03
:1027C0008442FCDB19F804100029F8D1264404E007
:1027D00019F8010B52460D999047641EF8D257E044
:1027E00001CF4FF00A0B002802DA40422D2102E00F
:1027F000210504D52B218DF82410012103E0E107E8
:1028000005D02021F7E70DF1200908910CE0002107
:10281000F9E701CF4FF00A0BF9E75946FDF76CFDD8
:1028200001F1300209F8012D0028F6D1ADEB0900C5
:1028300000F1200B600701D44FF00108D84502DDFC
:10284000A8EB0B0000E000208046002406E009A869
:102850005246005D0D999047641C761C089884428E
:10286000F5DB04E0302052460D999047761CB8F114
:102870000001A8F10108F5DC05E019F8010B52464A
:102880000D999047761CBBF10001ABF1010BF4DC14
:102890006D1C34E70928010010B5044640688047E4
:1028A00020682246BDE81040014903F065BD0000E4
:1028B0009928000870B50C460546880706D006A37F
:1028C0004FF4CE7210A118A0FFF7DAFEA8680068D6
:1028D0002060A868046070BD2E2E2F4D6964646C62
:1028E0006577617265732F54686972645F506172B5
:1028F00074792F4C7749502F7372632F636F726511
:102900002F6D656D702E63006D656D705F6672650D
:10291000653A206D656D2070726F7065726C7920FC
:10292000616C69676E656400417373657274696F89
:102930006E2022257322206661696C6564206174B3
:10294000206C696E6520256420696E2025730A005D
:1029500010B580680468002C0CD02168A2070160C3
:1029600006D005A34FF4A4720FA118A0FFF788FEAC
:10297000204610BD002010BD2E2E2F4D6964646CC2
:102980006577617265732F54686972645F50617214
:1029900074792F4C7749502F7372632F636F726570
:1029A0002F6D656D702E63006D656D705F6D616C70
:1029B0006C6F633A206D656D702070726F70657218
:1029C0006C7920616C69676E6564000041737365A2
:1029D0007274696F6E2022257322206661696C65AE
:1029E00064206174206C696E6520256420696E2006
:1029F00025730A0070B50A4D0024064604EB440016
:102A000005EBC000017D29B18068B04202D12046AB
:102A100000F034F9641CE4B20A2CEFD370BD00005E
:102A2000946B00202DE9F74F84B04FF00A0B00247F
:102A30000646DA465F46D94602940194009404EBB8
:102A400044004F490A2F039001EBC00898F8145036
:102A500016D0002D24D0012D08D0022D06D249A376
:102A600040F2251255A165A0FFF70AFE66B1316854
:102A7000D8F80400814207D160B207B0BDE8F08FFA
:102A8000002DE8D167B20BE0012D17D0022D07D33E
:102A9000B8F812000099884202D34FFA84FA0090E5
:102AA000641CE4B20A2CCAD3059881074FF0FF30AA
:102AB000E3D40A2F18D01ADAFCB242E03048039966
:102AC00050F831000028B8F8120006D00299884268
:102AD000E6D34FFA84F90290E2E701998842DFD306
:102AE0004FFA84FB0190DBE70599C907C5D0BAF11D
:102AF0000A0F0FDA0AF0FF04214804EB440150F8F2
:102B0000310090B11FA340F26F1246A13BA0FFF726
:102B1000B7FD0AE0BBF10A0F02DA0BF0FF0404E094
:102B2000B9F10A0FA9DA09F0FF040A2C06D315A39C
:102B300040F2811241A131A0FFF7A2FD204600F032
:102B40009DF80A2C06D30FA340F285123BA12BA0BF
:102B5000FFF796FD0A4804EB440100EBC105287D10
:102B600030B108A34FF4C37239A124A0FFF788FD48
:102B70000EB130686860002160B269827DE70000B4
:102B8000946B00202E2E2F4D6964646C6577617202
:102B900065732F54686972645F50617274792F4C49
:102BA0007749502F7372632F636F72652F69707648
:102BB000342F6574686172702E63000073746174E1
:102BC00065203D3D204554484152505F5354415487
:102BD000455F50454E44494E47207C7C20737461CC
:102BE0007465203E3D204554484152505F53544146
:102BF00054455F535441424C450000004173736596
:102C00007274696F6E2022257322206661696C657B
:102C100064206174206C696E6520256420696E20D3
:102C200025730A006172705F7461626C655B695D37
:102C30002E71203D3D204E554C4C000069203C201B
:102C40004152505F5441424C455F53495A45000040
:102C50006172705F7461626C655B695D2E73746133
:102C60007465203D3D204554484152505F535441C6
:102C700054455F454D5054590000000070B5074C55
:102C800000EB4005002654F8350018B103F014F8A5
:102C900044F8356004EBC500067570BD946B0020E8
:102CA0002DE9F0430D00074685B009D07C684FF44C
:102CB00080782088404539D12079062836D109E02E
:102CC0001CA34FF4227229A12CA0FFF7D9FC05B058
:102CD000BDE8F0836079042828D16088082825D1D0
:102CE000D4F80E0004906868A16920B1814202D135
:102CF0000126334601E000260223284604F108029B
:102D000004A9914600F094FBE08840450ED16EB1D5
:102D10000222284604AB291DCDE90232CDE9001973
:102D200005F125034A46194600F084FA384602F0B8
:102D3000C3FFCCE72E2E2F4D6964646C65776172FA
:102D400065732F54686972645F50617274792F4C97
:102D50007749502F7372632F636F72652F69707696
:102D6000342F6574686172702E6300006E6574693B
:102D70006620213D204E554C4C0000004173736588
:102D80007274696F6E2022257322206661696C65FA
:102D900064206174206C696E6520256420696E2052
:102DA00025730A00FEB5040015460E4606D141A360
:102DB00040F21B324DA151A0FFF762FC36B93DA392
:102DC0004FF4477257A14DA0FFF75AFC35B939A30C
:102DD00040F21D3256A149A0FFF752FC2868214657
:102DE00000F060FE08B1564B3CE02868C0F30311C8
:102DF0000E2922D0D4E901210A400140914208D095
:102E000080B2A0F57E41A93903D0E068A0B304F1F7
:102E10000C054C4A4C49107800EB400301EBC3030E
:102E20001F7D022F2CD32F685B689F4228D102465A
:102E30003146204600F08AF8FEBD01228DF80420BC
:102E400000208DF805005E218DF80610687801AB32
:102E500000F07F008DF80700A8788DF80800E8786A
:102E60008DF809004FF4006004F12502314600900E
:102E7000204600F0BBFBFEBDFFE76FF00300FAE762
:102E80005FF0000000EB400301EBC3031F7D022F46
:102E900006D32F685B689F4202D1C0B21070C6E7AC
:102EA000401C40B20A28EDDB32462946204600F09D
:102EB000D5F8E0E72E2E2F4D6964646C657761725A
:102EC00065732F54686972645F50617274792F4C16
:102ED0007749502F7372632F636F72652F69707615
:102EE000342F6574686172702E6300006E657469BA
:102EF0006620213D204E554C4C0000004173736507
:102F00007274696F6E2022257322206661696C6578
:102F100064206174206C696E6520256420696E20D0
:102F200025730A007120213D204E554C4C000000B5
:102F300069706164647220213D204E554C4C000044
:102F4000C89A0008C0000020946B00202DE9F843C7
:102F50001546884606461C4802EB450100EBC104B5
:102F6000207D022806D219A34FF43B7225A131A07F
:102F7000FFF786FB144A05EB4501207D02EBC105F6
:102F80000C35022813D1608A0327B0F58E7F04D94F
:102F9000211D304600F006FA07E0B0F5877F06D322
:102FA000211D2A46304600F003FA00B927754FF478
:102FB000006006F125022B4641460090304600F0A5
:102FC00015FBBDE8F8830000946B00202E2E2F4DDA
:102FD0006964646C6577617265732F5468697264A3
:102FE0005F50617274792F4C7749502F7372632F41
:102FF000636F72652F697076342F657468617270C3
:103000002E6300006172705F7461626C655B617257
:10301000705F6964785D2E7374617465203E3D2035
:103020004554484152505F53544154455F535441B5
:10303000424C4500417373657274696F6E2022259E
:103040007322206661696C6564206174206C696E0E
:103050006520256420696E2025730A002DE9FC5F38
:103060008246144625300190086888464FF0FF36A6
:103070004FF0000B514600F015FD002828D1D8F87C
:103080000000C0F303110E2922D0B8F1000F1FD0A9
:1030900000281DD0012152464046FFF7C3FC07001F
:1030A00018D4394907EB470901EBC905287D0028E9
:1030B00012D0012808D0022806D234A340F2C73229
:1030C00040A14AA0FFF7DCFABBF1000F0AD108E0EB
:1030D0006FF00F00BDE8FC9FC5F808A0012129751D
:1030E00000E034B94146504600F05CF9002C064639
:1030F000F0D0287DDFF8908002280DD345484FF4AA
:10310000006105F10C0307705046019A00912146B9
:1031100000F06CFA064635E0012833D14FF47B7697
:10312000254668892989884207D1286828B117A3CC
:10313000324639A12DA0FFF7A3FA287B01280ED033
:1031400029890022022002F063F9050018D02146E7
:1031500002F02EFC58B1284602F0AEFD10E02D68BA
:10316000002DDED12546204602F0D4FF45B158F8A7
:10317000390008B102F0A0FD002648F8395001E0FE
:103180004FF0FF363046A5E7946B00202E2E2F4DD2
:103190006964646C6577617265732F5468697264E1
:1031A0005F50617274792F4C7749502F7372632F7F
:1031B000636F72652F697076342F65746861727001
:1031C0002E6300006172705F7461626C655B695DA3
:1031D0002E7374617465203D3D2050454E44494E28
:1031E00047206F7220535441424C45004173736530
:1031F0007274696F6E2022257322206661696C6586
:1032000064206174206C696E6520256420696E20DD
:1032100025730A00C00000206E6F207061636B652B
:10322000742071756575657320616C6C6F7765646A
:10323000210000002DE9FF4F81B0984606004FF0B5
:103240000007DDE90FA9DDF838B006D12BA34FF454
:103250008B6238A13BA0FFF713FA00221C21022049
:1032600002F0D6F8050046D068891C2806D223A3B0
:1032700040F263423DA133A0FFF702FA6C68119857
:1032800001F068FCE08096F82400062806D0444946
:103290001AA32CA040F26A42FFF7F2F9D8F8001006
:1032A0000623A1604FF48071B8F80400A081DAF819
:1032B0000020C4F812200822BAF80400E082DBF8EB
:1032C0000000C4F80E00D9F80000A061042021809D
:1032D00040F606016280237160713046DDE9022309
:1032E0000091294600F082F9284602F0E5FC3846B4
:1032F00005B0BDE8F08F4FF0FF30F9E72E2E2F4DCF
:103300006964646C6577617265732F54686972646F
:103310005F50617274792F4C7749502F7372632F0D
:10332000636F72652F697076342F6574686172708F
:103330002E6300006E6574696620213D204E554C59
:103340004C000000417373657274696F6E20222512
:103350007322206661696C6564206174206C696EFB
:103360006520256420696E2025730A006368656303
:103370006B20746861742066697273742070627562
:10338000662063616E20686F6C642073747275636D
:1033900074206574686172705F6864720000000078
:1033A000A49C0008014A00F003B80000C89A000875
:1033B0007FB5064D0124031DCDE90214CDE900358A
:1033C00021331946FFF736FF04B070BDCE9A0008CE
:1033D00070B5164D5FF0000404EB440005EBC0012E
:1033E000087DF0B14A8A521C92B24A82B2F5967FA9
:1033F0000AD2012806D003280AD004280AD00128BE
:103400000BD00EE0052A08D32046FFF737FC08E072
:10341000042000E00220087503E08868091DFFF71A
:10342000C1FF641CE4B20A2CD6D370BD946B00209B
:10343000F8B5044690F824001F46154606280E46A7
:1034400006D020A340F2AB122CA135A0FFF718F94B
:103450009EB3306888B3214600F024FB68BB307807
:10346000C0F303100E2829D0224639463046FFF714
:10347000D9FA002820DB344A00EB4001022302EB9A
:10348000C1000375002384602E68C660AE88068282
:10349000438252F8316076B142F831304FF4006027
:1034A0002B4604F1250231460090204600F09EF89C
:1034B000304602F001FC0020F8BDFFE76FF00F007E
:1034C000FAE700002E2E2F4D6964646C65776172F7
:1034D00065732F54686972645F50617274792F4C00
:1034E0007749502F7372632F636F72652F697076FF
:1034F000342F6574686172702E6300006E657469A4
:10350000662D3E6877616464725F6C656E203D3D38
:10351000204554485F4857414444525F4C454E0053
:10352000417373657274696F6E2022257322206661
:1035300061696C6564206174206C696E6520256426
:1035400020696E2025730A00946B002070B5044634
:1035500040890D460E283CD9606801788689CA07E3
:1035600014D0012905D020490622FCF7B8FE48B145
:103570000CE0417851B980785E2807D1607B40F03B
:10358000100002E0607B40F008006073082E6FF0CE
:103590000D0103D0B6F5C16F1BD10FE095F82B00DC
:1035A000000716D560890E2813DB204602F04EFC7A
:1035B00078B92946204600F0B7FB12E095F82B00B9
:1035C000000706D560890E2803DB204602F03EFC8A
:1035D00018B1204602F070FB03E029462046FFF7B1
:1035E0005FFB002070BD0000C89A00082DE9F04183
:1035F0001F4690460E460446069801F0ABFA0E218F
:103600000546304602F022FC18B16FF00100BDE81B
:10361000F0817068858139680160B9888180D8F847
:103620000020C0F80620B8F80410418194F8240066
:10363000062806D006A340F22B1213A11FA0FFF705
:103640001FF8A26931462046BDE8F041104700004E
:103650002E2E2F4D6964646C6577617265732F54EB
:10366000686972645F50617274792F4C7749502F8A
:103670007372632F6E657469662F65746865726E08
:1036800065742E63000000006E657469662D3E68E7
:1036900077616464725F6C656E206D75737420620F
:1036A00065203620666F722065746865726E657479
:1036B0005F6F75747075742100000000417373654D
:1036C0007274696F6E2022257322206661696C65B1
:1036D00064206174206C696E6520256420696E2009
:1036E00025730A0010B5040006D10BA340F2122284
:1036F0000EA112A0FEF7C4FF1A49732061611A4996
:10370000A161742184F82C00204684F82D1001F06A
:10371000EDF8002010BD00002E2E2F5372632F6590
:10372000746865726E657469662E63006E6574698F
:103730006620213D204E554C4C00000041737365BE
:103740007274696F6E2022257322206661696C6530
:1037500064206174206C696E6520256420696E2088
:1037600025730A00A52D0008A14A000870B505467A
:1037700001F034F9040009D02A692946904700284D
:1037800004D02046BDE8704002F096BA70BD38B54E
:1037900004468DF8000069460320ABBE204638BDC4
:1037A0000A46032100F0F4B82DE9FE4F8A46444949
:1037B0000446D1F8088098F800000007870E142FFF
:1037C00078D36089042875D360680078002871D0A8
:1037D00008286FD1486901F11405C0F303120E2ABD
:1037E00068D08946096800F05DF9002862D1208917
:1037F00008285FD307F10E0120460E4602F026FB93
:1038000000282DD020890022384481B2022001F006
:10381000FFFD06004ED0718907F10800814216D3E2
:1038200070683A464146FCF736FD7942304602F070
:103830000DFB002806D0AF2222A330A13DA0FEF749
:103840001FFF04E02146304602F0B2F818B13046BE
:1038500002F032FA2EE0204602F02EFA34460CE056
:103860007142204602F0F2FA002806D0C02215A3C9
:103870003AA130A0FEF704FF1CE0666839462046F6
:1038800002F0E4FAB0B9606800212A68FF27C2603C
:103890000A46D9F810300361012331707180077234
:1038A00041812046CDE900133B462946CDF808A0CA
:1038B00000F00CFB2046BDE8FE4F02F0FDB9000011
:1038C0006C3600202E2E2F4D6964646C6577617212
:1038D00065732F54686972645F50617274792F4CFC
:1038E0007749502F7372632F636F72652F697076FB
:1038F000342F69636D702E630000000069636D7082
:103900005F696E7075743A206D6F76696E672072AC
:103910002D3E7061796C6F616420746F2069636DF6
:103920007020686561646572206661696C65640A0F
:1039300000000000417373657274696F6E20222568
:103940007322206661696C6564206174206C696E05
:103950006520256420696E2025730A0069636D70F7
:103960005F696E7075743A20726573746F72696EF8
:1039700067206F726967696E616C20702D3E70619F
:10398000796C6F6164206661696C65640A0000008F
:103990002DE9FF4792468946002206462421012050
:1039A00001F036FD050031D06889242806D218A31D
:1039B00040F2611224A12FA0FEF762FE6C684FF066
:1039C000000877681C2284F8009084F801A0A4F80D
:1039D0000480A4F80680686871680830FCF75BFC16
:1039E000F868039003A800F013FC60B1A4F802800B
:1039F0000122CDF80080FF23CDE9012000212846D7
:103A000003AA00F063FA284602F056F9BDE8FF87E2
:103A10002E2E2F4D6964646C6577617265732F5427
:103A2000686972645F50617274792F4C7749502FC6
:103A30007372632F636F72652F697076342F6963B9
:103A40006D702E6300000000636865636B2074680E
:103A50006174206669727374207062756620636198
:103A60006E20686F6C642069636D70206D65737380
:103A700061676500417373657274696F6E202225FA
:103A80007322206661696C6564206174206C696EC4
:103A90006520256420696E2025730A000A460B21E3
:103AA000FFF776BF421C12D088B191F82B20920705
:103AB0000BD54A68824208D089680A4000EA0103AF
:103AC000934202D10143491C01D0002070470120DC
:103AD000704700002DE9F74F86B004460025AE1F61
:103AE00007981427408C1438C11700EB5170C0F3AD
:103AF000CF0B60680590017801F00F01052904D013
:103B000056A340F2E12264A10BE0C08801F022F844
:103B10008104C0F30C0002900AD550A340F2E622C3
:103B200067A16EA0FEF7ACFD304609B0BDE8F08F8E
:103B3000208914381FFA80F880E000BFB8EBCB0F63
:103B400001D34FEACB0080B203900022142102205F
:103B500001F05EFC5FEA000A78D06089142806D282
:103B60003EA34FF4427267A15CA0FEF789FDDAF82C
:103B7000040014220599FCF78EFBDAF80400039E7A
:103B800004902BE06089C01B85B2AE4200D235465E
:103B900015B3052001F0FCFA5FEA000953D0606814
:103BA00002224B4629463844CDE90005042001F0A5
:103BB000EDFD0090F0B3204602F0ACFA59495046B2
:103BC000C9E90414009901F051FE701B0604360C7B
:103BD00006D024680027D5E724680027002ED1D11D
:103BE000079879198FB2408C143840450298C0F379
:103BF0000C0001DA40F4005000F0ACFF0499C880DA
:103C00000398143080B200F0A5FF04990022488088
:103C10005146049842810798089A4369984750464C
:103C200002F04AF80399A8EB010202991FFA82F800
:103C3000594401E00DE009E088B20290B8F10000BB
:103C40007FF47CAF71E7504602F036F84FF0FF305A
:103C50006BE7484600F00AFBF5E700002E2E2F4DDB
:103C60006964646C6577617265732F546869726406
:103C70005F50617274792F4C7749502F7372632FA4
:103C8000636F72652F697076342F6970345F667266
:103C900061672E63000000006970345F66726167BF
:103CA000282920646F6573206E6F7420737570709F
:103CB0006F7274204950206F7074696F6E730000CA
:103CC00069705F6672616728293A204D4620616CF1
:103CD00072656164792073657400000041737365D7
:103CE0007274696F6E2022257322206661696C658B
:103CF00064206174206C696E6520256420696E20E3
:103D000025730A0074686973206E656564732061A9
:103D1000207062756620696E206F6E65207069651F
:103D200063652100554800082DE9F05F45680646A7
:103D30000F4604212878B1EB101F03D0304601F064
:103D4000BBFF8DE000F00F004FF6FF7101EA800825
:103D5000688800F0FFFE04463089A04203D921465E
:103D6000304602F00BF971894145E7D33089A04212
:103D7000E4D3B8F1140FE1D3DFF848A12969CAF8F8
:103D80001410C1F30312E9680E2ACAF8101014D0F7
:103D9000DFF834B13C464FF0010900BF94F82B0026
:103DA000C00712D0616881B1DAF81400884220D0CF
:103DB0002146FFF777FEE0B907E097F82B00C00730
:103DC0000FD0786868B13C4613E0B9F1000F0AD013
:103DD0009AF814007F2804D0DBF800404FF0000967
:103DE00002E0002405E02468BC4200D12468002CD5
:103DF000D4D1DAF810003946FFF754FE00289DD1DF
:103E00009AF81000D146C0F303100E2896D0002C6B
:103E100094D0E88830F0C00005D0304600F01EF99C
:103E200006001DD07568C8F10001C9F80850304679
:103E3000C9E900472A781207920EA9F80C2002F06F
:103E400005F8687A012818D0062811D011280AD060
:103E5000D9F814004F462146FFF724FE90B11FE029
:103E60000020BDE8F09F3946304605F039FD1AE0E4
:103E70003946304602F0A6FF15E039463046FFF7D6
:103E800093FC10E0387DC0F303100E2808D04146A3
:103E9000304601F0DEFF022130467560FFF780FCFE
:103EA000304601F009FF0021C9F80010C9F80410DC
:103EB000C9F80810A9F80C10C9F81010C9F81410A6
:103EC000CEE700006C3600205C000020FEB5DDE986
:103ED0000954089E1AB109B10F6807B9211D00964F
:103EE000CDE9015400F002F8FEBD00002DE9F84FC5
:103EF000DDE90BA80546C089DDF828B01F4601287A
:103F00001646894606D02DA340F2333238A13BA095
:103F1000FEF7B6FB002E39D01421284601F096FF9B
:103F200018B16FF00100BDE8F88F68896C6814283B
:103F300006D222A34FF458723AA130A0FEF7A0FB9C
:103F40002772452084F809A031682161207084F827
:103F500001B0288900F0FEFD3E4F4FF0000A60805E
:103F6000A4F806A0388800F0F5FDA080B9F1000F94
:103F7000388800F10100388005D0D9F80000E060F1
:103F8000A4F80AA006E034480068F8E768686E46BE
:103F900000690090B8F8220040B12989814205D912
:103FA000324641462846FFF795FDBCE7D8F8143065
:103FB0004046324629469847B5E700002E2E2F4D41
:103FC0006964646C6577617265732F5468697264A3
:103FD0005F50617274792F4C7749502F7372632F41
:103FE000636F72652F697076342F6970342E6300A9
:103FF000702D3E726566203D3D2031004173736532
:104000007274696F6E2022257322206661696C6567
:1040100064206174206C696E6520256420696E20BF
:1040200025730A00636865636B2074686174206699
:104030006972737420706275662063616E20686FA8
:104040006C64207374727563742069705F68647245
:1040500000000000C2000020D09B00082DE9F05FA6
:1040600045688346287800F00F0005287DD1E88850
:1040700000F070FDC004070C688800F06BFD297823
:1040800001F00F01494200EB81001FFA80F8584609
:1040900001F084FC5D4C0646208830440A2809D98A
:1040A0003146284600F080FB00285ED0208830444E
:1040B0000A285AD8A14664684FF0000A0CE06069EB
:1040C000E968884207D1A0692969884203D1A0899B
:1040D000A988884203D02468002CF0D106E02CB1D6
:1040E000E88800F037FDC0041BD025E0042001F073
:1040F0004FF804000AD13146284600F055FBB04283
:1041000033DB042001F044F804007BD02021FCF7CD
:10411000DBF80321E177D9F804102160C9F80440E5
:1041200004E0E08900F016FDC00405D01422294601
:1041300004F10800FCF7AFF8A87940F340156D1CB6
:1041400008D007EB080080B2B8425BD34FF6EB71A2
:10415000884257D82A465946204600F0CFF8411CDD
:1041600050D0B9F80020324400E04BE0A9F800201C
:1041700035B1A27F07EB0801A18342F00102A277CB
:1041800001283DD1A08B142204F108011430A08332
:104190006068456828462E68FCF77DF8A08B00F023
:1041A000D9FC01466980A5F806A06FF01308A5F8B0
:1041B0000AA0656809E077684146304601F046FE8E
:1041C0003146284601F052FB3E68002EF3D1D9F863
:1041D00004104E468C4205D1002105E00868A0423B
:1041E00002D001460029F9D1204600F0B7F928464F
:1041F00001F0D4FB3188081A30802846BDE8F09FD2
:104200000020FBE7584601F057FDF9E7C400002005
:1042100070B50446134813E090F82B10CA070FD06E
:104220004A070DD543685BB182682568134005EAEB
:1042300002069E4214D0890702D4C1688D420FD075
:1042400000680028E8D10848006840B190F82B10B9
:10425000CA0704D0490702D54168002900D10020CF
:1042600070BD00005C0000206000002010B504005C
:1042700006D106A340F2AE2213A116A0FEF700FA63
:104280002146BDE81040052000F00EBF2E2E2F4D18
:104290006964646C6577617265732F5468697264D0
:1042A0005F50617274792F4C7749502F7372632F6E
:1042B000636F72652F697076342F6970345F667230
:1042C00061672E63000000007020213D204E554C98
:1042D0004C000000417373657274696F6E20222573
:1042E0007322206661696C6564206174206C696E5C
:1042F0006520256420696E2025730A002DE9F047AA
:104300004C68002592460F4606464FF0010860882B
:1043100000F020FC217801F00F01494200EB8109F7
:10432000E08800F017FC7C68C0040022010C01EB5F
:104330000900226083B2A180E380726826E05068A1
:10434000B0F804C0614515D222606DB1B5F806C061
:1043500061457BD38088834278D82F60A0888445CC
:1043600006D04FF0000803E0808883426ED8776063
:1043700072B12DE06AD0C288914267D325B1EA8834
:10438000624501D04FF0000802680546002AD6D1E8
:10439000002D12D0E888A188884206D932A340F2C5
:1043A000AB1240A147A0FEF76BF92F60E888A18807
:1043B00088420DD04FF000080AE07068002806D04F
:1043C00029A340F2B31249A13EA0FEF759F9776044
:1043D000BAF1000F02D1B07FC00732D0B8F1000FA0
:1043E00032D07268002A2FD05068808800282BD1E4
:1043F0002068214628B14468C888A1888842F7D03F
:1044000022E0B8F1000F1FD032B917A34FF4EA72BF
:1044100044A12CA0FEF734F970684068A04206D190
:1044200011A340F2D5123FA126A0FEF729F920687A
:1044300030B10DA340F2D7123EA122A0FEF720F921
:104440000120BDE8F08701E00020FAE7384601F0DE
:10445000A5FA014640480288511A0180384601F009
:104460002BFC4FF0FF30ECE72E2E2F4D6964646C6F
:104470006577617265732F54686972645F50617209
:1044800074792F4C7749502F7372632F636F726565
:104490002F697076342F6970345F667261672E639E
:1044A00000000000636865636B20667261676D657C
:1044B0006E747320646F6E2774206F7665726C6102
:1044C00070000000417373657274696F6E2022255D
:1044D0007322206661696C6564206174206C696E6A
:1044E0006520256420696E2025730A006E6F207098
:1044F000726576696F757320667261676D656E743B
:104500002C2074686973206D757374206265207443
:10451000686520666972737420667261676D656E86
:104520007421000073616E69747920636865636B40
:104530000000000076616C69646174655F64617499
:10454000616772616D3A6E6578745F70627566213D
:104550003D4E554C4C000000C400002070B5044690
:104560000C480D464168A14202D1216841600AE031
:10457000002D06D108A340F2451216A11CA0FEF79B
:104580007FF8206828602146BDE87040042000F0D4
:104590008BBD0000C40000202E2E2F4D6964646C7A
:1045A0006577617265732F54686972645F506172D8
:1045B00074792F4C7749502F7372632F636F726534
:1045C0002F697076342F6970345F667261672E636D
:1045D0000000000073616E69747920636865636B25
:1045E000206C696E6B6564206C6973740000000058
:1045F000417373657274696F6E2022257322206681
:1046000061696C6564206174206C696E6520256445
:1046100020696E2025730A002DE9F04705460F46F4
:10462000A9424FF0000405D1AB222EA33CA13FA02C
:10463000FEF726F8002F08D03868A84205D0AD2232
:1046400028A344A139A0FEF71BF86E684FF4803808
:104650007068818800291AD100681422686005F109
:1046600008017068FBF717FE01213046FFF716FAC4
:10467000304601F093F94045044605D3BC2219A306
:1046800039A12AA0FDF7FCFF304601F015FB6E684A
:1046900012E07068B1460668484601F07FF90444AC
:1046A000444505D3CC220FA32FA120A0FDF7E8FF9E
:1046B000A4B2484601F000FB002EEAD13946284654
:1046C000FFF74CFF304D2888A04205D2D22205A327
:1046D0002EA116A0FDF7D4FF2888001B28802046B5
:1046E000BDE8F0872E2E2F4D6964646C657761728A
:1046F00065732F54686972645F50617274792F4CCE
:104700007749502F7372632F636F72652F697076CC
:10471000342F6970345F667261672E630000000099
:104720007072657620213D20697072004173736557
:104730007274696F6E2022257322206661696C6530
:1047400064206174206C696E6520256420696E2088
:1047500025730A00707265762D3E6E657874203D73
:104760003D2069707200000070627566735F66724A
:10477000656564202B20636C656E203C3D2030789D
:104780006666666600000000C400002069705F7203
:10479000656173735F70627566636F756E74203EDA
:1047A0003D20636C656E00002DE9F0471D4F00242D
:1047B000894606460022134611467868154622E0CF
:1047C000D0F814C0D6F80C80C4450BD1D0F818C06E
:1047D000D6F81080C44505D1B0F80CC0B6F80480F6
:1047E000C44509D06D1C2AB190F81FC092F81F80F3
:1047F000C44501D802461946D0F800C0BCF1000FEC
:1048000000D0034660460028DAD11AB11046FFF7FF
:1048100003FF04444C4501DA012DCBDC2046BDE802
:10482000F0870000C4000020094870B500254468E6
:104830000BE0E07F20B1401EE0772546246804E0CD
:10484000204624682946FFF7E7FE002CF1D170BD11
:10485000C400002010B5040006D108A34FF42E7246
:1048600015A118A0FDF70CFF606908B101F024FA4A
:104870002046BDE81040FFF7F9BC00002E2E2F4D5A
:104880006964646C6577617265732F5468697264DA
:104890005F50617274792F4C7749502F7372632F78
:1048A000636F72652F697076342F6970345F66723A
:1048B00061672E630000000070637220213D204E6E
:1048C000554C4C00417373657274696F6E202225DC
:1048D0007322206661696C6564206174206C696E66
:1048E0006520256420696E2025730A00FEB5374DCA
:1048F000012204463649002000908023C5E90012B9
:104900002882E1268DF80400D1058DF8053001AA32
:104910008DF806608DF808008DF807008DF8090005
:10492000C5E90520C5E907012846FBF7ADFE28B912
:1049300094F82B0040F0040084F82B00254A04234F
:1049400025492248FBF71EFE234A04231F488032D4
:10495000A2F58071FBF7DCFD062184F8241069695B
:1049600040F2DC50097884F825106969497884F8A8
:1049700026106969897884F827106969C97884F8EC
:1049800028106969097984F829106969497984F8D6
:104990002A10608494F82B0040F00A0084F82B0061
:1049A0000A48FCF720F809481D216A46FBF7D8FFA2
:1049B00000981D2140F00B0204480092FCF7DEF83D
:1049C00002481D216A46FBF7CBFFFEBD24360020BE
:1049D00000800240541E0020040600202DE9F84FFC
:1049E0000020044600902D48FBF70EFE10B1002079
:1049F000BDE8F88F2948818FD0F840900904090C50
:104A000031D00322042000F003FD009058B3234866
:104A100040F2F45B009DD0F8308000276E8913E0EF
:104A20006B68A4F2F4504242D81909EB0401FBF779
:104A300032FCD8F80C003F1B0024AAF2F456804642
:104A4000D0F8089007F2F45706EB040ADA45E7D8E5
:104A50006A6809EB0401D0193246FBF71CFC2D688B
:104A60003444002DD9D10D480022016B05E00B68BC
:104A700043F000430B60C968521C836B9342F6D825
:104A800000218163006800F580504269120602D55A
:104A90008022426181600098AAE70000243600204D
:104AA0002DE9F05F29484FF0000B0D465C46C66AC1
:104AB000D6F808A035E03068002811DB6F894FF088
:104AC00000081DE06B68A4F2F45042420AEB0400B7
:104AD00003EB0801FBF7DFFBF6683068002802DA19
:104AE0006FF0070024E0D6F808A0A8EB0401ABEBB8
:104AF000040001F2F4580024A9F2F45700F2F45B28
:104B000040F2F45107EB04098945DBD86A680AEBE7
:104B1000040002EB08013A46FBF7BDFB2D683C445C
:104B2000BB44002DC7D109485946FBF79EFF002022
:104B30000649096801F580514A69920603D5202388
:104B40004B6100224A60BDE8F09F0000243600203F
:104B500000BA704740BA704710B500F0C7F800F0CF
:104B6000F1FA00F0D9FB04F0B9FE02F029F9BDE832
:104B7000104001F09FBC00001249C0241248A82533
:104B80000023A0260C70FF224D7001278B70CE7081
:104B90000E49027042708270C3700C704D708F703D
:104BA000CE70FCF729F9FDF7A9F9FDF74BF8FDF7F1
:104BB0006FF9FDF785F9FDF7BDF800BFFDF75EF968
:104BC000FCE700000C000020100000201400002072
:104BD00070B5040032D0A00706D019A34FF4D672E6
:104BE00023A12CA0FDF74CFD344D2868844202D34C
:104BF0006868844206D312A34FF4D77230A125A06F
:104C0000FDF73EFD2868844218D36868844215D2B7
:104C100014F8040C083C30B909A34FF4E0722EA13B
:104C20001CA0FDF72DFD00202071A868844200D251
:104C3000AC602046BDE8704001F0B2BA70BD000023
:104C40002E2E2F4D6964646C6577617265732F54E5
:104C5000686972645F50617274792F4C7749502F84
:104C60007372632F636F72652F6D656D2E63000025
:104C70006D656D5F667265653A2073616E69747902
:104C800020636865636B20616C69676E6D656E7427
:104C900000000000417373657274696F6E202225F5
:104CA0007322206661696C6564206174206C696E92
:104CB0006520256420696E2025730A0028000020E5
:104CC0006D656D5F667265653A206C6567616C2025
:104CD0006D656D6F727900006D656D5F66726565FB
:104CE0003A206D656D2D3E75736564000A484FF47A
:104CF000C8630A4A20F0030030B510600024038026
:104D000000F5C86144800125047151600D710B806C
:104D10004B80906030BD00008736002028000020C6
:104D20002DE9F047002874D0C01C4FF6FC7100EA52
:104D300001040C2C4FF4C86901D20C2401E04C454D
:104D40006CD8374EC4F5C8633268B068811A89B22E
:104D500062E055182F79002F5DD12F887F1A083F08
:104D6000A74258D32F8804F114034FF0010C7F1A87
:104D7000083F9F4215D30B194FF0000808339FB22C
:104D8000D31983F80480B5F80080A3F80080598017
:104D90002F8085F804C01988494504D0931CCF5250
:104DA00001E085F804C0854213D1716801E00088F4
:104DB000104403790BB18842F9D18842B06008D021
:104DC000007930B117A340F2CF2222A128A0FDF72D
:104DD00057FC716828190830884206D911A340F29F
:104DE000D3222DA122A0FDF74BFCA8070FD00DA3C5
:104DF00040F2D52234A11EA0FDF742FC09A340F2E7
:104E0000D72200E005E03CA119A0FDF739FC05F12F
:104E10000800BDE8F087515A8B429AD80020F8E785
:104E2000280000202E2E2F4D6964646C6577617216
:104E300065732F54686972645F50617274792F4C86
:104E40007749502F7372632F636F72652F6D656D95
:104E50002E6300006D656D5F6D616C6C6F633A2051
:104E6000216C667265652D3E7573656400000000F7
:104E7000417373657274696F6E20222573222066F8
:104E800061696C6564206174206C696E65202564BD
:104E900020696E2025730A006D656D5F6D616C6C15
:104EA0006F633A20616C6C6F6361746564206D653B
:104EB0006D6F7279206E6F742061626F76652072FB
:104EC000616D5F656E642E006D656D5F6D616C6C0C
:104ED0006F633A20616C6C6F6361746564206D650B
:104EE0006D6F72792070726F7065726C7920616C71
:104EF00069676E65642E00006D656D5F6D616C6C39
:104F00006F633A2073616E69747920636865636BBF
:104F100020616C69676E6D656E7400002DE9F04765
:104F2000C91C05464FF6FC7001EA00040C2C4FF436
:104F3000C86901D20C2401E04C4528D8354F3868A7
:104F4000854202D37868854206D333A340F2F31238
:104F50003DA143A0FDF794FB386885423FD37968B3
:104F60008D423CD2A5F10806BA46311A8FB230887C
:104F7000C01B08381FFA80F8444506D926A340F222
:104F8000062241A136A0FDF77BFB444503D94FF033
:104F90000000BDE8F08722D032885046DAF80010D1
:104FA0004FF0000302EB010C9CF80420CAB104F19D
:104FB0001402424513D83A19D0F808C0083294B206
:104FC0000A19624501D2CAF808201371308810808E
:104FD000578034801088484501D0891C44522846A7
:104FE000D7E73A19D0F808800832BCF8004092B2EE
:104FF000E04503D101EB020CCAF808C08818037120
:1050000004804780328000884845E8D0891C42529D
:10501000E5E70000280000202E2E2F4D6964646C07
:105020006577617265732F54686972645F5061724D
:1050300074792F4C7749502F7372632F636F7265A9
:105040002F6D656D2E6300006D656D5F7472696D07
:105050003A206C6567616C206D656D6F7279000038
:10506000417373657274696F6E2022257322206606
:1050700061696C6564206174206C696E65202564CB
:1050800020696E2025730A006D656D5F7472696D0D
:105090002063616E206F6E6C7920736872696E6B2D
:1050A000206D656D6F727900092806D307A340F261
:1050B000DB1212A118A0FDF7E3BA002904D0204AA0
:1050C00052F82000FDF7F6BB704700002E2E2F4D42
:1050D0006964646C6577617265732F546869726482
:1050E0005F50617274792F4C7749502F7372632F20
:1050F000636F72652F6D656D702E63006D656D70E9
:105100005F667265653A2074797065203C204D4574
:105110004D505F4D41580000417373657274696F63
:105120006E2022257322206661696C65642061749B
:10513000206C696E6520256420696E2025730A0045
:10514000409B000830B5064D5FF0000455F8240080
:1051500000F008F8641CA4B2092CF7D330BD00009D
:10516000409B00088268002111600A464168C91C02
:1051700021F0030107E08368521C1B680B60836801
:1051800019600388194443889342F4DC7047000097
:1051900010B5092808D308A340F2871212A11AA05B
:1051A000FDF76EFA002010BD214951F82000BDE83E
:1051B0001040FDF7CDBB00002E2E2F4D6964646CAE
:1051C0006577617265732F54686972645F506172AC
:1051D00074792F4C7749502F7372632F636F726508
:1051E0002F6D656D702E63006D656D705F6D616C08
:1051F0006C6F633A2074797065203C204D454D50AA
:105200005F4D415800000000417373657274696F0F
:105210006E2022257322206661696C6564206174AA
:10522000206C696E6520256420696E2025730A0054
:10523000409B00082DE9F05FDDE90B67DDF8288071
:105240009946002E92468B46044605D1FB2214A3B4
:1052500020A126A0FDF714FA00206060A0600321C1
:105260002C4D4B46E060524684F82B0084F8201009
:10527000C4F81C80287884F82E00411C29705946F7
:105280002046276100F056F82046B04710B10020B4
:10529000BDE8F09F6868206020466C60F8E7000079
:1052A0002E2E2F4D6964646C6577617265732F547F
:1052B000686972645F50617274792F4C7749502F1E
:1052C0007372632F636F72652F6E657469662E63E8
:1052D000000000004E6F20696E69742066756E6371
:1052E00074696F6E20676976656E0000417373653F
:1052F0007274696F6E2022257322206661696C6565
:1053000064206174206C696E6520256420696E20BC
:1053100025730A00580000207047C90709D041686A
:10532000002906D090F82B10090702D5011DFEF7C1
:1053300039B870472DE9F0410C001E460546174666
:105340000FD0206868B11146284600F04FF831466A
:10535000284600F026F821462846BDE8F04100F036
:1053600025B8284600F022F83946284600F03EF8D5
:1053700031462846BDE8F04100F013B80149886085
:10538000704700005800002090F82B10CA0707D083
:1053900021F0010180F82B100A0701D5FDF72ABB87
:1053A000704701B10968C1607047000038B50C0052
:1053B000054601D0206801E00B480068009069684C
:1053C00088420ED0281D694602F070F9281D6946F2
:1053D00004F054FB34B12068012168602846FFF7CF
:1053E0009CFF38BD0020F7E7D09B000801B1096899
:1053F0008160704790F82B10CA0708D141F0010175
:1054000080F82B104A0702D50321FFF786BF7047AB
:105410002DE9F84F052816460F461FD2DFE800F0A9
:10542000030507090900362504E0222502E00E25C0
:1054300000E000254FF00109002E4FF000087DD05C
:10544000012E7CD0022EFCD0032E0CD068A34FF48A
:10545000C67273A179A0FDF713F9C6E064A34FF4F7
:105460008B7280A1F6E70820FFF792FEDFF810B2FA
:10547000040038D060192673133020F003018A0726
:10548000C4E9008106D05AA34FF494727DA16BA0A9
:10549000FDF7F6F8ED1C278125F00300C0F5147028
:1054A000B84200D93846626804F5187100916081ED
:1054B0001044884206D94EA34FF497727DA15FA095
:1054C000FDF7DEF89420B0EB950F06D148A340F22B
:1054D000311285A159A0FDF7D3F86189A246A4F83D
:1054E0000E907F1A42E08BF800907EE00820FFF7D4
:1054F0004FFE05003DD02E734FF6FF7185F80D80ED
:105500008F42C5F80080CAF8005006DB38A34FF47C
:10551000A67282A149A0FDF7B3F8B8B228814FF472
:105520001471884200D30846688105F11001696052
:10553000880709D02EA340F2511201E01FE041E09C
:105540007BA13EA0FDF79CF860896168014400984A
:10555000814206D926A340F2531256A137A0FDF787
:105560008FF86989AA46A5F80E907F1A002FBDDC36
:1055700034E08BF80090204600F09EFB35E0F91CEB
:1055800005F1130020F0030021F00301084480B26C
:1055900081422AD8FFF7C4FB040026D06119278175
:1055A0001331678121F003018A07C4E9008184F87F
:1055B0000C8013D00EA34FF4BB7269A11FA0FDF79E
:1055C0005FF80BE00720FFF7E3FD04000DD0267322
:1055D0002781C4F804806781C4F800802046A4F8BD
:1055E0000E9084F80D80BDE8F88F0020FBE70000E6
:1055F0002E2E2F4D6964646C6577617265732F542C
:10560000686972645F50617274792F4C7749502FCA
:105610007372632F636F72652F706275662E6300FD
:10562000706275665F616C6C6F633A206572726F51
:105630006E656F75732074797065000041737365D2
:105640007274696F6E2022257322206661696C6511
:1056500064206174206C696E6520256420696E2069
:1056600025730A00706275665F616C6C6F633A2027
:105670006261642070627566206C617965720000F9
:1056800064000020706275665F616C6C6F633A2025
:105690007062756620702D3E7061796C6F61642058
:1056A00070726F7065726C7920616C69676E656489
:1056B00000000000636865636B20702D3E706179A7
:1056C0006C6F6164202B20702D3E6C656E20646FC2
:1056D0006573206E6F74206F766572666C6F7720CD
:1056E0007062756600000000504255465F504F4F93
:1056F0004C5F42554653495A45206D75737420627C
:105700006520626967676572207468616E204D4527
:105710004D5F414C49474E4D454E540072656D5F9B
:105720006C656E203C206D61785F7531365F74006A
:10573000706275665F616C6C6F633A20706275664B
:1057400020712D3E7061796C6F61642070726F7092
:1057500065726C7920616C69676E65640000000099
:10576000706275665F616C6C6F633A20706275661B
:105770002D3E7061796C6F61642070726F7065721C
:105780006C7920616C69676E6564000070B5DDE955
:105790000445052813D2DFE800F0030507090900D6
:1057A000362004E0222002E00E2000E00020C01C91
:1057B00020F003004618AE4209D9002070BD0CA3AA
:1057C00040F2C51216A11FA0FCF75AFFF5E700250D
:1057D0001D6014B12044586000E05D600220198112
:1057E000598101211A7358731846D98170BD000080
:1057F0002E2E2F4D6964646C6577617265732F542A
:10580000686972645F50617274792F4C7749502FC8
:105810007372632F636F72652F706275662E6300FB
:10582000706275665F616C6C6F6365645F637573EE
:10583000746F6D3A206261642070627566206C61DD
:1058400079657200417373657274696F6E202225E9
:105850007322206661696C6564206174206C696ED6
:105860006520256420696E2025730A0070B50D46F9
:1058700008B1002D08D1BDE8704014A34FF4537255
:105880001EA12CA0FCF7FCBE0446006820B12989AB
:10589000228911442181F7E72089618988420FD04C
:1058A0000AA340F255322DA122A0FCF7E9FE2068A0
:1058B00030B106A340F2563234A11EA0FCF7E0FE40
:1058C0002089298908442081256070BD2E2E2F4D06
:1058D0006964646C6577617265732F54686972647A
:1058E0005F50617274792F4C7749502F7372632F18
:1058F000636F72652F706275662E630028682021C1
:105900003D204E554C4C2920262620287420213D30
:10591000204E554C4C29202870726F6772616D6D56
:1059200065722076696F6C617465732041504929F6
:1059300000000000417373657274696F6E20222548
:105940007322206661696C6564206174206C696EE5
:105950006520256420696E2025730A00702D3E7431
:105960006F745F6C656E203D3D20702D3E6C656EE2
:1059700020286F66206C61737420706275662069E0
:105980006E20636861696E2900000000702D3E6E14
:10599000657874203D3D204E554C4C00002102E0BE
:1059A0000068491C89B20028FAD1084670470000F7
:1059B0002DE9F0474FF000070C4605003E466FF01A
:1059C0000F0904D01CB128892189884204D235A34B
:1059D0004FF46F723FA14AE06FF0050A6889618950
:1059E000C01B891B884201DB88B200E080B261687D
:1059F00080466868314442463844FAF74CFC69896D
:105A000007EB080297B206EB080086B2B94206D24D
:105A100024A340F2CD323BA140A0FCF731FE6089C7
:105A2000B04206D21FA340F2CE3246A13BA0FCF703
:105A300027FE6089B04201D8246800266889B842F0
:105A400002D12D68002765B1002C16D0608921890C
:105A5000884212D1206800280FD012A340F2DD3214
:105A600015E0002C1BD00FA34FF476723CA12BA0A5
:105A7000FCF706FE4846BDE8F08775B168892989BC
:105A800088420AD1286840B106A340F2E23238A128
:105A900022A0FCF7F5FD5046EDE7002C9ED100203A
:105AA000E9E700002E2E2F4D6964646C6577617202
:105AB00065732F54686972645F50617274792F4CFA
:105AC0007749502F7372632F636F72652F70627501
:105AD000662E6300706275665F636F70793A20743A
