:020000040800F2
:1000000030CB0020F10200084F2E0008752C0008AC
:100010004D2E00080F1300080933000800000000EF
:10002000000000000000000000000000532E000847
:100030001113000800000000512E0008552E000882
:100040000B0300080B0300080B0300080B03000858
:100050000B0300080B0300080B0300080B03000848
:100060000B0300080B0300080B0300080B03000838
:100070000B0300080B0300080B0300080B03000828
:100080000B0300080B0300080B0300080B03000818
:100090000B0300080B0300080B0300080B03000808
:1000A0000B0300080B0300080B0300080B030008F8
:1000B0000B0300080B0300080B0300080B030008E8
:1000C0000B0300080B0300080B0300080B030008D8
:1000D0000B0300080B0300080B0300080B030008C8
:1000E0000B0300080B0300080B0300080B030008B8
:1000F0000B0300080B0300080B0300080B030008A8
:100100000B0300080B0300080B0300080B03000897
:100110000B0300080B0300080B0300080B03000887
:100120000B0300080B0300080B0300080B03000877
:100130000B0300080B0300080B0300080B03000867
:100140000B0300080B0300080B0300080B03000857
:100150000B0300080B0300080B0300080B03000847
:100160000B0300080B0300080B0300080B03000837
:100170000B0300080B0300080B030008000000003D
:100180000B0300080B0300080B0300080B03000817
:100190000B0300080B0300080B0300080B03000807
:1001A0000B0300080B0300080B0300080B030008F7
:1001B0000B0300080B0300080B0300080B030008E7
:1001C0000B0300080B030008000000000B030008ED
:1001D0000B0300080B0300080B0300080B030008C7
:1001E0000B0300080B0300080B0300080B030008B7
:1001F0000B0300080B03000800F002F800F04EF8B3
:100200000AA090E8000C82448344AAF10107DA4571
:1002100001D100F043F8AFF2090EBAE80F0013F075
:10022000010F18BFFB1A43F0010318474CE400000C
:100230006CE40000103A24BF78C878C1FAD852079D
:1002400024BF30C830C144BF04680C607047000050
:100250000023002400250026103A28BF78C1FBD8CF
:10026000520728BF30C148BF0B607047642900F0B7
:100270004181732900F0E382002070471FB50EF022
:10028000A7F89DE8030000F037FE00F084F900F0C5
:100290003FFB1FBD10B500F0A4FB10BD00F007FC34
:1002A0001146FFF7EBFF06F096FE00F0F7FD03B4F2
:1002B000FFF7F0FF03BC00F099FF00000B49D1F8F5
:1002C00000C04A685CF8043B1068184442F8040B0C
:1002D0008C4528BFA1F1DC0C8A4228BFA1F1DC02C9
:1002E000C1F800C04A6020F000407047CC6900208F
:1002F0000948804709480047FEE7FEE7FEE7FEE7BA
:10030000FEE7FEE7FEE7FEE7FEE7FEE704480549F5
:10031000054A064B70470000FD2E0008F901000851
:10032000306B002030CB0020308B0020308B002041
:1003300053EA020C00F069802DE9F04B4FF0000603
:10034000002B1FBFB3FA83F503FA05F424FA05F670
:100350005E4012BF1643B2FA82F502FA05F4C5F107
:1003600020051EBF22FA05FC44EA0C04203556EA9B
:10037000044C4FEA144418BF641C4FF000084FF0BF
:100380000009904271EB030C39D3002919BFB1FA6F
:1003900081F701FA07F6B0FA80F700FA07F6C7F11D
:1003A00020071EBF20FA07FC46EA0C062037B6FBE2
:1003B000F4FCA7EB0507103F07F01F0BCBF120065D
:1003C0000CFA0BFB2CFA06F644BFB3460026202F8E
:1003D000A4BF5E464FF0000B5BEA060C08BF4FF06F
:1003E000010B19EB0B09ABFB027C48EB0608C01BA9
:1003F00006FB02CC0BFB03CC71EB0C01C1E70B46F7
:10040000024641464846BDE8F08B13B54FF0000068
:100410004FF00001AFF30080BDE81C4070470000C2
:100420000FB4044910B503AA029800F00DFA10BCED
:100430005DF814FB286A00202DE9F0410E460446C1
:10044000002020622046E168884730B3252805D087
:10045000D4E901219047206A401CF2E7E168204678
:1004600000278847050018D0A5F14100192802D8B7
:1004700020354FF400673246294620462760FFF7B3
:10048000F5FE40B1012804D0F61D26F00706083617
:10049000D8E7361DD6E72846DAE7206ABDE8F081BE
:1004A00070B50C460546012A05D02878800600D58F
:1004B000EA69002302E0012305E05B1C934202D2BB
:1004C000E05C0028F9D1A869E618C01AA861286A7A
:1004D000184428622846AFF3008004E0D5E90121E2
:1004E00014F8010B9047B442F8D32846AFF30080CC
:1004F00070BD00002DE9F041064600241068752902
:10050000314616A510D0AFF30080002802DA404231
:1005100013A507E031688A0701D512A502E0490753
:1005200004D511A5012401E0AFF3008000210A22C7
:1005300006F1240709E0B0FBF2FCB0FBF2F302FB8A
:100540001C00303078541846491C0028F3D123464B
:100550002A463046BDE8F04100F006B90000000030
:100560002D0000002B000000200000000B4910B5FA
:10057000A1F17C020A4CC2E93712372106E000EBF8
:10058000104342F82130074B00FB03400B1EA1F142
:100590000101F4DC10BD0120E8E700006C690020D7
:1005A000E119D666CD0D010040EA010310B59B07A5
:1005B0000FD1042A0DD310C808C9121F9C42F8D0CD
:1005C00020BA19BA884201D9012010BD4FF0FF307E
:1005D00010BD1AB1D30703D0521C07E0002010BD94
:1005E00010F8013B11F8014B1B1B07D110F8013B20
:1005F00011F8014B1B1B01D1921EF1D1184610BD01
:1006000010B5431C02E010F8011B71B18107FAD14B
:100610004FF0013202C88C1A8C4314EAC211F9D08F
:10062000C01A0A0603D0C01E10BDC01A10BD0A04AD
:1006300001D0801E10BD0902FCD0401E10BD032A4F
:1006400040F2308010F0030C00F0158011F8013BEF
:10065000BCF1020F624498BF11F801CB00F8013BD6
:1006600038BF11F8013BA2F1040298BF00F801CB9A
:1006700038BF00F8013B11F0030300F0F780083A9F
:10068000C0F0088051F8043B083A51F804CBA0E8C8
:100690000810F5E7121D5CBF51F8043B40F8043B1D
:1006A000AFF30080D20724BF11F8013B11F801CB52
:1006B00048BF11F8012B24BF00F8013B00F801CB23
:1006C00048BF00F8012B70474FF000020429C0F02A
:1006D000128010F0030C00F01B80CCF1040CBCF174
:1006E000020F18BF00F8012BA8BF20F8022BA1EBC6
:1006F0000C0100F00DB85FEAC17C24BF00F8012BAB
:1007000000F8012B48BF00F8012B70474FF00002A2
:1007100000B5134694469646203922BFA0E80C50F7
:10072000A0E80C50B1F12001BFF4F7AF090728BFD2
:10073000A0E80C5048BF0CC05DF804EB890028BF4E
:1007400040F8042B08BF704748BF20F8022B11F077
:10075000804F18BF00F8012B7047704770477047F3
:1007600000487047D06A00202DE9F0470D469946B1
:100770009246044600F124080168880604D5E06921
:1007800021F01001216000E00120A84201DD471B9B
:1007900000E00027A1697A1902EB0900081AA0619C
:1007A0002078C00602D42046AFF30080002608E07F
:1007B000D4E901211AF806009047206A401C761CF3
:1007C00020624E45F4DB2078C0060AD52046AFF300
:1007D000008006E0D4E9012130209047206A401CC7
:1007E0002062381EA7F10107F4DC07E0D4E90121FB
:1007F00018F805009047206A401C2062281EA5F1C9
:100800000105F3DC2046AFF300802078000602D516
:100810000220BDE8F0870120FBE710B5436913B162
:10082000AFF3008001E0FFF73BFE012010BD12781E
:1008300000F124010A7000224A700122EDE71168DC
:100840004FF0FF32E9E70000074B70B50D467B44DF
:1008500000F047F80446284600F056F810B14FF073
:10086000FF3070BD204670BD4352000010B5203AE5
:10087000C0F00B80B1E81850203AA0E81850B1E859
:100880001850A0E81850BFF4F5AF5FEA027C24BF0F
:10089000B1E81850A0E8185044BF18C918C0BDE806
:1008A00010405FEA827C24BF51F8043B40F8043BCF
:1008B00008BF7047D20728BF31F8023B48BF11F884
:1008C000012B28BF20F8023B48BF00F8012B7047DE
:1008D00000487047D06A002001694A1C026108780C
:1008E000704700B58FB0CDE9013100210591054970
:1008F0007944CDE9031011466846FFF79DFD0FB01E
:1009000000BD0000E5FFFFFF007B00F080007047A6
:1009100010B542485421FFF7F9FE41485421FFF732
:10092000F5FE40485421FFF7F1FE3F493B483C4A61
:100930003F4B08603D490A603A491960531C036502
:10094000481C1065012008653B48344A39A17844A9
:1009500000F008FA20B9384878440A3800F0A7FABD
:1009600037482F4A35A1784400F0FCF920B93448C3
:1009700078440A3800F09BFA32482A4A2FA178447A
:1009800000F0F0F920B92F4878440A3800F08FFAC7
:1009900040232248DC000021224600F0BFF920B1AC
:1009A00025487844543800F082FA1D4822464023F6
:1009B000002100F0B3F920B121487844543800F008
:1009C00076FA184822461023002100F0A7F90028E3
:1009D00006D01C487844BDE81040563800F067BA8D
:1009E00010BD104870B5006D20F001040B4800F0F8
:1009F0002FFA0B4800F02CFA0A4800F029FA09E017
:100A0000206D20F00105204600F022FA204600F07B
:100A100073F82C46002CF3D170BD0000D46900207F
:100A2000286A00207C6A0020D4000020D800002022
:100A3000DC00002072000000C2DB00007700000034
:100A4000AEDB00009ADB00000EB5CDE90001FFF738
:100A5000D7FD029069460120ABBE0EBD08B56946C0
:100A600000900220ABBE08BD1FB58DE807006946A7
:100A70000520ABBE04B010BD1FB58DE80F00694660
:100A80000620ABBEF6E708B5694600900920ABBE6C
:100A900008BD1CB5CDE9000169460A20ABBE1CBDEE
:100AA000704708B5694600900C20ABBE08BD75467E
:100AB000FFF70EFFAE4605006946534620F00700DB
:100AC000854618B020B5FFF721FCBDE820404FF067
:100AD00000064FF000074FF000084FF0000B21F028
:100AE0000701AC46ACE8C009ACE8C009ACE8C009F5
:100AF000ACE8C0098D46704770B50446051F00F08C
:100B0000DFF90068002C14BF446870BD002C18BFCA
:100B1000AC423CBF20466468F8D301680A18AA4278
:100B200018BF456003D12A68054611440160286852
:100B30004119A1421CBF6C6070BD61686960216889
:100B40000844286070BD2DE9F04705460C46C8688A
:100B500020F4201040F48000C860800602D50846CA
:100B600000F0FBFAE06841F282014FF0FF390140EA
:100B7000022903D0204600F099FAB5E000F42041A4
:100B8000B1F5004F0FD1C00306D56168E06A884215
:100B900000D80846606006E02069E0626060606935
:100BA000FFF77FFFA061A0680022EEB200280DDAF7
:100BB000E1688B050AD4C043A06041F49030226004
:100BC000E0606068411C61600670A5E0E0689046E6
:100BD000226040F40050E060206968BB6069FFF764
:100BE00052FF012704F12405A0B1A08910F4407F31
:100BF00008D0E06900F0AFF9206118B1E06840F476
:100C0000006016E0E7612561E06820F4407040F480
:100C100080600EE0E06900F09EF900282061F1D0CC
:100C2000E06840F4006010F4407FE06002D140F4DE
:100C30008070E06020696060E06825696FF0010AFB
:100C4000C1051FD56168E06A884200D80846411B8B
:100C500004D02246284600F033FAF0BBE0680102D7
:100C600003D5E562C4E9015854E0691CE1626160A2
:100C7000E16940F48030491EC4E9021030462E700C
:100C8000BDE8F087010202D500F480320AE0606816
:100C9000411C61600670E0680A2E40F48030E0601C
:100CA00006D00022E16A6068814203D90B4602E067
:100CB0000122F7E70346A7895B1B7F0503D4E76999
:100CC0009F4200DDE2B1814200D80146E5620F1A81
:100CD000C4E90158002B09DD00E005E02246194671
:100CE000284600F0EDF908B14846C9E747B1A069C8
:100CF000E5626560C01BA061E06840F01000E06044
:100D0000E068000208D56168A069E562491B0844F3
:100D10006560A0615046B3E73046B1E770B5C4687E
:100D2000A50713D0650211D4B2F5807F09D0B2F5C2
:100D3000007F06D0B2F5806F08D1012300F12401B5
:100D400006E05D1E6FF07F46B54201D3012070BD05
:100D50000161C361416024F470611143C1600020EE
:100D600070BD00002DE9F0410C46074616461046BE
:100D700000F06EF82078611C61280AD0722802D039
:100D800077283CD102E00125002405E00225042457
:100D900002E0082448F2020511F8010B2B2806D0C6
:100DA000622809D011F8010C74280AD00BE045F034
:100DB000030544F00204EFE745F0040544F00104A4
:100DC000EAE744F0100438462146FFF73DFE411C97
:100DD00015D00021316171604FF40071F560F1614F
:100DE0007061200704D530460222002100F0E2F8AD
:100DF000306D40F0010030653046BDE8F0810020E4
:100E0000FBE72DE9F0410D460646104C206DC10769
:100E100004D0410804D020F00104F7E722460EE098
:100E2000542000F098F807000ED0206D47F0010123
:100E30000843542120653846FFF768FC3A462946A6
:100E40003046BDE8F0418DE70020D6E7D4690020A8
:100E50002DE9F04704464FF000094FF0FF37C56811
:100E6000D4E90486A80707D0204600F053F930469D
:100E7000FFF7F4FD002802DA3846BDE8F0872805C0
:100E800002D54046FFF738FE4C212046FFF73EFCD6
:100E9000206D20F0010020654846EEE710B50446BD
:100EA000AFF300802046BDE81040FFF700BA10B550
:100EB00000F07AF9BDE8104000F070B9704700000A
:100EC00000487047D86A00207047704770477047E5
:100ED00038B504460A4600206946AFF30080002872
:100EE00008BF38BD02460099204600F08CF9012069
:100EF00038BD012000F072B9F8B5AFF300800546A7
:100F000000200C46102000BF0646A819A0420DD9AB
:100F1000324669460020AFF30080070008BF00F0AA
:100F20005DF90098A04218BF0546C419FFF7C8FF35
:100F300005600746F01D20F007004619284600F01E
:100F40005BF9B44208BFF8BDA21B31463868BDE862
:100F5000F84000F058B970B50646FFF7B1FF0568D4
:100F600006F10B0020F00704B4429CBF002070BDC6
:100F70002B466A68BAB11068A04210D304F1080188
:100F800088423CBF5068586007D3516810194160CF
:100F90001168091B016058601460101D70BD134674
:100FA0005268002AE7D121462846FFF791FF002822
:100FB000DED170BD2DE9F041044616460D46476965
:100FC000007B80072ED03846FFF75DFD50BB3EB357
:100FD000012E02D0022E25D104E0204600F02DF98A
:100FE00005441DE03846FFF75CFDE168002841F04C
:100FF0001001E16005DA204600F058F80120BDE854
:10100000F081C9030BD56268E16A914200D81146AC
:10101000A26911442269891A814200DD084605440B
:10102000002D01DA0220EAE7E16A6068E2688142A5
:1010300006D29103E06203D522F4003141F01002A0
:10104000A6690027AE4213DCE16A814201D90B4652
:1010500000E0034603EB060C2369ACEB030CAC4544
:1010600006DD814201D98C4600E084469C4505D1CD
:10107000A760276042F02000A5620DE0AD1BE66985
:10108000AE1B8142A66000D90846C01A281A20600B
:101090005819606022F0200003490840E0600020F9
:1010A00084F84870ABE70000BFCFD7FFC16821F4D8
:1010B000001141F08001C160002181600160704732
:1010C0002DE9F047814614460E464FF0FF3832486E
:1010D000D5685769054209D03846A169FFF7D9FCA0
:1010E000002811DB2C48C0430540E5602B46324602
:1010F00049463846FFF7B8FCA16920F00042B21A11
:1011000011440028A16103D02046FFF7CFFF4046DD
:10111000BDE8F08770B504460569C06A6168884219
:1011200000D80846E16821F42011E160C90312D516
:10113000A84208D02246411B2846FFF7C1FF10B144
:101140004FF0FF3070BD0020E562C4E90150E06857
:1011500020F48030E060002070BD10B50446C06807
:1011600020F02000E060A16AA06988420DD02046EE
:10117000FFF7D0FFE06820F4405040F01000E0603E
:10118000A06AA0612069E062606044F24001E0680A
:101190008843E06010BD000010000200002801D06C
:1011A00000F024B87047000010B5014602A000F01E
:1011B00065F8012010BD0000534947525452454480
:1011C0003A2052656469726563743A2063616E27E0
:1011D00074206F70656E3A200000000010B500F0BA
:1011E00067F8BDE81040FFF7D9BF0000014918209B
:1011F000ABBEFEE72600020000210160C0E901103D
:10120000704710207047034640688C46002818BF7E
:1012100088423CBF03464068F8D3186818448842A7
:1012200007D00CF1030020F00700001D411A521AEC
:101230000146081D0A60FFF75FBC10B50146C26891
:10124000900703D0900607D5886A0AE0FFF788FA6E
:1012500001210160881E10BD8B69486818440B6924
:10126000C01A91F848301BB191F84910401A10BDCE
:101270001103FCD50028FADD401E10BD70B50546EF
:101280000C460A2000E06D1C00F03AF835B12878D1
:101290000028F8D102E0641C00F032F814B1207884
:1012A0000028F8D1BDE870400A2000F029B80000FD
:1012B00010B5012805D0002103A0FFF7DFFF0120B2
:1012C00010BD09A1F8E7000053494752544D454D60
:1012D0003A204F7574206F662068656170206D65D7
:1012E0006D6F7279000000003A2048656170206DD2
:1012F000656D6F727920636F7272757074656400CA
:1013000008B569468DF800000320ABBE08BDFEE7B6
:10131000704738B50446006800F58050816941F493
:1013200080118161206800F5805080690090012063
:1013300000F0A0F82068009900F58050816138BD68
:101340002DE9F041044621B14FF40061C800C4E921
:101350000201E0690025002862D028462368D4E90C
:10136000021C3D4F40261A6841EA0C0101433A40F5
:1013700041F400701043186020680768012000F0F5
:1013800079F8206807602068466020684668012078
:1013900000F070F820684FF6417246602068856062
:1013A0002068C56021688869104040F0800088612D
:1013B00020688669012000F05DF820688661206859
:1013C000C5612068C569012000F054F82068234BEE
:1013D0002349C561206800F5805082691A40114395
:1013E0008161206800F580508569012000F042F895
:1013F00020681C4900F580508561206800F5805008
:101400000160206800F580500568012000F032F886
:10141000206800F580500560A069012803D009E02C
:101420004FF480609AE720680F4A00F58050C16948
:101430001143C16160690D4982880A648278C47869
:1014400045780378120443EA046042EA0522104317
:101450004864BDE8F08100000F8120FF233FDEF8E3
:10146000040020028020C1024000010000800240F0
:1014700072B6FEE770B5044600F058FD0546601CE4
:1014800002D004480078044400F050FD401BA04204
:10149000FAD370BD0C0000202DE9F047054690F806
:1014A00045000C4601287DD002214FF0010985F846
:1014B0004590002C85F8441077D094E80901E7683E
:1014C0001843D4E90423D5E9021648EA070840EA9C
:1014D0000800D4F82080084329681043626AD4E9E0
:1014E000067C18430B68304338433B4E40EA0C00FF
:1014F000A76A40EA080010433340384318430860A5
:10150000286806680120FFF7B5FF2868066004F127
:101510003401D4E90B03276C91E8061018432B68BB
:1015200011430843D4E9116240EA0C0038433043C8
:1015300010435860286846680120FFF79BFF286821
:101540004FF6417346602968E06C88602968206D19
:10155000C860B4F85460D4E91607216E2A6838438D
:1015600041EA064CD4E91976916940EA0C00384307
:101570001940304308439061286886690120FFF7CD
:1015800079FF28688661D4E91B012A680843D06185
:101590002868C4690120FFF76DFF2868C46114E062
:1015A00000E002E00220BDE8F0872968D5E90203E7
:1015B0000A68184322F490421043086028680468BF
:1015C0000120FFF757FF28680460002185F8449048
:1015D000084685F84510E6E70F8120FF2DE9F04326
:1015E00090F845400025012C0DD04FF0010980F8FE
:1015F0004590022644F2F45780F844605E1E4FF096
:10160000004C816217E00220BDE8F083C5EBC518ED
:1016100001EB451408EB480802EB8808C4F800C049
:10162000B542C4E9017804D204F12008C4F80C8062
:1016300000E0E1606D1C9D42E8D30368002403F5DF
:101640008053D96080F8449080F845402046DBE71D
:101650002DE9F04390F8454091460022012C09D035
:10166000C1620126022480F845605D1E80F8444076
:10167000E70422E00220BDE8F08300BFC2EBC21401
:1016800004EB440801EB421409EB880C2760C4F812
:1016900008C0D0F81CC0BCF1000F05D1D4F800C0C0
:1016A0004CF4400CC4F800C0AA4204D204F1200C4F
:1016B000C4F80CC000E0E160521C9A42DED302681C
:1016C000002302F58052116180F8446080F84530B3
:1016D0001846D0E710B590F84510012913D0012223
:1016E00080F84520022180F844100023816A0C68AC
:1016F000002C28DB0C68E40519D5846B641C84631A
:10170000012C02D002E0022010BD016341630C688D
:10171000C4F30D44241FC463046BA4680464C96843
:10172000816280F8442080F84530002010BD0C68AC
:10173000A40503D58263C0E90C1302E0846B641C2A
:101740008463C968816280F8442080F845300120B4
:1017500010BD00002DE9FC474FF000060400B14623
:10176000009603D094F8440018B107E00120BDE8CA
:10177000FC87204684F8456000F0E4F8674801687B
:1017800041F480410160006800F4804001906448A9
:10179000016821F4000101600168226A11430160BF
:1017A000206800F58050016841F00101016000F0FF
:1017B000BDFB4FF4FA77054609E000BF00F0B6FB29
:1017C000401BB84203D9032084F8440068E0206835
:1017D00000F580500068C007F0D12068006920F053
:1017E0001C0500F09BFF4F4A4F4902448A4202D237
:1017F00045F0080516E04D494D4A0144914202D298
:1018000045F00C050EE04B4A4B4902448A4209D38D
:101810004A4A4B491044884202D245F0040501E08F
:1018200045F010052068056100214FF40042204674
:1018300000F04CFA4FF00105B0BBFF20FFF71AFE95
:10184000606890B300F072FB804641F28837012156
:101850006A46204600F0EAF800F068FBA0EB0800BA
:10186000B84217D800984007F1D5002120464FF420
:10187000805200F02BFAB8B900F058FB80466A4657
:101880000121204600F0D2F800F050FBA0EB080048
:10189000B8420BD901212046FFF752FD84F844508D
:1018A000032084F8456062E724E018E00098800691
:1018B000E5D510216A46204600F0B8F8D0B9009866
:1018C000410703D54FF40061E16000E0E660800766
:1018D00001D5A66019E04FF48040A06015E0D4E97E
:1018E0000210C00840EA510082B22046002100F0F8
:1018F000EDF930B101212046FFF722FD84F8445074
:1019000034E740F6FF70FFF7B5FD49462046FFF784
:1019100017FD84F84450002029E7000044380240B5
:101920000438014000D3CEFEC0E1E40040F1E9FDFF
:1019300040787D0100796CFC005A6202001F0AFAAF
:1019400080F0FA02F0B587B0044614216846FEF72D
:10195000DDFE3049206888425AD12F48016841F0A5
:1019600000710160016801F000710591016841F0AA
:1019700080610160016801F080610591016841F0BA
:1019800000610160016801F000610591016841F0AA
:1019900004010160016801F004010591016841F052
:1019A00001010160016801F001010591016841F048
:1019B00002010160016801F002010591016841F036
:1019C00040010160006802240025694600F04000E3
:1019D000059003260B2732208DE8F1000F4800F018
:1019E000B3F9862069468DE8F1000D4800F0ACF9A6
:1019F00042F2010069468DE8F1000A4800F0A4F9BE
:101A00004FF4205069468DE8F100074800F09CF93A
:101A100007B0F0BD008002403038024000080240AC
:101A20000000024000040240001802402DE9F04787
:101A3000044690F84400914682281DD082224FF639
:101A4000FF7084F844204FF4F863226803EA8111A0
:101A5000258A136900EAC52003F01C0318430143DB
:101A600021F0020040F00105156100F05FFA012746
:101A700006464FF4803811E00220BDE8F08700BF31
:101A800000F054FA801B404506D3002084F84470CF
:101A900084F845000320F0E720680569E807EFD1E6
:101AA0002068406981B2C9F8001084F844700020B1
:101AB000E3E7F8B5044690F84500012839D0012540
:101AC00084F84550022084F844002068002601680C
:101AD00041F0080101602068006800902846FFF787
:101AE000C9FC2168009808602068016841F0040181
:101AF00001602068006800900120FFF7BBFC2168AE
:101B0000009808602046FFF704FC206800F580502C
:101B1000816941F400518161206800F5805081693C
:101B200041F00201816184F84450002084F845604E
:101B3000F8BD0220F8BDF8B5044690F8450001282C
:101B400039D0012584F84550022084F844002068EB
:101B500000F58050816921F400518161206800F511
:101B60008050816921F002018161206800260168AE
:101B700021F0040101602068006800900120FFF757
:101B800079FC2168009808602046FFF7C2FB2068B6
:101B9000016821F0080101602068006800900120C0
:101BA000FFF768FC21680098086084F84450002022
:101BB00084F84560F8BD0220F8BDF0B590F84520E6
:101BC0000023012A13D0012680F84560022280F804
:101BD00044204FF0000561B1C76A3A68002A0BDA69
:101BE000122180F8441080F845500120F0BD0220F9
:101BF000F0BD80F84460F6E740F2F454A1420BD9FE
:101C0000B1FBF4F204FB121CB1FBF4F2BCF1000FC7
:101C100000D0521C012A45D13A68C1F30C0142F0B0
:101C200040523A60C26A5160C16A0A6842F000429A
:101C30000A60C16AC968C16236E0D7F800C02CF0FA
:101C4000405CC7F800C033B9C76AD7F800C04CF091
:101C5000805CC7F800C0D0F82CC0571EBB42CCF83F
:101C6000044014D1C76AC2F1010ED7F800C0CEEB10
:101C7000CE1E4CF0005CC7F800C00EEB4E0ED0F844
:101C80002CC001EB8E07C7F30C07CCF80470C76AB1
:101C9000D7F800C04CF0004CC7F800C0C76A5B1C06
:101CA000FF68C7629342C8D3016801F580514A6951
:101CB000520705D504224A61016801F580514D6043
:101CC00080F8446080F845500020F0BD2DE9F041D7
:101CD000044690F8440042281ED042204FF6FF737D
:101CE00084F8440096B220684FF4F867258A07EA22
:101CF00081110269466103EAC520236802F01C02D3
:101D00001043014341F003051D6100F00FF9012765
:101D100006464FF4803811E00220BDE8F08100BF94
:101D200000F004F9801B404506D3002084F844707D
:101D300084F845000320F0E720680569E807EFD143
:101D400084F84470E9E700002DE9F84F00224FF0D5
:101D500001094FF0030A4FF00F0E00BF0B6809FA9C
:101D600002F42340A34270D14D68012D05D0022D0D
:101D700003D0112D01D0122D11D185685700CE68E6
:101D80000AFA07FC25EA0C05BE402E43866045682A
:101D90000E79A543C6F3001696402E434660C568EB
:101DA00056008F680AFA06F4A543B7402F43C76070
:101DB0004D68022D01D0122D12D1D5080F694FEABE
:101DC000427C00EB8505AB462D6A4FEADC6C0EFACF
:101DD0000CF807FA0CF725EA08052F43CBF820701A
:101DE0000D79076805F00305A743B5403D4305603D
:101DF0004C68E40074D53D4C256845F48045256069
:101E0000246822F00307960704F480440094384CB9
:101E1000360F2744D7F80848DFF8D8C00EFA06F581
:101E2000604524EA050401D100252EE0324DA84288
:101E300001D1012529E0314DA84201D1022524E03C
:101E40002F4DA84202D103251FE049E02D4DA842A5
:101E500001D1042519E02C4DA84201D1052514E03B
:101E60002A4DA84201D106250FE0294DA84201D1F3
:101E700007250AE0274DA84201D1082505E0264D97
:101E8000A84201D1092500E00A25B540234E25438B
:101E9000C7F808584D683468ED0324EA030400D5F8
:101EA0001C431E4D34602D1D4E682C68B60324EA79
:101EB000030400D51C43194E2C6008364D68346865
:101EC000ED0224EA030400D51C43144D34600C35A4
:101ED0004E682C68B60224EA030400D51C432C602B
:101EE000521C102AFFF43AAFBDE8F88F4438024084
:101EF000003001400000024000040240000802409F
:101F0000000C024000100240001402400018024081
:101F1000001C02400020024000240240003C01401E
:101F20000AB1816170470904FBE70000014880683D
:101F3000704700000C0000200248816802781144BC
:101F4000816070470C000020032010B500F060F89D
:101F5000002000F005F800F023F8002010BD00007C
:101F600070B50D4D04464FF47A700C4A297812680A
:101F7000B0FBF1F0B2FBF0F000F0F2FD48B9102C2C
:101F800007D200222146501E00F022F800206C608B
:101F900070BD012070BD00000C0000201800002062
:101FA0000A4808B5016841F080510160006800F0FE
:101FB000805000900548001D016841F48041016097
:101FC000006800F48040009008BD000040380240E6
:101FD0000E4BF0B41B680D46C3F30223C3F1070692
:101FE000042E00D90426191D072901D2002300E080
:101FF000DB1E012404FA06F19C40491E2940641EA0
:10200000994014402143F0BC01F07FB90CED00E091
:10201000064900F0070210B54FF6FF040868044BAC
:10202000204040EA02201843086010BD0CED00E09B
:102030000000FA051848F8B5016841F080510160C8
:102040000068164C00F080500090206840F480300A
:102050002060FFF76BFF4FF47A76054605E000BF7E
:10206000FFF764FF401BB0420FD86068C003F7D58C
:10207000206840F400302060FFF758FF054606E076
:10208000FFF754FF401BB04201D90320F8BD606840
:102090008003F5D50020F8BD4038024000700040B4
:1020A0000248016841F4807101607047007000408F
:1020B0002DE9F84F04460078DFF824944FF000062D
:1020C0003746C0070ED0D9F8001021F40001C9F836
:1020D0000010D9F80010626B1143C9F80010606B52
:1020E00000B90126FE4D2068843500030ED5E16B52
:1020F000286820F4401008432860E06BB0F5801F8A
:1021000001D010B102E0012600E0012720684FF461
:10211000800BC0020CD5216C286820F440000843D5
:102120002860206C584501D1012601E000B9012743
:102130002068C10100D50126800666D5E848383000
:10214000016841F0805101600068DFF898A300F059
:1021500080500090DAF8001041F48071CAF8001045
:10216000FFF7E4FE804605E0FFF7E0FEA0EB080085
:1021700064287DD8DAF80000C005F5D5DFF8608363
:1021800008F16808D8F8000010F440702AD0218EB9
:1021900001F44071814225D0D8F80010D8F8002011
:1021A00021F4407142F48032C8F80020D8F80020B1
:1021B00022F48032C8F80020C8F80010D8F80000D7
:1021C000C0070FD0FFF7B2FE824607E0FFF7AEFE72
:1021D000A0EB0A0141F288308142CAD8D8F8000049
:1021E0008007F3D5206BC0F3012103297ED0D9F8F5
:1021F000001021F4F811C9F80010228ED8F8001050
:10220000C2F30B021143C8F800102078C00607D5AE
:10221000286820F0807028602868A16B0843286037
:102220002188AF488830490405D5626E016821F4E1
:102230004031114301602188090405D5A26E01686F
:1022400021F44021114301602168C90305D5E26EE4
:10225000016821F44011114301602168890305D50B
:10226000226F016821F4400111430160217800E0F0
:1022700034E1490605D5626C016821F00301114380
:1022800001602178090605D5A26C016821F00C01D6
:10229000114301602188C90505D5E26C016821F070
:1022A0003001114301602188890505D5226D01683F
:1022B00021F0C001114301602188490505D5626DF7
:1022C000016821F44071114301602188090505D599
:1022D000A26D016821F44061114301602188C904A5
:1022E00007D5E26D016821F4405100E068E0114338
:1022F00001602188890405D5226E016821F44041DE
:10230000114301602168490205D5A26F016821F0DF
:1023100080611143016021684FF0006A890209D58C
:10232000E26F016821F0006111430160E16F5145E6
:1023300000D1012721680A0700D50127490305D5E7
:10234000626F016821F04071114301602168090248
:1023500006D5D4F88020016821F080511143016036
:102360002168490106D5D4F88420016821F0005184
:10237000114301602068000106D5D4F88810286850
:1023800020F00070084328602068C00006D5D4F80B
:102390008C10286820F0806008432860DFF848919E
:1023A000012E02D0206880017ED5D9F800004E466B
:1023B00020F08060C9F80000FFF7B8FD80460FE00C
:1023C0004A4AD9F80030104023F4F8120243C9F801
:1023D000002012E7FFF7AAFDA0EB080064287DD8D3
:1023E00030680001F6D421783D487C30C90712D00E
:1023F000616B81B9237A62680168D0F800C09201EC
:10240000C1F3014142EA0142CCF3036142EA0161B6
:1024100041EA0371016021680A0303D5E26BB2F55A
:10242000801F04D0C9021AD5216C594517D16368A1
:10243000016894F80CC002689B01C1F3014143EAB2
:102440000141C2F3027241EA0C6141EA027101608A
:102450002968626A21F01F01521E11432960216818
:10246000C90110D5238A62680168D0F800C09201C2
:10247000C1F3036142EA034242EA0162CCF3027112
:1024800042EA01710160216889010CD56168228AE4
:10249000237B94F808C0890141EA024141EA0361C3
:1024A00041EA0C71016000E011E03168B04641F092
:1024B00080613160FFF73AFD064604E0FFF736FD24
:1024C000801B64280AD8D8F800000001F6D5E7B3CD
:1024D000D9F800004E4620F0805009E07BE0000073
:1024E000083802400070004000380240FFFCFF0F37
:1024F000C9F80000FFF71AFD074604E0FFF716FDD4
:10250000C01B642867D83068C0438000F6D52168B6
:1025100035480A0301D5E26B1AB1C9021DD5216CF9
:10252000D9B963690168277E02689B01C1F3014143
:1025300043EA0143C2F3027143EA076242EA0171CE
:10254000016029686FF0FF0300E04BE0A26A21F40C
:10255000F85103EB0222114329602168890212D548
:10256000E16F51450FD1238C6269016807689201C0
:10257000C1F3036142EA034242EA0162C7F3027116
:1025800042EA017101602178090716D56169026884
:10259000D0F800C08B01277FC2F30362CCF3014166
:1025A00043EA014141EA026141EA0771016028689A
:1025B000E16A20F4403008432860306840F08050E1
:1025C0003060FFF7B3FC044608E000BFFFF7AEFC45
:1025D000001B642802D90320BDE8F88F3068C0438F
:1025E0008000F3D40020F7E7883802402DE9F04757
:1025F00005000F4663D0444E306800F00F00B8422B
:1026000009D2306820F00F0038433060306800F0A5
:102610000F00B84253D128683C4C810712D54007BF
:1026200003D5206840F4E05020602878000703D5E7
:10263000206840F460402060A968206820F0F00025
:10264000084320602878C0072AD0304968680839D4
:10265000012810D00968022810D0890700292EDA35
:10266000216821F0030101432160FFF75FFC8046F0
:1026700041F288390DE009688903EFE78901EDE748
:10268000FFF754FCA0EB0801494502D90320BDE83F
:10269000F0876868216801F00C01B1EB800FEFD181
:1026A000306800F00F00B8420BD9306820F00F00FE
:1026B00038433060306800F00F00B84201D001208C
:1026C000E5E72878400705D5E968206820F4E05060
:1026D000084320602878000706D52869216821F47E
:1026E000604141EAC000206000F03EF82168084ADD
:1026F000C1F30311515CC8400649086006480068F0
:10270000FFF72EFC0020C2E7003C024008380240E0
:10271000DAE30008180000201000002001480068DB
:102720007047000018000020044905480968006847
:10273000044AC1F38221515CC84070470838024006
:1027400018000020EAE30008044905480968006809
:10275000044AC1F34231515CC84070470838024016
:1027600018000020EAE30008154910B5154809686B
:1027700011F00C0213D04110042A0FD0082A0ED1F8
:102780000F4C241F2268236802F03F025B0207D52A
:102790002068C0F38810A0FB010106E0084610BDC8
:1027A0002168C1F38811A1FB00010023FDF7C0FDE2
:1027B0002168C1F30141491C4900B0FBF1F010BD93
:1027C000083802400024F4002DE9F84F04004FF0CF
:1027D00000076ED02078DFF87CA3AAF10408C007B8
:1027E000A8F104054CD0DAF800105046C1F381017D
:1027F000012908D00068C0F3810002280AD1D8F866
:102800000000400206D52868800339D5606800289A
:10281000DFD035E06068B0F5803F0BD010B1B0F587
:10282000A02F11D0286820F480302860286820F478
:10283000802002E0286840F480302860606890B111
:10284000FFF774FB06460AE0286840F48020286001
:10285000F0E700BFFFF76AFB801B642872D8286886
:102860008003F7D50CE0FFF761FB064605E000BFEB
:10287000FFF75CFB801B6428F0D828688003F7D43E
:102880002078800742D5DAF80010504611F00C0F7E
:1028900008D00068C0F3810002280BD1D8F80000EE
:1028A000400207D42868800718D5E068012800D1C5
:1028B00014E04AE1E0680028286817D040F00100E1
:1028C0002860FFF733FB064605E000BFFFF72EFB4D
:1028D000801B0228C2D828688007F7D5206929689C
:1028E00021F0F80141EAC00028600FE020F001006B
:1028F0002860FFF71BFB064605E000BFFFF716FB4D
:10290000801B02281ED828688007F7D4207800078B
:1029100029D5904861696C3000298146016812D040
:1029200041F001010160FFF701FB064605E000BF31
:10293000FFF7FCFA801B022804D8D9F800008007B2
:10294000F6D510E089E021F001010160FFF7EEFA11
:10295000064604E0FFF7EAFA801B02287DD8D9F882
:1029600000008007F6D4207840076BD5DFF8E491AB
:1029700009F13809D9F80000C0000BD4D9F80010CB
:1029800041F08051C9F80010D9F80000012700F08B
:102990008050009070480168C90512D401688346D0
:1029A00041F480710160FFF7C1FA064605E000BFFF
:1029B000FFF7BCFA801B64284FD8DBF80000C00585
:1029C000F6D5644EA068683601280AD008B10528FB
:1029D00011D0306820F001003060306820F0040031
:1029E00002E0306840F001003060A068A0B1FFF75D
:1029F0009DFA83460CE0306840F004003060F0E758
:102A0000FFF794FAA0EB0B0141F28830814268D8BD
:102A100030688007F4D50EE0FFF788FA834607E0B8
:102A2000FFF784FAA0EB0B0141F28830814258D8BD
:102A300030688007F4D42FB1D9F8001021F080510C
:102A4000C9F80010A069E0B3DAF80010C1F3810101
:102A500002294DD00228286800E042E020F0807072
:102A6000286003D0FFF762FA04463DE0FFF75EFA04
:102A7000064604E0FFF75AFA801B022831D828687E
:102A80008001F7D4D4E90921DFF8D0C0D4E90706E2
:102A900094F830304F0894F82C1030430CEB074476
:102AA00044EA8212104340EA016040EA0370C8F829
:102AB0000000286840F080702860FFF737FA04466D
:102AC00005E044E0FFF732FA001B022809D8286825
:102AD0008001F7D53BE000BFFFF728FA001B022872
:102AE00002D90320BDE8F88F28688001F4D42EE0D5
:102AF0000128D8F8000028D0E16900F480028A4259
:102B000023D1216A00F03F028A421ED1626A47F651
:102B1000C0710140B1EB821F17D1A16A4FF0FF32A3
:102B200000F4403302EB5101B3EB014F0DD194F8A7
:102B30002C1000F07062B2EB016F06D194F83010E7
:102B400000F0E040B0EB017F01D00120CAE7002097
:102B5000C8E7000008380240007000400000FFFF96
:102B6000401EB0F1807F10B501D3012010BD4FF0A1
:102B7000E02460610F21601700F0C7FB0020A06116
:102B80000721216110BD10B5040002D0A06F10B163
:102B900007E0012010BD002084F87400204600F0FA
:102BA00025F82420A0672068016821F00101016058
:102BB000204600F03DFA0128ECD0606A10B12046B2
:102BC00000F0A4F92068416821F490414160206838
:102BD000816821F02A0181602068016841F00101CB
:102BE00001602046BDE8104000F0F4B910B5AAB06D
:102BF0000446142124A8FDF789FD90216846FDF7BD
:102C000085FD1949206888422BD180150090002449
:102C100068461394FFF74CFA08B1FEF729FC1348F5
:102C2000016841F480210160006800F4802029904F
:102C30000E481038016841F00801016000680DF18C
:102C4000900C022100F0080029904FF440700723F7
:102C50008CE8130003220648CDE9272324A9FFF7B7
:102C600073F82AB010BD0000004800404038024010
:102C7000000C0240FEE700002DE9F04186B014216F
:102C80006846FDF743FD3E48016841F004010160DC
:102C9000016801F004010591016841F080010160C3
:102CA000016801F080010591016841F001010160B6
:102CB000016801F001010591016841F00201016024
:102CC000016801F002010591016841F0080101600D
:102CD000016801F008010591016841F040010160BF
:102CE00000684FF48146274F002200F04000314633
:102CF00005903846FFF714F9DFF88C800022402158
:102D00004046FFF70DF9214900244FF400508DE8AB
:102D100013001F486946FFF717F801250096CDE913
:102D20000154694638460394FFF70EF8402000909E
:102D3000CDE90154694640460394FFF705F8802029
:102D40006946CDE9000440460294FEF7FDFF0221EA
:102D5000104D4FF4E8500A238DE813000322694612
:102D6000CDE903232846FEF7EFFF68156946CDE954
:102D7000000428460294FEF7E7FF06B0BDE8F081A4
:102D800030380240000402400018024000001110D8
:102D900000080240000002400EB504F00DF9154B8A
:102DA0000020124A124918601B1D18601B1D186074
:102DB0008DE807001A1F1048111F04F0D3FC0E48BD
:102DC00004F0ECFE0C4890F8310040070A4802D5A8
:102DD00004F042FF01E004F0E7FE0849064804F071
:102DE00037FFBDE80E40044801F098BD9557000834
:102DF00031590008000000204C320020E55900083D
:102E0000034810B502F0DCFDBDE8104005F0CCBE73
:102E10004C3200200C48002110B50A4C0C224FF413
:102E2000E1330460C0E90131C160C0E9041281618D
:102E3000C16101624162FFF7A6FE002801D072B6AF
:102E4000FEE710BD00480040E0000020FEE7FEE77E
:102E500070477047FFF770B830B593B034216846BB
:102E6000FDF754FC14210DA8FDF750FCFFF718F9ED
:102E70002048016841F080510160006800F08050F6
:102E800012901D48016841F440410160006802242D
:102E9000D82500F44040129004200121030582034C
:102EA000CDE90805CDE90643CDE90A40CDE9001298
:102EB00068460C94FFF788FC08B172B6FEE7FFF78E
:102EC000B9F808B172B6FEE70FAD00214FF4A05279
:102ED0004FF4805385E80E000F20CDE90D04072143
:102EE0000DA8FFF783FB002801D072B6FEE713B0F0
:102EF00030BD0000403802400070004002480168C8
:102F000041F470010160704788ED00E090F82410F2
:102F1000C90706D00168836A4A6822F400321A435E
:102F20004A6090F82410890706D50168C36A4A6888
:102F300022F480321A434A6090F82410490706D5DB
:102F40000168036B4A6822F480221A434A6090F8B1
:102F50002410090706D50168436B4A6822F4004231
:102F60001A434A6090F82410C90606D50168836B9D
:102F70008A6822F480521A438A6090F824108906E5
:102F800006D50168C36B8A6822F400521A438A602E
:102F900090F82410490611D50168036C4A6822F4A0
:102FA00080121A434A60016CB1F5801F06D1016896
:102FB000436C4A6822F4C0021A434A6090F8241015
:102FC000090606D50168826C486820F40020104389
:102FD00048607047F8B500260446C0F88060FEF7E8
:102FE000A5FF054620686FF07E470068000708D5FA
:102FF00000222B464FF400112046009700F032F9D2
:1030000060B92068006840070AD500222B464FF4BB
:1030100080012046009700F025F908B10320F8BD93
:103020002020A067E0672666002084F87460F8BD61
:103030002DE9F04104460368C2698168D4E904506F
:10304000DFF8F4C17D4E29431F68002510437C4AF8
:10305000014307EA0C070F431F604FF4004021684B
:10306000E7684B6823F440533B434B602768A369F0
:10307000216AD7F808C019432CF430630B43BB60B6
:103080002168B1420AD1116811F0030152D001291F
:103090007CD0022971D003296ED184E0694B99421A
:1030A0000AD1116811F00C0167D0042965D00829F4
:1030B00075D00C2960D176E0634B99420AD1116832
:1030C00011F0300159D010296BD0202967D0302958
:1030D00052D168E05D4B99420AD1116811F0C001EC
:1030E0004BD040295DD0802959D0C02944D15AE025
:1030F000574B99420DD1116811F440713DD0B1F593
:10310000807F4ED0B1F5007F49D0B1F5407F33D1FB
:1031100049E0504B99420FD1116811F4406109D038
:10312000B1F5806F3DD0B1F5006F38D0B1F5406F8B
:1031300022D138E0012120E0474B99420DD111689E
:1031400011F4405119D0B1F5805F2AD0B1F5005F7C
:1031500025D0B1F5405F0FD125E0404B99420BD10E
:10316000116811F4404108D0B1F5804F19D0814267
:1031700015D0B1F5404F16D01021E369384A4FF60B
:10318000EF7683422FD109294BD201E009E006E016
:10319000DFE801F00B0E11471347474716000221E5
:1031A000EBE70421E9E70821E7E7FFF7BDFA06E0CE
:1031B000FFF7CAFA03E0104602E0FFF7D5FA88B33A
:1031C0006168400000EB5100B0FBF1F080B2A0F16B
:1031D0001001B14225D84FF6F0732168C0F34202C6
:1031E0001840104320E009291BD2DFE801F0050850
:1031F0000B1A0D1A1A1A1000FFF796FA06E0FFF7DD
:10320000A3FA03E0104602E0FFF7AEFA50B161689E
:1032100000EB5100B0FBF1F080B2A0F11001B1421F
:1032200001D9012501E02168C86000206066A06620
:103230002846BDE8F0810000F369FFEF001001406F
:10324000903802400044004000480040004C0040DC
:10325000005000400014014000780040007C004015
:103260000024F4002DE9F0479A4617460E4604461E
:10327000089D4FF000094FF0200839E0681C37D056
:10328000FEF754FEA0EB0A00A84222D80DB3206836
:10329000016849072CD5C069C043000528D42368BC
:1032A0004FF40061196221680B6823F4D0730B603E
:1032B00021688B6823F001038B60C4F87880C4F820
:1032C0007C80C4F8808000BF032084F87490BDE83F
:1032D000F08721680B6823F4D0730B6021688B683A
:1032E00023F001038B60C4F87880C4F87C80EBE79E
:1032F0002068C06936EA000004D00020B842BDD082
:103300000020E4E70120F9E7FEE7090700284FEA7B
:10331000116104DB00F1E02080F80014704700F038
:103320000F0000F1E02080F8141D704758B1426A88
:10333000002A0FD05379082B0CD10968D269914229
:1033400008D100F0C1BA04A340F28B3210A114A03E
:10335000FDF766B8704700002E2E2F4D6964646C2F
:103360006577617265732F54686972645F5061722A
:1033700074792F4C7749502F7372632F636F726586
:103380002F697076342F646863702E63000000002C
:103390006E6574696620213D204E554C4C0000003E
:1033A000417373657274696F6E20222573222066E3
:1033B00061696C6564206174206C696E65202564A8
:1033C00020696E2025730A002DE9FC41050018D004
:1033D0006C6ADCB1A16A00233C274FF00102481C53
:1033E0004FF6FF704FF48036638219D01E31B1FB67
:1033F000F7F1B14200D301460904090CA1820ED0B5
:103400000EE02DA340F2154239A103E02AA340F2B9
:1034100017423EA143A0FDF703F8BDE8FC81A2825C
:10342000E16AB1F1FF3F0CD01E31B1FBF7F1B142BF
:1034300000D301460904090C618100D162816189D0
:10344000E181216BB1F1FF3F0CD01E31B1FBF7F1EF
:10345000B14200D301460904090CA18100D1A28127
:10346000A18921826289A1898A4201D301B1638144
:10347000E17909B1206A08E0217F7F2901D8FF2086
:1034800003E0C02901D36FF07F400090606A019093
:1034900028B9E0690099084040F0807001900A2145
:1034A000204601F033FA01AB6A4604F11C012846BC
:1034B00004F044FBB1E700002E2E2F4D6964646CCC
:1034C0006577617265732F54686972645F506172C9
:1034D00074792F4C7749502F7372632F636F726525
:1034E0002F697076342F646863702E6300000000CB
:1034F000646863705F62696E643A206E65746966C1
:1035000020213D204E554C4C000000006468637043
:103510005F62696E643A206468637020213D204ECA
:10352000554C4C00417373657274696F6E2022258F
:103530007322206661696C6564206174206C696E19
:103540006520256420696E2025730A0070B5446AE1
:1035500008210546204601F0D9F90022284604F149
:103560001C0101F095FEA079FF2801D2401CA0713A
:103570004FF4FA7040F2E731B1FBF0F0208170BDFA
:10358000294870B504684CE0606AA0B3417991B3F2
:10359000818A69B1418A828A491C89B241829142F9
:1035A00006D1204600F0E8FF204601F0B7F937E0E9
:1035B000018A19B14A1E0282012906D0C189D1B1FE
:1035C0004A1EC281012917D02AE0656A204669791E
:1035D000012905D00A2903D0052901D004291FD1CA
:1035E00000F04EFEA88A698A401A022818DB00EB18
:1035F000D0704008288213E0656A20466979012965
:1036000003D00A2901D005290AD101F013F8A889AD
:10361000698A401A022803DB00EBD0704008E88179
:103620002468002CB0D170BD500000202DE9F04777
:103630000700994616460D461BD0002D1ED04FF4AC
:103640009A74362021464FF4207204F0B9FBB0F191
:1036500000081BD0B8F80A00A246504506D232A393
:1036600040F271723EA14EA0FCF7DAFE032E12D199
:103670000EE02DA340F2697253A103E02AA340F2A9
:103680006A7259A146A0FCF7CBFE0020BDE8F08786
:103690006879032808D1A8795B4C08B1606802E01A
:1036A000FCF70CFE606028605146D8F804402046C4
:1036B000FDF70AF801202070607097F83000A070C4
:1036C000286803F075FC082E60600AD0042E08D02C
:1036D000072E06D0032E06D16879052801D00428CC
:1036E00001D17868E06000203A182318411C92F854
:1036F0002A2088B206281A77F6D3444804F1F0014C
:10370000C4F8EC00012335220C46002000F062FAD8
:103710003246214600F0AAFAB9F1000F01D0A9F80B
:1037200000004046B2E700002E2E2F4D6964646C05
:103730006577617265732F54686972645F50617256
:1037400074792F4C7749502F7372632F636F7265B2
:103750002F697076342F646863702E630000000058
:10376000646863705F6372656174655F6D73673A07
:1037700020636865636B2074686174206669727386
:103780007420706275662063616E20686F6C6420BF
:1037900073747275637420646863705F6D7367001F
:1037A000417373657274696F6E20222573222066DF
:1037B00061696C6564206174206C696E65202564A4
:1037C00020696E2025730A00646863705F63726508
:1037D0006174655F6D73673A206E65746966202158
:1037E0003D204E554C4C0000646863705F63726509
:1037F0006174655F6D73673A206468637020213D72
:10380000204E554C4C000000B400002063825363EE
:1038100010B50B4C2078002805D1FF2209A317A171
:103820001FA0FCF7FDFD2078401E10F0FF00207067
:1038300004D1A0680AF0B0FB0020A06010BD000019
:10384000B40000202E2E2F4D6964646C6577617280
:1038500065732F54686972645F50617274792F4C7C
:103860007749502F7372632F636F72652F6970767B
:10387000342F646863702E63000000006468637016
:103880005F7063625F726566636F756E7428293A54
:1038900020726566636F756E74206572726F720058
:1038A000417373657274696F6E20222573222066DE
:1038B00061696C6564206174206C696E65202564A3
:1038C00020696E2025730A00FEB5446A0C21064665
:1038D000204601F01BF80422214602AB3046FFF7D8
:1038E000A5FE050028D069680423BDF8080032222F
:1038F000F0310F4600F06EF9ADF80800E06903F012
:1039000057FB0246BDF80800394600F00DFA2A467A
:103910003946ADF8080000F0D7FA0F4843230F4AA4
:103920002946CDE900600E4880680AF02DFC064665
:10393000284604F047FE01E04FF0FF36A079FF284B
:1039400001D2401CA0714FF4FA7142F60310B0FB93
:10395000F1F020813046FEBD0CE5000810E50008BE
:10396000B40000202DE9FE4F446A00210746894635
:103970002046E161062100F0C9FF0122214602AB89
:103980003846FFF753FE06003CD071680223BDF8AD
:1039900008003922F0318A46554600F01BF9ADF88F
:1039A000080029463A8D00F02BFA032329463722D6
:1039B000ADF8080000F00EF9DFF884800025ADF8BE
:1039C000080000BF18F805205146BDF8080000F0B7
:1039D0004DF96D1CADF80800EDB2032DF2D380B2A5
:1039E0003246514600F070FA16484323164A3146D3
:1039F000CDE900701248401E80680AF0C5FB3046D1
:103A000004F0E0FDA079FF2801D2401CA071C0B2F3
:103A1000062802D20121814000E03C214FF6FF70D0
:103A200001EB4102C2EBC1124FF4FA7100EAC2008D
:103A300000F2F310B0FBF1F020814846BDE8FE8FA4
:103A4000B50000200CE5000810E500080B4870B533
:103A5000002504680EE0606A58B10189012903D984
:103A6000A1F10101018104E003D10581204600F0AC
:103A7000F7FF2468002CEED170BD0000500000203C
:103A800070B5446A0022164D164E22626262E878D2
:103A900008B1F068A062287908B1306901E0A06A35
:103AA0004008E062687908B1706903E0A06AC0EB81
:103AB000C000C00820630869E061A87930B1B0692E
:103AC00003F076FA20620121E17100E0E271E87909
:103AD000002803D0F06903F06BFA606270BD00004B
:103AE000C0000020E067002010B5154C20780028A9
:103AF0001ED1A068002805D0E52212A31FA129A08D
:103B0000FCF78EFC0AF0F6F9A060B0B1417A4422CD
:103B100041F0200141722D4909F02EFF2B4943222B
:103B2000A06809F0C7FF2A490022A0680AF0F0F94E
:103B30002078401C2070002010BD4FF0FF3010BDD9
:103B4000B40000202E2E2F4D6964646C657761727D
:103B500065732F54686972645F50617274792F4C79
:103B60007749502F7372632F636F72652F69707678
:103B7000342F646863702E63000000006468637013
:103B80005F696E635F7063625F726566636F756EB7
:103B90007428293A206D656D6F7279206C65616BB0
:103BA00000000000417373657274696F6E202225F6
:103BB0007322206661696C6564206174206C696E93
:103BC0006520256420696E2025730A000CE5000835
:103BD000594400082DE9F0411D4604462844174683
:103BE000801C0E46442806D9154907A315A040F2AB
:103BF0009A52FCF715FC601C80B23755411C3554B5
:103C000088B2BDE8F08100002E2E2F4D6964646CEF
:103C10006577617265732F54686972645F50617271
:103C200074792F4C7749502F7372632F636F7265CD
:103C30002F697076342F646863702E630000000073
:103C4000F0E50008417373657274696F6E20222578
:103C50007322206661696C6564206174206C696EF2
:103C60006520256420696E2025730A0070B54428FC
:103C700015460E46044606D305A340F2A65212A1ED
:103C80001FA0FCF7CDFB601C80B2355570BD000055
:103C90002E2E2F4D6964646C6577617265732F54A5
:103CA000686972645F50617274792F4C7749502F44
:103CB0007372632F636F72652F697076342F646837
:103CC00063702E6300000000646863705F6F70743F
:103CD000696F6E5F627974653A206F7074696F6E98
:103CE000735F6F75745F6C656E203C204448435071
:103CF0005F4F5054494F4E535F4C454E00000000FB
:103D0000417373657274696F6E2022257322206679
:103D100061696C6564206174206C696E652025643E
:103D200020696E2025730A0070B505461446001DF3
:103D30000E46442806D90BA340F2B75217A126A07D
:103D4000FCF76EFB681C80B2210E220C7155431CDF
:103D5000325498B2210A421C315490B2411C34545E
:103D600088B270BD2E2E2F4D6964646C65776172C8
:103D700065732F54686972645F50617274792F4C57
:103D80007749502F7372632F636F72652F69707656
:103D9000342F646863702E630000000064686370F1
:103DA0005F6F7074696F6E5F6C6F6E673A206F70D3
:103DB00074696F6E735F6F75745F6C656E202B2016
:103DC00034203C3D20444843505F4F5054494F4EAF
:103DD000535F4C454E000000417373657274696F08
:103DE0006E2022257322206661696C6564206174EF
:103DF000206C696E6520256420696E2025730A0099
:103E000070B504461546801C0E46442806D907A303
:103E100040F2AE5213A122A0FCF702FB601C80B25C
:103E2000290A3155411C355488B270BD2E2E2F4DB4
:103E30006964646C6577617265732F546869726434
:103E40005F50617274792F4C7749502F7372632FD2
:103E5000636F72652F697076342F646863702E63A8
:103E600000000000646863705F6F7074696F6E5F5C
:103E700073686F72743A206F7074696F6E735F6FDE
:103E800075745F6C656E202B2032203C3D204448C9
:103E900043505F4F5054494F4E535F4C454E0000C6
:103EA000417373657274696F6E20222573222066D8
:103EB00061696C6564206174206C696E652025649D
:103EC00020696E2025730A0030B4FF23441C0B5474
:103ED0000023A0B2442802D2441C0B54F9E7F0306E
:103EE00081B2104630BC04F041BC00002DE9F04F17
:103EF000A34985B0824600200490C8600861BAF8E2
:103F00000A002C2819D3BAF8080001F10C074FF069
:103F1000F009564607E000BFA9EB01023668411AD6
:103F20001FFA82F988B246B171894A464945F3D9E8
:103F300071681446CDE90201FEE06FF0010005B0A2
:103F4000BDE8F08FA11C4FF0FF3589B20191A1426D
:103F5000F3D37389621C934203D9039921444978AE
:103F600003E0316809B1496809783428884634D0BB
:103F700007DC98B1012814D003281AD0332808D1BF
:103F800022E0352850D0362857D03A285DD03B283B
:103F900063D04FF00008002867D02DE0002188464C
:103FA000F9E7042903D077A340F22E6211E0062539
:103FB000F1E704294FF0040804D272A340F23362FF
:103FC0007EA1B2E00725E6E7042904D06DA340F204
:103FD00041627FA1A9E00325DDE7012903D069A3A0
:103FE00040F24F6225E0B9F1F00F04D065A340F232
:103FF00051627AA199E000256018801CB0F5803FDD
:104000009BD284B2B8F1000F7AD000200090082D26
:1040100006D35CA34FF4CF6276A17BA0FCF700FA35
:10402000785D002823D06BE0012904D055A340F22D
:1040300055627FA179E00125ADE7042903D051A3A2
:1040400040F25962C5E70225A5E7042903D04DA334
:1040500040F25D62BDE704259DE7042903D049A332
:1040600040F26162B5E7052595E794B248E0B8F102
:10407000040F404600D30420019B83460246694654
:10408000304604F011FA58457FF457AFB8F1040FE9
:104090001ED95FEA887004D03AA340F2816267A11A
:1040A00043E001207855009802F082FF694B0246F8
:1040B0000198A8F1040101F0FF08001D43F8252034
:1040C000019980B28842FFF438AF6D1C01909EE7E1
:1040D000B8F1040F07D0B8F1010F08D029A34FF4AD
:1040E000D2625DA121E0009802F062FF01E09DF83C
:1040F00000000090012078555648009940F825109E
:104100007089A04217D80299221A94B2081A80B274
:1041100002908442BFF411AF366816B17068039004
:104120000AE018A340F29D6250A137A0FCF778F98D
:104130006FF0050003E73EB10298844204D2039871
:10414000005DFF287FF4FEAE387848B14148002179
:104150000068397001280ED0022804D0032808D046
:1041600004980028E6D000204FF02C0904906C2021
:10417000CFE601200490EC204FF06C09C9E6000066
:10418000B40000202E2E2F4D6964646C6577617237
:1041900065732F54686972645F50617274792F4C33
:1041A0007749502F7372632F636F72652F69707632
:1041B000342F646863702E63000000006C656E200D
:1041C0003E3D206465636F64655F6C656E00000052
:1041D0006C656E203D3D2034000000006F766572F6
:1041E0006C6F616420696E2066696C652F736E6107
:1041F0006D650000636865636B206465636F64656B
:104200005F69647800000000417373657274696FC0
:104210006E2022257322206661696C6564206174BA
:10422000206C696E6520256420696E2025730A0064
:104230006C656E203D3D2031000000006465636FB9
:1042400064655F6C656E2025252034203D3D20305F
:1042500000000000E0670020696E76616C696420F0
:104260006465636F64655F6C656E00006E6578748D
:10427000207062756620776173206E756C6C00002B
:104280002DE9FC47446A04210746204600F03EFB26
:104290000322214601AB3846FFF7C8F906003BD0A0
:1042A00071680223BDF804003922F03189464D4679
:1042B000FFF790FCADF8040029463A8DFFF7A0FD0A
:1042C000032329463722ADF80400FFF783FCDFF80B
:1042D00080800025ADF804004946BDF8040018F8B8
:1042E0000520FFF7C3FC6D1CADF80400EDB2032DF3
:1042F000F2D380B232464946FFF7E6FD1448432325
:1043000000973146401E134A806809F09DFE05461D
:10431000304604F057F901E04FF0FF35A079FF284F
:1043200001D2401CA071C0B20A2804D24FF47A71A5
:1043300010FB01F001E042F2107080B24FF4FA710C
:1043400000F2F310B0FBF1F020812846BDE8FC87B5
:10435000B500002010E500082DE9FC47446A032160
:104360000746204600F0D2FA0322214601AB384628
:10437000FFF75CF906004FD071680223BDF8040016
:104380003922F03189464D46FFF724FC4FF4107274
:104390002946ADF80400FFF733FD042329463222F5
:1043A000ADF80400FFF716FCADF80400E06902F078
:1043B000FFFD0246BDF804002946FFF7B5FC0323C4
:1043C00029463722ADF80400FFF704FCDFF88080AF
:1043D0000025ADF8040000BF18F805204946BDF8D7
:1043E0000400FFF743FC6D1CADF80400EDB2032D93
:1043F000F2D380B232464946FFF766FD14484323A4
:1044000000973146401E134A806809F01DFE05469C
:10441000304604F0D7F801E04FF0FF35A079FF28CF
:1044200001D2401CA071C0B20A2804D24FF47A71A4
:1044300010FB01F001E042F2107080B24FF4FA710B
:1044400000F2F310B0FBF1F020812846BDE8FC87B4
:10445000B500002010E5000843482DE9F04144680C
:1044600016465168656A002D79D02879002876D0E3
:1044700070892C2873D30878022870D194F83020E2
:10448000002008E023180F1893F82A303F7FBB4222
:1044900065D1401CC0B2824201D90628F2D34868D7
:1044A00002F086FD2968884259D129463046FFF737
:1044B0001DFD08BB2D4A5078F0B12D497768087969
:1044C000052804D0062821D0022836D047E0687994
:1044D000012806D0032814D0042812D0052810D0B3
:1044E0003DE039462046FFF7CBFA94F8310000074B
:1044F00003D52046FFF72AF831E02046FEF764FF97
:104500002DE039462046FFF7BBFAF6E76879032825
:1045100005D0012803D0042801D005281FD1606AE6
:104520000C2100F0F3F9134B20461A46114603F014
:1045300005FB2046FFF716FA11E0687906280ED130
:1045400090782546646A50B100202081886802F086
:104550002FFDA0613869E061284600F0D7F83046A9
:10456000BDE8F04104F02EB884320020C0000020E5
:10457000E06700200CE500082DE9FE43446A074689
:10458000002C51D0607900284ED0A06900250290FF
:104590003846A561E561256265622563E562A5622D
:1045A000A58265822582E58100F04CFA60B307227E
:1045B000214601AB3846FFF739F8060024D0716870
:1045C0000423BDF804003622F0318846FFF702FBD1
:1045D000ADF80400029802F0EBFC0246BDF80400BE
:1045E0004146FFF7A1FB32464146ADF80400FFF714
:1045F0006BFC0E484323009702AA3146806809F0FD
:1046000023FD304603F0DEFF094B38461A461146BB
:1046100003F094FA0021204600F078F92079002870
:1046200002D0FFF7F5F82571BDE8FE83B400002045
:104630000CE500082DE9FC47446A052107462046A1
:1046400000F064F90322214601AB3846FEF7EEFF85
:1046500006003CD071680223BDF804003922F03115
:1046600089464D46FFF7B6FAADF8040029463A8D63
:10467000FFF7C6FB032329463722ADF80400FFF7F6
:10468000A9FADFF884800025ADF804004946BDF89A
:10469000040018F80520FFF7E9FA6D1CADF80400D6
:1046A000EDB2032DF2D380B232464946FFF70CFC3F
:1046B00015484323009704F11802401E31468068D4
:1046C00009F0C2FC0546304603F07CFF01E04FF0E4
:1046D000FF35A079FF2801D2401CA071C0B20A2882
:1046E00004D24FF4FA6110FB01F001E044F62060BF
:1046F00080B24FF4FA7100F2F310B0FBF1F02081B8
:104700002846BDE8FC870000B50000202DE9FE43E7
:10471000070073D07C6A002C7CD00121204600F079
:10472000F5F80322214602AB3846FEF77FFF06006C
:104730007AD071680223BDF808003922F031894629
:104740004D46FFF747FAADF8080029463A8DFFF7C6
:1047500057FB042329463222ADF80800FFF73AFA46
:10476000ADF80800E06902F023FC0246BDF808003D
:104770002946FFF7D9FA042329463622ADF8080066
:10478000FFF728FAADF80800A06902F011FC024614
:10479000BDF808002946FFF7C7FA03232946372248
:1047A000ADF80800FFF716FADFF8BC800025ADF879
:1047B000080000BF18F805204946BDF80800FFF7BB
:1047C00055FA6D1CADF80800EDB2032DF2D380B29E
:1047D00032464946FFF778FB24484323244A3146B2
:1047E000CDE900702048401E806809F0CDFC0546E8
:1047F000304603F0E7FE19E000E00BE01DA340F2B5
:1048000077122AA130A0FBF70BFE6FF00F00BDE876
:10481000FE8309E017A340F2791235A12AA0FBF725
:10482000FFFD6FF00500F2E74FF0FF35A079FF289C
:1048300001D2401CA071C0B2062802D201218140E1
:1048400000E03C214FF6FF7001EB4102C2EBC112C8
:104850004FF4FA7100EAC20000F2F310B0FBF1F07D
:1048600020812846D3E70000B50000200CE50008B1
:1048700010E500082E2E2F4D6964646C6577617217
:1048800065732F54686972645F50617274792F4C3C
:104890007749502F7372632F636F72652F6970763B
:1048A000342F646863702E630000000064686370D6
:1048B0005F73656C6563743A206E65746966202168
:1048C0003D204E554C4C0000417373657274696F06
:1048D0006E2022257322206661696C6564206174F4
:1048E000206C696E6520256420696E2025730A009E
:1048F000646863705F73656C6563743A20646863B1
:104900007020213D204E554C4C00000042798A42D7
:1049100003D04171002282710281704770B5050099
:104920006FF00F041AD095F83100C0071BD0288D06
:104930004FF0FF366C6AB0F5107F0DD3002C1BD002
:10494000207908B1FEF764FF34212046FBF7DEFE34
:10495000FFF7CAF8002816D0304670BD14A340F205
:10496000E72221A103E012A34FF43A7222A12BA067
:10497000FBF756FD204670BD342002F025FC0400F4
:10498000EAD06C62E0E70120207195F83100400721
:1049900005D402212046FFF7B9FF002070BD28464C
:1049A000FEF7E0FF0028F9D02846FFF7E5FDD3E742
:1049B0002E2E2F4D6964646C6577617265732F5478
:1049C000686972645F50617274792F4C7749502F17
:1049D0007372632F636F72652F697076342F64680A
:1049E00063702E63000000006E6574696620213DCF
:1049F000204E554C4C0000006E657469662069734A
:104A0000206E6F742075702C206F6C642073747925
:104A10006C6520706F72743F000000004173736515
:104A20007274696F6E2022257322206661696C653D
:104A300064206174206C696E6520256420696E2095
:104A400025730A0040B1406A30B140790A2805D088
:104A5000052803D0042801D00020704701207047AA
:104A600010B5426A044651790C290BD0062909D0A9
:104A700001290BD0082918D0032926D190790228C2
:104A800020461ED3BDE81040FEF76CBF9079052884
:104A9000204603D8BDE81040FFF738BEFFF76CFD95
:104AA0002046BDE81040FFF739BF90790128204625
:104AB00003D8BDE81040FEF749BDBDE81040FEF741
:104AC00083BCBDE81040FFF747BC10BD70B50C4675
:104AD0000546880706D006A34FF4B67210A118A0A9
:104AE000FBF79EFCA86800682060A868046070BDA1
:104AF0002E2E2F4D6964646C6577617265732F5437
:104B0000686972645F50617274792F4C7749502FD5
:104B10007372632F636F72652F6D656D702E630006
:104B20006D656D705F667265653A206D656D2070AC
:104B3000726F7065726C7920616C69676E65640074
:104B4000417373657274696F6E202225732220662B
:104B500061696C6564206174206C696E65202564F0
:104B600020696E2025730A0010B580680468002C47
:104B70000CD02168A207016006D005A34FF48C7207
:104B80000FA118A0FBF74CFC204610BD002010BD63
:104B90002E2E2F4D6964646C6577617265732F5496
:104BA000686972645F50617274792F4C7749502F35
:104BB0007372632F636F72652F6D656D702E630066
:104BC0006D656D705F6D616C6C6F633A206D656DC6
:104BD000702070726F7065726C7920616C69676E9D
:104BE00065640000417373657274696F6E202225DD
:104BF0007322206661696C6564206174206C696E43
:104C00006520256420696E2025730A0070B5094D62
:104C10000024064604EB440005EBC000017D29B1E9
:104C20008068B04202D1204600F034F9641C0A2C9E
:104C3000F0DB70BD006800202DE9F74F84B04FF025
:104C40000A0B00240646DA465F46D94602940194D0
:104C5000009404EB440050490A2F039001EBC00874
:104C600098F814501DD0002D2AD0012D08D0022D07
:104C700006D24AA340F2231256A166A0FBF7D0FB4E
:104C80009EB13168D8F8040081420ED1069820B157
:104C9000D8F808100698814207D1204607B0BDE831
:104CA000F08F002DE1D127460AE0012D16D0022D0C
:104CB00006D3B8F812000099884201D3A2460090AA
:104CC000641C24B20A2CC4DB059881074FF0FF3026
:104CD000E4D40A2F16D018DA3C463EE02E49039859
:104CE00051F830000028B8F8120005D00299884227
:104CF000E6D3A1460290E3E701998842E0D3A346B8
:104D00000190DDE70599C907C8D0BAF10A0F5146ED
:104D10000EDA0C46204801EB440150F8310080B116
:104D20001EA340F26D1245A13AA0FBF779FB08E003
:104D3000BBF10A0F594603DBB9F10A0F4946ADDA58
:104D40000C460A2C06DB15A340F27F1241A131A0CC
:104D5000FBF766FB204600F09DF80A2C06DB0FA34C
:104D600040F283123BA12BA0FBF75AFB0A4804EB4D
:104D7000440100EBC105287D30B108A34FF4C27295
:104D800039A124A0FBF74CFB0EB13068686000210C
:104D90000698A860698280E7006800202E2E2F4DBB
:104DA0006964646C6577617265732F5468697264B5
:104DB0005F50617274792F4C7749502F7372632F53
:104DC000636F72652F697076342F657468617270D5
:104DD0002E6300007374617465203D3D2045544886
:104DE0004152505F53544154455F50454E44494EE3
:104DF00047207C7C207374617465203E3D204554BF
:104E0000484152505F53544154455F535441424CC2
:104E100045000000417373657274696F6E2022252E
:104E20007322206661696C6564206174206C696E10
:104E30006520256420696E2025730A006172705F09
:104E40007461626C655B695D2E71203D3D204E553D
:104E50004C4C000069203C204152505F5441424C70
:104E6000455F53495A4500006172705F7461626C1E
:104E7000655B695D2E7374617465203D3D2045540A
:104E8000484152505F53544154455F454D50545929
:104E90000000000070B5074C00EB4005002654F8F8
:104EA000350018B103F08EFB44F8356004EBC50003
:104EB000067570BD006800202DE9F0430D0007461F
:104EC00085B009D07C684FF480782088404542D175
:104ED000207906283FD109E021A340F28A222EA1A1
:104EE00031A0FBF79DFA05B0BDE8F0836079042896
:104EF00031D1608808282ED1D4F80E00049068685B
:104F0000A16920B1814202D10126334601E0002689
:104F10000223284604F1080204A9914600F0ACFBE4
:104F2000E088404503D0B0F5007F14D10FE096B182
:104F30000222284604AB291DCDE90232CDE9001931
:104F400005F12A034A46194600F096FA03E004A93F
:104F50002846FEF7EBF9384603F034FBC3E70000C0
:104F60002E2E2F4D6964646C6577617265732F54C2
:104F7000686972645F50617274792F4C7749502F61
:104F80007372632F636F72652F697076342F657447
:104F9000686172702E6300006E6574696620213D41
:104FA000204E554C4C000000417373657274696F5C
:104FB0006E2022257322206661696C65642061740D
:104FC000206C696E6520256420696E2025730A00B7
:104FD000FEB5040015460E4606D143A340F21E322C
:104FE0004FA153A0FBF71CFA36B93FA340F21F3282
:104FF00059A14FA0FBF714FA35B93BA34FF44872FF
:1050000058A14BA0FBF70CFA2868214600F0D6FE09
:1050100008B1584B3EE02868C0F303110E2924D094
:10502000D4E901210A400140914208D080B2A0F5A4
:105030007E41A93903D0E068B0B304F10C054E4BB2
:105040004E481A7802EB420100EBC1010F7D022F9E
:105050002ED38F68A7422BD12F6849688F4227D162
:105060003146204600F08CF8FEBD01228DF8042068
:1050700000208DF805005E218DF80610687801ABE0
:1050800000F07F008DF80700A8788DF80800E87818
:105090008DF809004FF4006004F12A0231460090B7
:1050A000204600F0C9FBFEBDFFE76FF00300FAE702
:1050B0005FF0000202EB420100EBC1010F7D022F05
:1050C00008D38F68A74205D12F6849688F4201D164
:1050D0001A70C5E7521CD2B20A2AEBD332462946CF
:1050E000204600F0D5F8DEE72E2E2F4D6964646C63
:1050F0006577617265732F54686972645F5061727D
:1051000074792F4C7749502F7372632F636F7265D8
:105110002F697076342F6574686172702E63000099
:105120006E6574696620213D204E554C4C00000090
:10513000417373657274696F6E2022257322206635
:1051400061696C6564206174206C696E65202564FA
:1051500020696E2025730A007120213D204E554C98
:105160004C00000069706164647220213D204E553E
:105170004C4C0000F2E30008C8000020006800204A
:105180002DE9F8431546884606461C4802EB4501C2
:1051900000EBC104207D022806D219A340F2EE22C2
:1051A00025A131A0FBF73CF9144A05EB4501207D10
:1051B00002EBC1050C35022813D1608A0327B0F534
:1051C0008E7F04D9211D304600F010FA07E0B0F5BB
:1051D000877F06D3211D2A46304600F00DFA00B91C
:1051E00027754FF4006006F12A022B4641460090D5
:1051F000304600F021FBBDE8F88300000068002085
:105200002E2E2F4D6964646C6577617265732F541F
:10521000686972645F50617274792F4C7749502FBE
:105220007372632F636F72652F697076342F6574A4
:10523000686172702E6300006172705F7461626CED
:10524000655B6172705F6964785D2E73746174650B
:10525000203E3D204554484152505F5354415445EF
:105260005F535441424C4500417373657274696FDA
:105270006E2022257322206661696C65642061744A
:10528000206C696E6520256420696E2025730A00F4
:105290002DE9FC5F824614462A30019008680E46CC
:1052A0004FF0FF374FF0000B514600F087FD80B9FB
:1052B0003068C0F303110E290BD056B148B101215B
:1052C00052463046FFF7B8FC050005D540B2BDE8B0
:1052D000FC9F6FF00F00FAE77F2D06D337A340F253
:1052E000C13244A147A0FBF79BF805F0FF094F49E5
:1052F00009EB490801EBC805287D00280ED00128DC
:1053000008D0022806D22DA340F2CD3248A13DA0FC
:10531000FBF786F8BBF1000F06D104E0C5F808A042
:105320000121297500E034B93146504600F05EF99C
:10533000002C0746CBD0287D3C4E02280ED3464990
:105340004FF4006205F10C03504681F800902146AD
:105350000092019A00F070FA07462DE001282BD147
:10536000254640F2F13768892989884207D12868A3
:1053700028B112A33A4639A122A0FBF751F8287BA5
:10538000400607D50E2022464FF4207102F04EFF52
:10539000044605E02D68002DE5D1204603F080FA93
:1053A00044B156F8380008B103F00CF9002746F86C
:1053B000384001E04FF0FF37384688E72E2E2F4D5A
:1053C0006964646C6577617265732F54686972648F
:1053D0005F50617274792F4C7749502F7372632F2D
:1053E000636F72652F697076342F657468617270AF
:1053F0002E63000074797065206F766572666C6F3D
:1054000077000000417373657274696F6E20222506
:105410007322206661696C6564206174206C696E1A
:105420006520256420696E2025730A00006800202D
:105430006172705F7461626C655B695D2E7374612B
:105440007465203D3D2050454E44494E47206F72C3
:1054500020535441424C4500C80000206E6F20701C
:1054600061636B65742071756575657320616C6C23
:105470006F776564210000002DE9FF4F81B09846E9
:1054800006004FF00007DDE90FA9DDF838B006D1BE
:105490002CA340F2574239A13CA0FAF7C1FF1C21CE
:1054A0000E204FF4207202F08BFC050046D0688974
:1054B0001C2806D223A340F262423EA133A0FAF791
:1054C000AFFF6C68119801F075FDE08096F8300030
:1054D000062806D044491BA32CA040F26942FAF7E3
:1054E0009FFFD8F800100623A1604FF48071B8F830
:1054F0000400A081DAF80020C4F812200822BAF8CB
:105500000400E082DBF80000C4F80E00D9F80000C7
:10551000A0610420218040F6060162802371607141
:105520003046DDE902230091294600F085F928463E
:1055300003F048F8384605B0BDE8F08F4FF0FF3073
:10554000F9E700002E2E2F4D6964646C6577617257
:1055500065732F54686972645F50617274792F4C5F
:105560007749502F7372632F636F72652F6970765E
:10557000342F6574686172702E6300006E65746903
:105580006620213D204E554C4C0000004173736550
:105590007274696F6E2022257322206661696C65C2
:1055A00064206174206C696E6520256420696E201A
:1055B00025730A00636865636B20746861742066F4
:1055C0006972737420706275662063616E20686F03
:1055D0006C64207374727563742065746861727092
:1055E0005F6864720000000034E60008014A00F0C1
:1055F00003B80000F2E300087FB5064D0124031D47
:10560000CDE90214CDE9003526331946FFF734FF02
:1056100004B070BDF8E3000870B5164D5FF00004EB
:1056200004EB440005EBC0010A7DF2B1488A401C3E
:1056300080B24882B0F5967F0AD2012A06D0032AAA
:105640000AD0042A0AD0012A0BD00EE0052808D37C
:105650002046FFF71FFC08E0042000E00220087548
:1056600003E08868091DFFF7C1FF641C0A2CD7DB23
:1056700070BD000000680020F8B5044690F83000C6
:105680001F46154606280E4606D020A340F2A91252
:105690002CA135A0FAF7C4FE9EB1306888B121462E
:1056A00000F08CFB68B93078C0F303100E2808D0E6
:1056B000224639463046FFF7BFFA002804DA40B2E6
:1056C000F8BD6FF00F00F8BD314A00EB4001022336
:1056D00002EBC1000375002384602E68C660AE88AB
:1056E0000682438252F8316076B142F831304FF48D
:1056F00000602B4604F12A0231460090204600F05B
:105700009BF8304602F05EFF0020F8BD2E2E2F4D94
:105710006964646C6577617265732F54686972643B
:105720005F50617274792F4C7749502F7372632FD9
:10573000636F72652F697076342F6574686172705B
:105740002E6300006E657469662D3E68776164643F
:10575000725F6C656E203D3D204554485F4857415F
:105760004444525F4C454E00417373657274696FD7
:105770006E2022257322206661696C656420617445
:10578000206C696E6520256420696E2025730A00EF
:10579000006800202DE9F041044640890E270D469F
:1057A0000E283CD9E07B18B995F83400401CE07312
:1057B000606801788689CA0714D0012905D01D497F
:1057C0000622FAF7F1FE48B10CE0417851B9807831
:1057D0005E2807D1607B40F0100002E0607B40F063
:1057E00008006073082E03D0B6F5C16F17D10DE025
:1057F00095F83100000712D53946204603F096F897
:1058000068B92946204600F025FC10E095F83100E3
:10581000000704D53946204603F088F818B1204621
:1058200002F0D0FE03E029462046FFF745FB0020AA
:10583000BDE8F081F2E300082DE9F0411F469046F3
:105840000E460446069801F0B5FB0E21054630468B
:1058500002F052FA18B16FF00100BDE8F0817068F3
:10586000858139680160B9888180D8F80020C0F846
:105870000620B8F80410418194F83000062806D0BC
:1058800006A34FF4997213A11FA0FAF7C9FDA269EC
:1058900031462046BDE8F041104700002E2E2F4D26
:1058A0006964646C6577617265732F5468697264AA
:1058B0005F50617274792F4C7749502F7372632F48
:1058C0006E657469662F65746865726E65742E63A3
:1058D000000000006E657469662D3E68776164643F
:1058E000725F6C656E206D75737420626520362062
:1058F000666F722065746865726E65745F6F75742B
:105900007075742100000000417373657274696FD3
:105910006E2022257322206661696C6564206174A3
:10592000206C696E6520256420696E2025730A004D
:1059300010B5040006D10BA34FF4057210A114A0FA
:10594000FAF76EFD1C49732061611C49A161742145
:1059500084F83200204684F8331001F0D3F9002097
:1059600010BD00002E2E2F4C5749502F54617267E6
:1059700065742F65746865726E657469662E630060
:105980006E6574696620213D204E554C4C00000028
:10599000417373657274696F6E20222573222066CD
:1059A00061696C6564206174206C696E6520256492
:1059B00020696E2025730A00D14F0008C56E0008CB
:1059C00070B5054601F01AFA040009D02A69294683
:1059D0009047002804D02046BDE8704002F0F2BD98
:1059E00070BD70472DE9FC410025064601950095E4
:1059F00090F83100400742D5254C606868B300211B
:105A000020464FF48052FCF761F9FCF78FFA4FF40F
:105A10007A7701901E4801216A46FCF707F8FCF7E7
:105A200085FA0199401AB84217D800988006F1D536
:105A3000174810216A46FBF7F9FF0098410703D584
:105A40004FF40061E16000E0E560800701D5A560EA
:105A50000DE04FF48040A06009E0D4E90210C008D6
:105A600040EA510082B20A480021FCF72FF90848A9
:105A70000021FBF711FD0648FCF71BF802E0044883
:105A8000FCF759F83046FFF7ACFFBDE8FC81000099
:105A9000043200208A68002A01DCFBF754B8521E49
:105AA0008A604A68C0B2531C4B60107070470A4647
:105AB000032100F0F7B800002DE9FE4F8A46454962
:105AC0000446D1F8088098F800000007870E142FCC
:105AD0007BD36089042878D360680078002874D06C
